:1000000021C03BC008C3A0C238C044C336C0A0C48E
:10001000A5C533C032C031C030C02FC0AFC32DC062
:100020002CC02BC02AC029C028C027C026C025C08C
:1000300024C023C046C152C167C17CC198C1B4C1AC
:10004000C9C1DDC111241FBECFEFD4E0DEBFCDBFDB
:1000500011E0A0E0B1E0E6EEFEE002C005900D92F6
:10006000A232B107D9F711E0A2E2B1E001C01D92BE
:10007000AD3CB107E1F702D034C7C2CFCF93DF93D5
:10008000C8D081D26DD37894A2D2B4D298D6C8EC1D
:10009000D0E0E091C801F091C90180818230D1F4B3
:1000A0003496F0932301E0932201349781818823D1
:1000B00081F08481813669F48BE061E0F0D088E8DA
:1000C00093E1FE013197F1F70197D9F78BE060E0FA
:1000D000E6D05CD68091470190914801892B11F4BC
:1000E00089D277C080914901813019F489E061E0BB
:1000F00002C089E060E0D3D080914901823019F4D8
:1001000087E061E002C087E060E0C9D080914A01E9
:10011000813009F049C080910F01813051F0823067
:1001200089F08823C1F484E061E0B9D085E060E023
:1001300005C084E060E0B3D085E061E0B0D086E047
:1001400060E008C084E060E0AAD085E060E0A7D06D
:1001500086E061E0A4D080914D01813051F0813082
:1001600028F0823061F08330A1F512C080E061E0B8
:1001700026C080E060E093D081E062E023C080E0B0
:1001800060E08DD081E060E08AD082E063E01DC055
:1001900080E060E084D081E060E081D082E060E0D7
:1001A0007ED083E064E014C084E060E078D085E035
:1001B00060E075D086E060E072D080E060E06FD0F3
:1001C00081E060E06CD082E060E069D083E060E0D4
:1001D00066D096D513D55DCF882399F0419A80E1FA
:1001E00097E20197F1F780910201853608F084E6E5
:1001F00080930201209102018FEF90E0821B910910
:1002000003C041988FEF90E090938900809388001D
:10021000089580E0E1DFA0E0B0E0FD01EB5DFE4F7E
:1002200010821196A432B105C1F73B9A8C9182607D
:100230008C933C9A3D9A399A81E0CEDF8091800080
:100240008968809380008091810083608093810021
:1002500008959091010181E1989F902D1124953688
:1002600008F094E690930201209102018FEF90E054
:10027000821B9109909389008093880008958536A8
:1002800008F084E680930201209102018FEF90E054
:10029000821B91099093890080938800089567FDDF
:1002A00060E0843008F0C8C0E62FFF27E7FDF09536
:1002B000E830F10508F026C1E65EFF4F282F30E058
:1002C00009942D5F3E4FF9018081AFE1B0E0FD015F
:1002D000E81BF109EB5DFE4F10820DC02D5F3E4F14
:1002E000F9018081AFE1B0E0FD01E81BF109EB5DB0
:1002F000FE4F81E08083F9018481FD01E81BF10953
:10030000EB5DFE4F108248C02D5F3E4FF9018081AA
:10031000AFE1B0E0FD01E81BF109EB5DFE4F10829B
:10032000F9018481FD01E81BF109EB5DFE4F81E0DD
:10033000808332C02D5F3E4FF9018081AFE1B0E094
:10034000FD01E81BF109EB5DFE4F1082F90184818C
:10035000FD01E81BF109EB5DFE4F1082F90180857C
:10036000A81BB109AB5DBE4F81E08C9308952D5F52
:100370003E4FF9018081AFE1B0E0FD01E81BF109DA
:10038000EB5DFE4F91E09083F9018481FD01E81B54
:10039000F109EB5DFE4F9083F9018085A81BB1093F
:1003A000AB5DBE4F1C9208952D5F3E4FF9018081D9
:1003B000AFE1B0E0FD01E81BF109EB5DFE4F91E01C
:1003C0009083F9018481FD01E81BF109EB5DFE4F8B
:1003D00010822AC02D5F3E4FF9018081AFE1B0E06D
:1003E000FD01E81BF109EB5DFE4F1082F9018481EC
:1003F000FD01E81BF109EB5DFE4F91E014C02D5F9C
:100400003E4FF9018081AFE1B0E0FD01E81BF10949
:10041000EB5DFE4F91E09083F9018481FD01E81BC3
:10042000F109EB5DFE4F9083F9018085A81BB109AE
:10043000AB5DBE4F9C930895843049F4662321F050
:1004400081E080933A01089510923A010895853031
:1004500049F4662321F081E080933B0108951092D6
:100460003B010895863049F4662321F081E08093B2
:100470003C01089510923C010895873049F46623A9
:1004800021F081E080934301089510924301089583
:10049000883049F4662321F081E080934201089579
:1004A000109242010895893049F4662321F081E0D9
:1004B0008093410108951092410108958A3069F4B2
:1004C000662331F081E080933F01809340010895DD
:1004D00010923F011092400108958B3049F4662339
:1004E00021F081E080932B01089510922B01089553
:1004F0008C3041F4662321F081E080932C01089533
:1005000010922C01089520E030E0F901EB5DFE4FE0
:100510008081813011F4439A01C04398449A4498F1
:100520002F5F3F4F2432310581F7459A4598089552
:1005300080E090E0FC01EB5DFE4F1082019684327A
:100540009105C1F7E0DF08951F920F920FB60F9249
:1005500011242F933F938F939F9320E23EE4C90190
:100560000197F1F71E9906C0C9010197F1F781E0E3
:10057000809346019F918F913F912F910F900FBED5
:100580000F901F90189553985B9A54985C9A2698F0
:100590002E9A56985E9A55985D9A5098589A519806
:1005A000599AE8E6F0E0808185608083EBE6F0E030
:1005B000808180648083EDE6F0E080818B678083BA
:1005C00081E090E09093480180934701089581E095
:1005D00090E0909348018093470113BEE998E8E6C4
:1005E000F0E08081856080837894109249011092B8
:1005F0004A010895E8E6F0E080818A7F8083E99AE5
:10060000109248011092470180E0E6DD83B78560D3
:1006100083BF889508951F920F920FB60F921124F1
:100620002F933F934F935F936F937F938F939F93FA
:10063000AF93BF93EF93FF93CADF88EE93E028EC6C
:1006400030E0F9013197F1F70197D9F74B9B05C0DD
:1006500010924801109247010CC081E0BDDD80E19D
:1006600097E20197F1F781E090E090934801809341
:100670004701FF91EF91BF91AF919F918F917F9132
:100680006F915F914F913F912F910F900FBE0F90FF
:100690001F9018951F920F920FB60F9211242F934F
:1006A0003F934F935F936F937F938F939F93AF93FA
:1006B000BF93EF93FF9380EA9FE00197F1F789B131
:1006C0008B778B37E1F14B9907C080914A018823E2
:1006D00019F481E0809345014E9B30C04D9B2EC0A4
:1006E000489914C080914A01813041F510924C0123
:1006F00010924B0180910F01815080930F018091E6
:100700000F0187FF1BC010920F0118C0499915C037
:1007100080914A01813091F410924C0110924B016A
:1007200080910F018F5F80930F0180910F018330C3
:100730002CF082E080930F0101C089B1E4DEFF91CB
:10074000EF91BF91AF919F918F917F916F915F9149
:100750004F913F912F910F900FBE0F901F901895C2
:1007600084B5826084BD85B5856085BDEEE6F0E028
:100770008081826080838FEF87BD08951F920F92E2
:100780000FB60F9211242F933F934F935F936F9364
:100790007F938F939F93AF93BF93EF93FF9380913A
:1007A00045018823D1F04B9906C0809145018F5FA8
:1007B0008093450112C01092450180914A0188231F
:1007C00061F4809149018F5F8093490180914901D3
:1007D00084301CF081E08093490180914601181615
:1007E000ECF41E9906C0809146018F5F809346010C
:1007F00015C01092460180914A01813079F48091B0
:100800004D018F5F80934D0110924C0110924B016E
:1008100080914D01843010F010924D01809145017E
:100820008E3139F41092450110924801109247011F
:1008300006C081E090E09093480180934701809149
:1008400046018E3199F41092460180914A01882325
:1008500059F410924C0110924B0181E080934A01AF
:1008600082E080930F0102C010924A0180914F01F3
:100870009091500180915301909154010F9799F4F8
:1008800080914A01813059F48091100190911101B9
:10089000909581959F4F9093110180931001109234
:1008A00054011092530180914B0190914C018C5254
:1008B000914031F480914A01813011F410924A0143
:1008C00080914A012091100130911101992787FDF3
:1008D0009095829FB001839F700D929F700D11249F
:1008E0008AE0DDDC10DE80914F019091500101968D
:1008F0009093500180934F0180915101909152014A
:1009000001969093520180935101809153019091EF
:1009100054010196909354018093530180914B01AF
:1009200090914C01019690934C0180934B01FF9163
:10093000EF91BF91AF919F918F917F916F915F9157
:100940004F913F912F910F900FBE0F901F901895D0
:100950001F920F920FB60F9211242F933F934F9334
:100960005F936F937F938F939F93AF93BF93DF9327
:10097000CF9300D0CDB7DEB780911F01869590E070
:100980009A83898329813A818091200190E0AC018A
:10099000429FC001439F900D529F900D11249A8356
:1009A000898389819A8164E670E06BD27A83698356
:1009B0002091B30089819A812091B30089819A8125
:1009C000280F2093B4008091B30020911F019091D3
:1009D000B30080911F01890F8093B3005F9A0F903D
:1009E0000F90CF91DF91BF91AF919F918F917F91A8
:1009F0006F915F914F913F912F910F900FBE0F908C
:100A00001F901895579AE0E7F0E080818660808318
:100A100081E08093B30082E08093B4000895282F92
:100A200018161CF58091580190915901892B21F4D9
:100A30008091570187FF04C080915A018823A9F053
:100A40008091B10084608093B10008958091B100DD
:100A50008B7F8093B1005F981092B20081E0809309
:100A6000B30082E08093B4000895222379F30895BF
:100A7000CF93DF93EC0180911E01823070F0809162
:100A8000580190915901892B21F48091570187FFDA
:100A90001EC080915A018823D1F4E0915601F0E004
:100AA000E95EFE4F808180931F01E0915701FF278F
:100AB000E7FDF095EE5EFE4F80818093200181E09E
:100AC000AEDFCE0162E370E0F0D160935501DF91BB
:100AD000CF910895CF93DF93EC0180911E01823076
:100AE00080F18091580190915901892B21F48091D6
:100AF000570187FF2BC080915A01882339F521C007
:100B0000E0915601F0E0E85EFE4F05C0E09156012D
:100B1000F0E0EA5EFE4F808180931F01E091570173
:100B2000FF27E7FDF095EE5EFE4F80818093200168
:100B300081E075DFCE0162E370E0B7D160935501CB
:100B400005C0809156018823D9F2E0CFDF91CF9183
:100B500008958093200160931F0108951F920F92C2
:100B60000FB60F9211245F980F900FBE0F901F9039
:100B700018952A989EBD0DB407FEFDCF8EBD0DB40D
:100B800007FEFDCF2A9A08952A989EBD0DB407FE50
:100B9000FDCF3EB58EBD0DB407FEFDCF2EB5932F14
:100BA00080E02A9A30E0282B392BC90108952A9831
:100BB0001EBC0DB407FEFDCF2A9A8EB508952A9863
:100BC0008EBD0DB407FEFDCF6EBD0DB407FEFDCF8B
:100BD0002A9A08952A9880EB8EBD0DB407FEFDCFAA
:100BE0001EBC0DB407FEFDCF2A9A8EB50895239A38
:100BF000259A229A249881E58CBD08951F93D7DF0A
:100C000087FF7CC08091C2018130E9F0813020F003
:100C1000823009F06BC052C011E01093C501DADFD9
:100C2000982F8093CC019D5F9093C4019350E091E5
:100C3000C601F091C7018081882309F057C0109345
:100C4000C20191835BC09091C5018091C401981746
:100C5000D8F4C0DF9091CC0198279093CC012091DB
:100C6000C501213238F4E091C601F091C701E20FCD
:100C7000F11D81838091C501823011F49F3FB1F550
:100C80008F5F8093C5013AC0E091C601F091C70122
:100C900082E080838091CA0190E00196817090701B
:100CA000282F8093CA0182E2289F900111242258A4
:100CB0003E4F3093C7012093C60118C09091C501E3
:100CC0008091C401981750F4E92FF0E0E55AFE4FE7
:100CD00060819F5F9093C50188EB0FC01092C301A4
:100CE00081E892E846DF88EB6AEA69DF1092C20188
:100CF0008AEC61E864DF8AEC63E861DF1F910895A4
:100D00008091C201882369F580E090E03DDF90FF8B
:100D100004C088EC809321010895809121018150C5
:100D2000809321018823E9F481E08093210180915F
:100D3000C3018130B1F481E092E81BDF80915D0155
:100D40008A5F8093C4011092C50182E08093C20142
:100D50008AEA98EB0EDF8AEA98EB0BDF81E292E8F1
:100D600008DF0895982F8091C301882311F083E054
:100D7000089560935D0190935E016927609560938B
:100D80005F0181E08093C30180E80895E091C8018C
:100D9000F091C90110828091CB0190E001968170A1
:100DA0009070282F8093CB0182E2289F900111241C
:100DB00022583E4F3093C9012093C80108952A9AC2
:100DC000229A15DF87ED90E8D4DE81E092E8D1DE4B
:100DD00080EB94EACEDE83E296ECCBDE8CE294E903
:100DE000C8DE8BEA92ECC5DE81E89AECC2DE87EFC2
:100DF00094ECBFDE80E798E9BCDE80E098ECB9DED9
:100E000080E090EEB6DE8DE280935B0184ED80930E
:100E10005C018EE791E09093C9018093C8019093A3
:100E2000C7018093C60181E892E8A3DEE9E6F0E01D
:100E300080818860808380E090E0A6DEE19A81E88E
:100E40009AEC97DE83E89AEC94DE08950F931F9353
:100E5000182F062F8F3110F082E010C08091C3014F
:100E6000882311F083E00AC020E631E0C901BA010D
:100E7000412F50E02DD0802F612F74DF1F910F91F3
:100E80000895AA1BBB1B51E107C0AA1FBB1FA617D1
:100E9000B70710F0A61BB70B881F991F5A95A9F723
:100EA00080959095BC01CD01089597FB092E0726EA
:100EB0000AD077FD04D0E5DF06D000201AF4709543
:100EC00061957F4F0895F6F7909581959F4F08950E
:100ED000FB01DC0102C001900D9241505040D8F757
:060EE0000895F894FFCF15
:100EE6000106640C0F12150D1013160E11141702BD
:100EF600FFFF0F1E3C505A646E788C96A0B40164B6
:020F06005A107F
:00000001FF
