:1000000025C03FC03EC03DC03CC03BC03AC039C027
:1000100038C037C036C035C034C033C068C231C004
:1000200030C02FC02EC02DC02CC02BC02AC029C06C
:1000300028C027C0E680018262A6A3C62C94ABC26A
:1000400081CAF7C4709800C800E0818211241FBEE5
:10005000CFEFD4E0DEBFCDBF11E0A0E0B1E0E8E536
:10006000F5E002C005900D92A230B107D9F711E07A
:10007000A2E0B1E001C01D92A134B107E1F702D0C6
:1000800069C2BECF3C9A3B9A549A449A88E893E15D
:1000900028EC30E0F9013197F1F70197D9F744984E
:1000A00080E197E228EC30E0F9013197F1F7019710
:1000B000D9F7A7D10ED2789440913C01842F90E0DB
:1000C000880F991FFC01A3E0EE0FFF1FAA95E1F72F
:1000D000E81BF90BE55EFE4F8081823031F5842FFD
:1000E00090E0880F991F9C0163E0220F331F6A95EF
:1000F000E1F7281B390B215E3E4F3093030120931B
:100100000201842F90E0880F991FFC0143E0EE0F5D
:10011000FF1F4A95E1F7E81BF90BE55EFE4F818171
:10012000882311F0C901C3D156D180910A01909161
:100130000B01892B19F088B1886102C088B1877ED4
:1001400088B931D0EED0B8CF2A989EBD0DB407FE45
:10015000FDCF8EBD0DB407FEFDCF2A9A08952A98D3
:100160009EBD0DB407FEFDCF3EB58EBD0DB407FE9E
:10017000FDCF2EB5932F80E02A9A30E0282B392B23
:10018000C901089580913701833061F410923701DD
:1001900080913D0190913E01806890933E01809353
:1001A0003D01D2DF0895DF92EF92FF920F931F93EC
:1001B00000914001A2E0DA2EFEE0EF2EFF24F3943E
:1001C000E19A2A981EBC0DB407FEFDCF2A9A0EB400
:1001D00007FE9FC0109137011130C9F1113038F07E
:1001E000123009F46BC0133009F08AC086C0F09257
:1001F0003A0180E090EBB3DF082F0D5F00933901E7
:10020000035020913B01822F90E0880F991FFC0141
:1002100073E0EE0FFF1F7A95E1F7E81BF90BE55E3F
:10022000FE4F8081882309F06BC0F0923701822F46
:1002300090E0880F991FFC0153E0EE0FFF1F5A95C5
:10024000E1F7E81BF90BE55EFE4F0183B9CF80E0D3
:1002500090EB85DF282F90913A0180913901981712
:10026000C0F402279D3058F4E0913B01EE9DF0016F
:1002700011243196E90FF11DE55EFE4F2083809138
:100280003A01823011F40F3FD9F58F5F80933A0124
:1002900097CF80913B01282F30E0220F331FF901C7
:1002A00093E0EE0FFF1F9A95E1F7E21BF30BE55E7B
:1002B000FE4FD082812780933B0122C020913A01DA
:1002C00080913901281758F4E22FF0E0E45FFE4FE7
:1002D000808190E02F5F20933A01986B18C01092B4
:1002E000380180913D0190913E018F7D8168926837
:1002F00090933E0180933D0127DF8AEA98EB24DF4B
:100300001092370181E89AEC1FDF83E89AEC1CDF3A
:1003100057CF009340011F910F91FF90EF90DF9016
:10032000089580913701882341F58091380181300B
:1003300021F580913D0190913E018F7790933E0190
:1003400080933D0101DF80910E018A5F8093390126
:1003500010923A0182E0809337018AEA98EBF4DE4A
:100360008AEA98EBF1DE80913D0190913E01806236
:1003700090933E0180933D01E7DE0895809137011F
:10038000833019F408950FDFCCDF80913701882383
:10039000D1F780913D0190913E018F7790933E017E
:1003A00080933D01D1DE83E0809337010895982F3B
:1003B00080913801882311F083E0089560930E0145
:1003C00090930F01692760956093100181E08093FD
:1003D000380180E8089520913C01822F90E0880F39
:1003E000991FFC01B3E0EE0FFF1FBA95E1F7E81B80
:1003F000F90BE55EFE4F108281E0282720933C0137
:100400000895CF93DF932A9A229A239A259A2A9ABB
:10041000229A249881E58CBD8DE280930C0184EDB5
:1004200080930D0110923B0110923C0181E892E80B
:1004300090933E0180933D01C0E0D0E0FE01EE0FBD
:10044000FF1FEC5CFF4F859194917EDE2196CC30AE
:10045000D105A1F78091690088608093690080E0F0
:1004600090E07DDEE19A81E89AEC6EDE83E89AEC1A
:100470006BDEDF91CF9108950F931F93182F062FF6
:100480008B3010F082E010C080913801882311F089
:1004900083E00AC021E131E0C901BA01412F50E0F7
:1004A00050D0802F612F83DF1F910F910895FC01A1
:1004B00080818F3F69F48481813051F481E090E044
:1004C00090930B0180930A018BB190E189278BB93E
:1004D000089584B5826084BD85B5856085BDEEE6EE
:1004E000F0E08081826080838FEF87BD08951F9246
:1004F0000F920FB60F9211242F938F939F93809199
:100500000A0190910B01892B49F080910A01909189
:100510000B01019690930B0180930A0180910A01CF
:1005200090910B018C5B924021F410920B01109280
:100530000A019F918F912F910F900FBE0F901F90E6
:100540001895FB01DC0102C001900D924150504012
:08055000D8F70895F894FFCFDD
:02055800FF00A2
:00000001FF
