:1000000021C03BC0BDC3C6C338C05FC436C0C7C76C
:10001000EBC833C032C031C030C02FC022C52DC0A4
:100020002CC02BC02AC029C028C031C026C025C082
:1000300024C023C062C26EC283C298C2B4C2D0C2FE
:10004000E5C2F9C211241FBECFEFD4E0DEBFCDBFA1
:1000500011E0A0E0B1E0EAECF8E102C005900D92F9
:10006000AA32B107D9F711E0AAE2B1E001C01D92AE
:10007000A13EB107E1F775D026CCC2CFEAE7F0E0A8
:1000800080818660808380818062808308951F9252
:100090000F920FB60F9211242F933F934F938F938C
:1000A0009F93EF93FF93E0912E0120917800409170
:1000B0007900942F80E030E0822B932B90932D01D8
:1000C00080932C0180912C0190912D018170907072
:1000D00090932D0180932C0180912F0190913001FC
:1000E000880F991F9093300180932F0120912F0149
:1000F0003091300180912C0190912D01822B932B16
:100100009093300180932F0180912E01877087306A
:1001100089F480912F0190913001892B59F08091C1
:100120002F0190913001E695E695E695F0E0E65ACC
:10013000FE4F808380912E018F5F80932E018091EE
:100140002E01883110F010922E01FF91EF919F91B6
:100150008F914F913F912F910F900FBE0F901F9055
:1001600018951F93CF93DF9380917A0086608093D8
:100170007A0080917A00806280937A0066D129D3D8
:1001800062D46AD966D7789483E080939D0145D381
:100190005FD311E081E03CD1809184019091850191
:1001A000892B11F455D3F6CFE091D201F091D30110
:1001B0008081823069F49F012C5F3F4F30932B0187
:1001C00020932A018181882311F0C90127DA2BD9D4
:1001D000809186018F3F61F5809117018F3F89F4EF
:1001E00080E061E078D181E061E075D182E061E09A
:1001F00072D183E061E06FD18AE562E8F0D781E0F7
:1002000035D780911701813009F0FDC080E062E0B0
:1002100062D181E062E05FD182E062E05CD183E0A4
:1002200062E059D18AE562E8DAD780E01FD7EBC0F7
:1002300080915901813009F06DC0809114018130A5
:1002400051F0823089F08823C1F484E061E043D129
:1002500085E060E005C084E060E03DD185E061E0DC
:100260003AD186E060E008C084E060E034D185E007
:1002700060E031D186E061E02ED18091440181308F
:1002800091F0813028F08230E1F08330E1F52AC02E
:10029000E0914401F0E0EF5FFE4F608180E01BD110
:1002A00081E060E00AC080E060E015D1E0914401A7
:1002B000F0E0EF5FFE4F608181E00DD182E060E011
:1002C0000DC080E060E007D181E060E004D1E09102
:1002D0004401F0E0EF5FFE4F608182E0FCD083E0FC
:1002E00060E010C080E060E0F6D081E060E0F3D034
:1002F00082E060E0F0D0E0914401F0E0EF5FFE4F7B
:10030000608183E0E8D060911501709116018AE068
:10031000E2D079C084E060E0DED085E060E0DBD050
:1003200086E060E0D8D080918601813061F58BE075
:1003300060E0D1D08CE060E0CED089E061E0CBD04D
:10034000C0E0D0E0FE01EF5AFE4F8081882399F093
:1003500020911701FE01EF5FFE4F808190E033276F
:1003600027FD3095829FB001839F700D929F700D85
:1003700011248C2F02C08C2F60E0ADD02196C430A8
:10038000D10501F703C089E060E0A5D08091860126
:10039000823019F487E061E002C087E060E09BD022
:1003A0008091860182307CF1C0E0D0E0FE01EE0F4A
:1003B000FF1FEB5BFE4F80819181892B01F18091C2
:1003C00017018130B1F480913101882391F4FE014D
:1003D000E35BFE4F8081823021F482E390E05FD6C0
:1003E00006C08081813019F482E390E090D61093AA
:1003F0003101809117018F3F11F410923101219644
:10040000C430D10599F6F89446D7C7D77894C2CEB0
:10041000882399F0419A80E197E20197F1F7809162
:100420000701853608F084E68093070120910701D3
:100430008FEF90E0821B910903C041988FEF90E00D
:100440009093890080938800089580E0E1DFA0E028
:10045000B0E0FD01EE59FE4F10821196A432B105B5
:10046000C1F73B9A8C9182608C933C9A3D9A399A61
:1004700081E0CEDF80918000896880938000809148
:10048000810083608093810008959091060181E14D
:10049000989F902D1124953608F094E690930701CB
:1004A000209107018FEF90E0821B910990938900C2
:1004B000809388000895853608F084E680930701CC
:1004C000209107018FEF90E0821B910990938900A2
:1004D00080938800089567FD60E0843008F0C8C00C
:1004E000E62FFF27E7FDF095E830F10508F026C17B
:1004F000E65EFF4F282F30E00994285F3E4FF90158
:100500008081AFE1B0E0FD01E81BF109EE59FE4F3B
:1005100010820DC0285F3E4FF9018081AFE1B0E04D
:10052000FD01E81BF109EE59FE4F81E08083F901DE
:100530008481FD01E81BF109EE59FE4F108248C08D
:10054000285F3E4FF9018081AFE1B0E0FD01E81B7B
:10055000F109EE59FE4F1082F9018481FD01E81B7B
:10056000F109EE59FE4F81E0808332C0285F3E4F93
:10057000F9018081AFE1B0E0FD01E81BF109EE591E
:10058000FE4F1082F9018481FD01E81BF109EE594B
:10059000FE4F1082F9018085A81BB109AE59BE4FEC
:1005A00081E08C930895285F3E4FF9018081AFE18F
:1005B000B0E0FD01E81BF109EE59FE4F91E0908398
:1005C000F9018481FD01E81BF109EE59FE4F90838A
:1005D000F9018085A81BB109AE59BE4F1C92089540
:1005E000285F3E4FF9018081AFE1B0E0FD01E81BDB
:1005F000F109EE59FE4F91E09083F9018481FD01EC
:10060000E81BF109EE59FE4F10822AC0285F3E4FC9
:10061000F9018081AFE1B0E0FD01E81BF109EE597D
:10062000FE4F1082F9018481FD01E81BF109EE59AA
:10063000FE4F91E014C0285F3E4FF9018081AFE189
:10064000B0E0FD01E81BF109EE59FE4F91E0908307
:10065000F9018481FD01E81BF109EE59FE4F9083F9
:10066000F9018085A81BB109AE59BE4F9C9308952E
:10067000843049F4662321F081E080937701089566
:10068000109277010895853049F4662321F081E0C6
:10069000809378010895109278010895863049F486
:1006A000662321F081E08093790108951092790109
:1006B0000895873049F4662321F081E0809380011A
:1006C0000895109280010895883049F4662321F03E
:1006D00081E080937F01089510927F010895893011
:1006E00049F4662321F081E080937E010895109201
:1006F0007E0108958A3069F4662331F081E08093A9
:100700007C0180937D01089510927C0110927D01FF
:1007100008958B3049F4662321F081E080936801CD
:1007200008951092680108958C3041F4662321F0F9
:1007300081E080936901089510926901089520E095
:1007400030E0F901EE59FE4F8081813011F4439A77
:1007500001C04398449A44982F5F3F4F243231059B
:1007600081F7459A4598089580E090E0FC01EE59A4
:10077000FE4F1082019684329105C1F7E0DF0895A3
:100780001F920F920FB60F9211240F900FBE0F9071
:100790001F9018951F920F920FB60F9211242F934E
:1007A0003F938F939F9320E23EE4C9010197F1F7B5
:1007B0001E9906C0C9010197F1F781E0809383017A
:1007C0009F918F913F912F910F900FBE0F901F908F
:1007D000189553985B9A54985C9A26982E9A569836
:1007E0005E9A55985D9A5098589A5198599AE8E6A9
:1007F000F0E0808185608083EBE6F0E080818064BA
:100800008083EDE6F0E080818B67808381E090E07B
:100810009093850180938401089583B78E7F83BF71
:1008200089E061E058DE81E090E09093850180935B
:100830008401E998E8E6F0E080818560808378941F
:10084000109286011092590182E08093140108955C
:10085000F894809168008A7F80936800E99A1092EA
:1008600085011092840180E0D3DD4B9BFECF83B7DE
:10087000856083BF83B7816083BF78948895CDDF1F
:1008800088E893E128EC30E0F9013197F1F701971E
:10089000D9F74B9B05C010928501109284010895F1
:1008A00081E0B6DD80E197E20197F1F781E090E029
:1008B000909385018093840183E080939C018093D1
:1008C0009D0188EC90E0EBD308951F920F920FB634
:1008D0000F9211242F933F934F935F936F937F93C6
:1008E0008F939F93AF93BF93EF93FF9380EA9FE023
:1008F0000197F1F789B18B778B3709F493C04B9946
:1009000007C080915901882319F481E08093820106
:100910004E9921C0109258011092570180915901AF
:10092000813009F07EC080911401813051F0823015
:1009300069F0882309F075C06091440183E041E3C8
:1009400027C06091440183E041E222C060914401EC
:1009500083E041E11DC04D9922C0109258011092D0
:10096000570180915901813009F05BC080911401D9
:10097000813051F0823071F0882309F052C06091CB
:10098000440183E042E304C06091440183E042E219
:10099000C5D547C06091440183E042E1F9CF489951
:1009A00014C0809159018130E1F5109258011092E4
:1009B000570180911401815080931401809114019A
:1009C00087FF2FC0109214012CC0499915C0809147
:1009D0005901813031F510925801109257018091E0
:1009E00014018F5F80931401809114018330CCF047
:1009F00082E08093140115C04C9913C080E29EE4FC
:100A00000197F1F780915901882359F4809186016B
:100A1000823024F4809186018F3F19F481E0809325
:100A200088018DDEFF91EF91BF91AF919F918F91E2
:100A30007F916F915F914F913F912F910F900FBEDA
:100A40000F901F90189584B5826084BD85B5856030
:100A500085BDEEE6F0E08081826080838FEF87BD08
:100A600008951F920F920FB60F9211242F933F9368
:100A70004F935F936F937F938F939F93AF93BF93A6
:100A8000CF93DF93EF93FF9380919B018823D9F05D
:100A9000809198019091990101969093990180938A
:100AA0009801209198013091990180919B0190E0EB
:100AB0008217930740F480E0D9D2109299011092E6
:100AC000980110929B0180919201873039F48091B6
:100AD00017018195809317011092920180919501E1
:100AE0008823F1F0809196018F5F80939601809129
:100AF0009601843169F4609197014091950184E0F9
:100B00000DD510929601809197018F5F8093970188
:100B100080919701843020F01092970110929501F6
:100B2000809188018823E9F04C9906C08091880162
:100B30008F5F8093880115C082E0809395011092A9
:100B400088018093860180E060E0C5DC81E060E0A0
:100B5000C2DC82E060E0BFDC83E060E0BCDC80E01F
:100B600085D280918201882331F14B9906C0809112
:100B700082018F5F809382011EC01092820180915A
:100B800059018823C1F4809186018F5F809386018B
:100B90008091860184301CF081E08093860180E0A2
:100BA00060E099DC81E060E096DC82E060E093DC6C
:100BB00083E060E090DC8091830118160CF046C061
:100BC00080917A00886080937A0080917A008068B2
:100BD00080937A0080917A00806480937A001E99D5
:100BE00006C0809183018F5F809383012FC0109294
:100BF0008301809159018130F9F4809144018F5F24
:100C00008093440110925801109257018091440141
:100C1000843010F01092440180915A018093410178
:100C200080915B018093420180915C01809343013C
:100C300081E08093E0010AC080917A00877F8093F1
:100C40007A0080917A008F7780937A008091880172
:100C50008E3129F41092880181E080939501809172
:100C600082018E3139F41092820110928501109226
:100C7000840106C081E090E0909385018093840117
:100C8000809183018E3109F054C0109283018091CC
:100C90005901882389F5109258011092570110923A
:100CA000440180915A018093410180915B018093BE
:100CB000420180915C018093430181E08093E001D7
:100CC0008093590182E080931401C0E0D0E0FE01DE
:100CD000EE0FFF1FEB5BFE4F118210828BE060E096
:100CE000FADB8CE060E0F7DB8C2F60E0F4DB219630
:100CF000C430D10561F71DC0109259011092E00176
:100D000080E060E0E8DB81E060E0E5DB82E060E07D
:100D1000E2DB83E060E0DFDB8AE060E0DCDB809147
:100D20007A00877F80937A0080917A008F77809312
:100D30007A0080918E0190918F010F97B9F4809184
:100D40005901813079F480911501909116019095A7
:100D500081959F4F909316018093150181E060E08B
:100D600040E0DCD310928F0110928E0180915701E8
:100D700090915801845F914009F58091590181302B
:100D8000E9F4109259011092E00180E060E0A3DBE9
:100D900081E060E0A0DB82E060E09DDB83E060E07A
:100DA0009ADB8AE060E097DB80917A00877F80930E
:100DB0007A0080917A008F7780937A0080919001F9
:100DC000873009F05FC08091860182300CF458C0F2
:100DD00080915901882309F053C0C0E0D0E0FE01A2
:100DE000EE0FFF1FEB5BFE4F80819181C29758F0A1
:100DF000118210828BE060E06EDB8CE060E06BDBE8
:100E00008C2F60E068DBFE01EE0FFF1FEB5BFE4FF7
:100E100080819181892B79F120911701FE01EF5F8B
:100E2000FE4F808190E0332727FD3095829FB001EF
:100E3000839F700D929F700D11248C2F4CDBFE014F
:100E4000E35BFE4F8081813031F48BE061E043DB76
:100E50008CE060E005C08BE060E03DDB8CE061E0B1
:100E60003ADBFE01EE0FFF1FEB5BFE4F80819181AD
:100E70000196918380832196C430D10509F0AFCFCC
:100E8000109290018091890190918A010F97E1F46D
:100E9000809186018130A1F480915901882381F4E9
:100EA00080919101843010F0109291016091910134
:100EB00082E040E033D3809191018F5F8093910174
:100EC00010928A011092890120E030E0F901EF5A76
:100ED000FE4F8081882319F080818F5F8083F90124
:100EE000EF5AFE4F8081803508F010822F5F3F4F10
:100EF0002430310559F780915501909156010196A2
:100F00009093560180935501809190018F5F80935B
:100F1000900115DC8091890190918A01019690934E
:100F20008A018093890180918C0190918D010196B5
:100F300090938D0180938C0180918E0190918F010F
:100F4000019690938F0180938E01809192018F5F23
:100F5000809392018091570190915801019690934E
:100F600058018093570180919301909194010196CB
:100F70009093940180939301FF91EF91DF91CF9132
:100F8000BF91AF919F918F917F916F915F914F91A1
:100F90003F912F910F900FBE0F901F9018951F92A9
:100FA0000F920FB60F9211242F933F934F935F939D
:100FB0006F937F938F939F93AF93BF93DF93CF9361
:100FC00000D0CDB7DEB780912501869590E09A8359
:100FD000898329813A818091260190E0AC01429F6A
:100FE000C001439F900D529F900D11249A838983D5
:100FF00089819A8164E670E036D47A83698320918E
:10100000B30089819A812091B30089819A81280F48
:101010002093B4008091B300209125019091B300FA
:1010200080912501890F8093B3005F9A0F900F90F4
:10103000CF91DF91BF91AF919F918F917F916F91F0
:101040005F914F913F912F910F900FBE0F901F9086
:101050001895579AE0E7F0E080818660808381E010
:101060008093B30082E08093B4000895181634F49E
:101070008091B10084608093B1000895882371F459
:101080008091B1008B7F8093B1005F981092B20085
:1010900081E08093B30082E08093B4000895CF9301
:1010A000DF93EC0180912401823030F080919E0129
:1010B00090919F01892B21F480919D018F3F01F533
:1010C0008091A0018823E1F41FC0E0919C01F0E031
:1010D000E35EFE4F808180932501E0919D01FF2713
:1010E000E7FDF095E85EFE4F80818093260181E068
:1010F000BDDFCE0162E370E0CAD360939B0104C000
:1011000080919B01882309F3DF91CF910895CF93BC
:10111000DF93EC0180912401823030F080919E01B8
:1011200090919F01892B21F480919D018F3F51F572
:101130008091A001882331F529C080919C018823EA
:1011400031F4E0919C01F0E0E25EFE4F05C0E091D9
:101150009C01F0E0E45EFE4F808180932501E091E8
:101160009D01FF27E7FDF095E85EFE4F80818093AB
:10117000260181E07BDFCE0162E370E088D36093DB
:101180009B0104C080919B018823B9F2DF91CF912C
:101190000895CF93DF93EC0180912401823030F0E9
:1011A00080919E0190919F01892B21F480919D0156
:1011B0008F3F71F48091A001882351F40DC081E02C
:1011C00055DFCE0162E370E062D360939B0104C0FF
:1011D00080919B01882399F3DF91CF9108958093AB
:1011E00026016093250108951F920F920FB60F926A
:1011F00011245F980F900FBE0F901F9018952A989A
:101200009EBD0DB407FEFDCF8EBD0DB407FEFDCF14
:101210002A9A08952A989EBD0DB407FEFDCF3EB5CB
:101220008EBD0DB407FEFDCF2EB5932F80E02A9A18
:1012300030E0282B392BC90108952A981EBC0DB423
:1012400007FEFDCF2A9A8EB508952A988EBD0DB45B
:1012500007FEFDCF6EBD0DB407FEFDCF2A9A08959F
:101260002A9880EB8EBD0DB407FEFDCF1EBC0DB4D9
:1012700007FEFDCF2A9A8EB50895239A259A229AC1
:10128000249881E58CBD089583EA96ECB8DF089533
:10129000906AB5DF08951F93D0DF87FF7CC08091EF
:1012A000CC018130E9F0813020F0823009F06BC050
:1012B00052C011E01093CF01D3DF982F8093D60155
:1012C0009D5F9093CE019350E091D001F091D101B8
:1012D0008081882309F057C01093CC0191835BC0B3
:1012E0009091CF018091CE019817D8F4B9DF9091F9
:1012F000D60198279093D6012091CF012D3038F454
:10130000E091D001F091D101E20FF11D8183809134
:10131000CF01823011F49F3FB1F58F5F8093CF01F1
:101320003AC0E091D001F091D10182E080838091B8
:10133000D40190E0019681709070282F8093D401A1
:101340008EE0289F9001112420553E4F3093D1010B
:101350002093D00118C09091CF018091CE019817B1
:1013600050F4E92FF0E0EF55FE4F60819F5F9093BE
:10137000CF0188EB0FC01092CD0181E892E83FDFEA
:1013800088EB6AEA62DF1092CC018AEC61E85DDFEB
:101390008AEC63E85ADF1F9108958091CC0188237D
:1013A00069F580E090E036DF90FF04C088EC809320
:1013B0002701089580912701815080932701882378
:1013C000E9F481E0809327018091CD018130B1F46F
:1013D00081E092E814DF8091A3018A5F8093CE01BF
:1013E0001092CF0182E08093CC018AEA98EB07DF6C
:1013F0008AEA98EB04DF81E292E801DF0895982FF2
:101400008091CD01882311F083E008956093A301BA
:101410009093A401692760956093A50181E0809372
:10142000CD0180E80895E091D201F091D3011082BE
:101430008091D50190E0019681709070282F809363
:10144000D5018EE0289F9001112420553E4F309306
:10145000D3012093D20108952A9A229A0EDF87EEB3
:1014600090E8CDDE81E092E8CADE80E496EAC7DE4D
:1014700083EA96ECC4DE8CE294E9C1DE8BEA92EC5E
:10148000BEDE81E89AECBBDE87EF94ECB8DE80E745
:1014900098E9B5DE80E098ECB2DE80E090EEAFDE59
:1014A0008DE28093A10184ED8093A20180EB91E015
:1014B0009093D3018093D2019093D1018093D00176
:1014C00081E892E89CDEE9E6F0E080818860808334
:1014D00080E090E09FDEE19A81E89AEC90DE83E87C
:1014E0009AEC8DDE08950F931F93182F062F8B30E3
:1014F00010F082E010C08091CD01882311F083E0CC
:101500000AC026EA31E0C901BA01412F50E0D2D128
:10151000802F612F74DF1F910F910895282F823043
:1015200009F1833020F4813009F077C006C08330A0
:10153000A9F1843009F071C051C08FEF8093D701B9
:10154000809141018093D801809142018093D9011B
:10155000809143018093DA018CE08093DB0120933A
:10156000DC0136C08FEF8093D701862F90E0FC011D
:10157000EE0FFF1FE80FF91FEE5CFE4F8081809396
:10158000D80181818093D90182818093DA018DE035
:101590008093DB0181E08093DC011AC08FEF8093A0
:1015A000D701862F90E0FC01EE0FFF1FE80FF91F17
:1015B000EE5CFE4F80818093D80181818093D901B8
:1015C00082818093DA018AE08093DB014093DC0121
:1015D00086E060E047ED51E086DF08958FEF80936D
:1015E000D701862F90E0FC01EE0FFF1FE80FF91FD7
:1015F000EE5CFE4F80818093D80181818093D90178
:1016000082818093DA018BE08093DB014093DC01DF
:1016100086E060E047ED51E066DF0895CF93DF9309
:10162000EC0188818F3F09F01BC18C81853008F067
:1016300017C1843009F056C08091E001813009F073
:1016400051C01092E00180915901813021F4109233
:10165000580110925701909141018981891709F031
:1016600041C0909142018A818917E1F5909143012F
:101670008B818917B9F5609128018CE02CD7809176
:101680002801819580932801E0914401F0E08D814B
:10169000EF5FFE4F80838091440190E020914101F3
:1016A000FC01EE0FFF1FE80FF91FEE5CFE4F2083D9
:1016B0008091440190E020914201FC01EE0FFF1F58
:1016C000E80FF91FEE5CFE4F21838091440190E00A
:1016D00020914301FC01EE0FFF1FE80FF91FEE5CA4
:1016E000FE4F22831092DF011092DE0134C0809100
:1016F000DE019091DF01FC01EE0FFF1FE80FF91FE3
:10170000EE5CFE4F90818981891709F09FC080911E
:10171000DE019091DF01FC01EE0FFF1FE80FF91FC2
:10172000EE5CFE4F91818A81891709F08FC080910C
:10173000DE019091DF01FC01EE0FFF1FE80FF91FA2
:10174000EE5CFE4F92818B81891709F07FC081E0AA
:101750008093DD0106C08091DE019091DF01049746
:1017600034F28091DD01882309F46DC02C81223090
:1017700009F452C0233021F0213009F064C011C0B7
:10178000E091DE01F091DF018D81EF5FFE4F8083FC
:10179000E091DE01F091DF01EF5AFE4F81E080839E
:1017A00052C0E091DE01F091DF01EE0FFF1FEB5B15
:1017B000FE4F81E090E091838083E091DE01F09123
:1017C000DF018D81E35BFE4F8083E091DE01F091CC
:1017D000DF01E35BFE4F8081837080838D8190E029
:1017E00095958795959587958D8380939D0180919B
:1017F0009D01877080939D0180919D018150809310
:101800009D018D8190E053E0959587955A95E1F77C
:101810008D8380939C0117C08D81813021F48FEFDF
:101820008093860110C02093860180E060E053D64B
:1018300081E060E050D682E060E04DD683E060E079
:101840004AD680E013DC1092DD010AC08091DE01EF
:101850009091DF0101969093DF018093DE017BCFB1
:10186000DF91CF910895AA1BBB1B51E107C0AA1FAE
:10187000BB1FA617B70710F0A61BB70B881F991F31
:101880005A95A9F780959095BC01CD01089597FBD5
:10189000092E07260AD077FD04D0E5DF06D0002008
:1018A0001AF4709561957F4F0895F6F7909581959C
:1018B0009F4F0895FB01DC0102C001900D92415041
:0A18C0005040D8F70895F894FFCFC8
:1018CA00FF070707070106640C0F12150D10131600
:1018DA000E11141702FFFFFF0F1E3C505A5A6E8C4E
:0A18EA00A0B4C8FA01645A10FF0010
:00000001FF
