:1000000021C03BC0E7C37CC338C023C436C003C78C
:1000100008C833C032C031C030C02FC0D1C42DC0D9
:100020002CC02BC02AC029C028C031C026C025C082
:1000300024C023C022C22EC243C258C274C290C27E
:10004000A5C2B9C211241FBECFEFD4E0DEBFCDBF21
:1000500011E0A0E0B1E0E4E3F6E102C005900D920A
:10006000AA32B107D9F712E0AAE2B1E001C01D92AD
:10007000AE30B107E1F775D0DBCAC2CFEAE7F0E0F6
:1000800080818660808380818062808308951F9252
:100090000F920FB60F9211242F933F934F938F938C
:1000A0009F93EF93FF93E0912E0120917800409170
:1000B0007900942F80E030E0822B932B90932D01D8
:1000C00080932C0180912C0190912D018170907072
:1000D00090932D0180932C0180912F0190913001FC
:1000E000880F991F9093300180932F0120912F0149
:1000F0003091300180912C0190912D01822B932B16
:100100009093300180932F0180912E01877087306A
:1001100089F480912F0190913001892B59F08091C1
:100120002F0190913001E695E695E695F0E0EA5AC8
:10013000FE4F808380912E018F5F80932E018091EE
:100140002E01883110F010922E01FF91EF919F91B6
:100150008F914F913F912F910F900FBE0F901F9055
:100160001895CF93DF9380917A00866080937A0010
:1001700080917A00806280937A0027D1E0D212D4F5
:1001800088D8A3D67894FFD214D381E001D180918E
:100190007C0190917D01892B11F40BD314C0E09167
:1001A000FF01F09100028081823069F49F012C5F91
:1001B0003F4F30932B0120932A018181882311F036
:1001C000C90127D94DD880915501813009F09DC0D2
:1001D00080911401813051F0823089F08823C1F47C
:1001E00084E061E038D185E060E005C084E060E053
:1001F00032D185E061E02FD186E060E008C084E084
:1002000060E029D185E060E026D186E061E023D17D
:10021000809140018130F9F0813030F08230A9F1D5
:10022000833009F06CC04EC0209115013091160149
:10023000E0914001F0E0EF5FFE4F808190E0829F0F
:10024000B001839F700D929F700D112480E003D147
:1002500081E060E016C080E060E0FDD020911501F3
:1002600030911601E0914001F0E0EF5FFE4F808198
:1002700090E0829FB001839F700D929F700D1124BA
:1002800081E0E9D082E060E019C080E060E0E3D086
:1002900081E060E0E0D02091150130911601E091FD
:1002A0004001F0E0EF5FFE4F808190E0829FB0015F
:1002B000839F700D929F700D112482E0CCD083E05B
:1002C00060E01CC080E060E0C6D081E060E0C3D0A8
:1002D00082E060E0C0D02091150130911601E091DC
:1002E0004001F0E0EF5FFE4F808190E0829FB0011F
:1002F000839F700D929F700D112483E0ACD06091AC
:100300001501709116018AE03DC084E060E0A3D041
:1003100085E060E0A0D086E060E09DD080917E0125
:10032000813021F58BE060E096D08CE060E093D0E6
:1003300089E061E090D0C0E0D0E0FE01E35BFE4FD9
:100340008081882359F080911701FE01EF5FFE4FF5
:100350006081689F602D11248C2F02C08C2F60E07B
:100360007AD02196C430D10541F703C089E060E01E
:1003700072D080917E01823019F487E061E002C082
:1003800087E060E068D0F894A3D624D77894FDCEB7
:10039000882399F0419A80E197E20197F1F78091E3
:1003A0000701853608F084E6809307012091070154
:1003B0008FEF90E0821B910903C041988FEF90E08E
:1003C0009093890080938800089580E0E1DFA0E0A9
:1003D000B0E0FD01E65AFE4F10821196A432B1053D
:1003E000C1F73B9A8C9182608C933C9A3D9A399AE2
:1003F00081E0CEDF809180008968809380008091C9
:10040000810083608093810008959091060181E1CD
:10041000989F902D1124953608F094E6909307014B
:10042000209107018FEF90E0821B91099093890042
:10043000809388000895853608F084E6809307014C
:10044000209107018FEF90E0821B91099093890022
:1004500080938800089567FD60E0843008F0C8C08C
:10046000E62FFF27E7FDF095E830F10508F026C1FB
:10047000E65EFF4F282F30E00994285F3E4FF901D8
:100480008081AFE1B0E0FD01E81BF109E65AFE4FC3
:1004900010820DC0285F3E4FF9018081AFE1B0E0CE
:1004A000FD01E81BF109E65AFE4F81E08083F90166
:1004B0008481FD01E81BF109E65AFE4F108248C015
:1004C000285F3E4FF9018081AFE1B0E0FD01E81BFC
:1004D000F109E65AFE4F1082F9018481FD01E81B03
:1004E000F109E65AFE4F81E0808332C0285F3E4F1B
:1004F000F9018081AFE1B0E0FD01E81BF109E65AA6
:10050000FE4F1082F9018481FD01E81BF109E65AD2
:10051000FE4F1082F9018085A81BB109A65ABE4F73
:1005200081E08C930895285F3E4FF9018081AFE10F
:10053000B0E0FD01E81BF109E65AFE4F91E090831F
:10054000F9018481FD01E81BF109E65AFE4F908311
:10055000F9018085A81BB109A65ABE4F1C920895C7
:10056000285F3E4FF9018081AFE1B0E0FD01E81B5B
:10057000F109E65AFE4F91E09083F9018481FD0173
:10058000E81BF109E65AFE4F10822AC0285F3E4F51
:10059000F9018081AFE1B0E0FD01E81BF109E65A05
:1005A000FE4F1082F9018481FD01E81BF109E65A32
:1005B000FE4F91E014C0285F3E4FF9018081AFE10A
:1005C000B0E0FD01E81BF109E65AFE4F91E090838F
:1005D000F9018481FD01E81BF109E65AFE4F908381
:1005E000F9018085A81BB109A65ABE4F9C930895B6
:1005F000843049F4662321F081E080936F010895EF
:1006000010926F010895853049F4662321F081E04E
:10061000809370010895109270010895863049F416
:10062000662321F081E08093710108951092710199
:100630000895873049F4662321F081E080937801A2
:100640000895109278010895883049F4662321F0C6
:1006500081E08093770108951092770108958930A1
:1006600049F4662321F081E0809376010895109289
:10067000760108958A3069F4662331F081E0809331
:1006800074018093750108951092740110927501A0
:1006900008958B3049F4662321F081E08093600156
:1006A00008951092600108958C3041F4662321F082
:1006B00081E080936101089510926101089520E026
:1006C00030E0F901E65AFE4F8081813011F4439AFF
:1006D00001C04398449A44982F5F3F4F243231051C
:1006E00081F7459A4598089580E090E0FC01E65A2C
:1006F000FE4F1082019684329105C1F7E0DF089524
:100700001F920F920FB60F9211242F933F938F9346
:100710009F9320E23EE4C9010197F1F71E9906C0BC
:10072000C9010197F1F781E080937B019F918F913F
:100730003F912F910F900FBE0F901F9018955398D7
:100740005B9A54985C9A26982E9A56985E9A559879
:100750005D9A5098589A5198599AE8E6F0E080814D
:1007600085608083EBE6F0E0808180648083EDE645
:10077000F0E080818B67808381E090E090937D0141
:1007800080937C01089581E090E090937D018093B7
:100790007C0113BEE998E8E6F0E080818560808303
:1007A000789410927E011092550182E0809314019A
:1007B0000895E8E6F0E080818A7F8083E99A1092CC
:1007C0007D0110927C0180E0E3DD83B7856083BF0B
:1007D000889508951F920F920FB60F9211242F93B0
:1007E0003F934F935F936F937F938F939F93AF93B9
:1007F000BF93EF93FF93C7DF88EE93E028EC30E0E0
:10080000F9013197F1F70197D9F74B9B05C0109289
:100810007D0110927C010CC081E0BADD80E197E29D
:100820000197F1F781E090E090937D0180937C0146
:10083000FF91EF91BF91AF919F918F917F916F91B8
:100840005F914F913F912F910F900FBE0F901F908E
:1008500018951F920F920FB60F9211242F933F936A
:100860004F935F936F937F938F939F93AF93BF93B8
:10087000EF93FF9380EA9FE00197F1F789B18B77BF
:100880008B3709F47EC04B9907C0809155018823AE
:1008900019F481E080937A014E9921C0109254019D
:1008A0001092530180915501813009F069C0809107
:1008B0001401813051F0823069F0882309F060C062
:1008C0006091400183E041E326C06091400183E0F4
:1008D00041E221C06091400183E041E11CC04D999B
:1008E00021C0109254011092530180915501813022
:1008F00009F046C080911401813049F0823069F0DE
:100900008823F1F56091400183E042E304C06091E7
:10091000400183E042E21FD533C06091400183E093
:1009200042E1F9CF489914C080915501813041F5D9
:1009300010925401109253018091140181508093C0
:1009400014018091140187FF1BC01092140118C07C
:10095000499915C080915501813091F4109254014C
:1009600010925301809114018F5F80931401809144
:10097000140183302CF082E08093140101C089B10E
:100980009EDEFF91EF91BF91AF919F918F917F91EB
:100990006F915F914F913F912F910F900FBE0F90EC
:1009A0001F90189584B5826084BD85B5856085BD2E
:1009B000EEE6F0E08081826080838FEF87BD08954E
:1009C0001F920F920FB60F9211242F933F934F93C4
:1009D0005F936F937F938F939F93AF93BF93CF93C7
:1009E000DF93EF93FF9380918901873039F48091F1
:1009F00017018195809317011092890180917A01E6
:100A0000882331F14B9906C080917A018F5F8093E2
:100A10007A011EC010927A01809155018823C1F499
:100A200080917E018F5F80937E0180917E01843072
:100A30001CF081E080937E0180E060E00CDD81E0CD
:100A400060E009DD82E060E006DD83E060E003DD78
:100A500080917B0118160CF046C080917A00886066
:100A600080937A0080917A00806880937A008091E8
:100A70007A00806480937A001E9906C080917B0181
:100A80008F5F80937B012FC010927B018091550175
:100A90008130F9F4809140018F5F80934001109282
:100AA00054011092530180914001843010F0109253
:100AB00040018091560180933D01809157018093C0
:100AC0003E018091580180933F0181E080930D02A7
:100AD0000AC080917A00877F80937A0080917A00A3
:100AE0008F7780937A0080917A018E3139F4109259
:100AF0007A0110927D0110927C0106C081E090E0A5
:100B000090937D0180937C0180917B018E3109F06F
:100B100054C010927B0180915501882389F5109271
:100B2000540110925301109240018091560180931C
:100B30003D018091570180933E018091580180933F
:100B40003F0181E080930D028093550182E0809304
:100B50001401C0E0D0E0FE01EE0FFF1FEF5BFE4F7F
:100B6000118210828BE060E076DC8CE060E073DC68
:100B70008C2F60E070DC2196C430D10561F71DC078
:100B80001092550110920D0280E060E064DC81E07B
:100B900060E061DC82E060E05EDC83E060E05BDC22
:100BA0008AE060E058DC80917A00877F80937A0049
:100BB00080917A008F7780937A008091850190915F
:100BC00086010F97B9F480915501813079F48091B5
:100BD000150190911601909581959F4F9093160164
:100BE0008093150181E060E040E0B5D3109286016A
:100BF000109285018091530190915401845F91403E
:100C000009F5809155018130E9F410925501109257
:100C10000D0280E060E01FDC81E060E01CDC82E02F
:100C200060E019DC83E060E016DC8AE060E013DC61
:100C300080917A00877F80937A0080917A008F7705
:100C400080937A0080918701873009F057C08091A6
:100C50007E0182300CF450C080915501882309F048
:100C60004BC0C0E0D0E0FE01EE0FFF1FEF5BFE4F78
:100C700080819181C29758F0118210828BE060E0F0
:100C8000EADB8CE060E0E7DB8C2F60E0E4DBFE0178
:100C9000EE0FFF1FEF5BFE4F80819181892B39F1B1
:100CA00080911701FE01EF5FFE4F6081689F602D0C
:100CB00011248C2FD0DBFE01E75BFE4F8081813059
:100CC00031F48BE061E0C7DB8CE060E005C08BE0D5
:100CD00060E0C1DB8CE061E0BEDBFE01EE0FFF1FD8
:100CE000EF5BFE4F808191810196918380832196F5
:100CF000C430D10509F0B7CF1092870180918001EF
:100D0000909181010F97E1F480917E018130A1F4EF
:100D100080915501882381F480918801843010F0FE
:100D2000109288016091880182E040E014D38091A4
:100D300088018F5F80938801109281011092800159
:100D400020E030E0F901E35BFE4F8081882319F059
:100D500080818F5F8083F901E35BFE4F8081803566
:100D600008F010822F5F3F4F2430310559F78091F2
:100D7000510190915201019690935201809351013B
:100D8000809187018F5F8093870199DC809180013A
:100D900090918101019690938101809380018091CF
:100DA0008301909184010196909384018093830143
:100DB00080918501909186010196909386018093A0
:100DC0008501809189018F5F809389018091530112
:100DD0009091540101969093540180935301809116
:100DE0008A0190918B01019690938B0180938A01E7
:100DF000FF91EF91DF91CF91BF91AF919F918F9133
:100E00007F916F915F914F913F912F910F900FBE06
:100E10000F901F9018951F920F920FB60F921124EA
:100E20002F933F934F935F936F937F938F939F93F2
:100E3000AF93BF93DF93CF9300D0CDB7DEB7809150
:100E40002501869590E09A83898329813A81809152
:100E5000260190E0AC01429FC001439F900D529F3C
:100E6000900D11249A83898389819A8164E670E0C8
:100E7000AFD37A8369832091B30089819A812091CD
:100E8000B30089819A81280F2093B4008091B30028
:100E9000209125019091B30080912501890F8093C5
:100EA000B3005F9A0F900F90CF91DF91BF91AF91F8
:100EB0009F918F917F916F915F914F913F912F9172
:100EC0000F900FBE0F901F901895579AE0E7F0E033
:100ED00080818660808381E08093B30082E080938C
:100EE000B4000895282F18161CF580918F01909159
:100EF0009001892B21F480918E0187FF04C080919D
:100F000091018823A9F08091B10084608093B100A1
:100F100008958091B1008B7F8093B1005F9810920B
:100F2000B20081E08093B30082E08093B400089522
:100F3000222379F30895CF93DF93EC01809124016C
:100F4000823070F080918F0190919001892B21F473
:100F500080918E0187FF1EC0809191018823D1F47A
:100F6000E0918D01F0E0E35EFE4F808180932501EA
:100F7000E0918E01FF27E7FDF095E85EFE4F80814E
:100F80008093260181E0AEDFCE0162E370E034D3CE
:100F900060938C01DF91CF910895CF93DF93EC01A3
:100FA00080912401823080F180918F019091900195
:100FB000892B21F480918E0187FF2BC080919101B4
:100FC000882339F521C0E0918D01F0E0E25EFE4F0B
:100FD00005C0E0918D01F0E0E45EFE4F80818093DA
:100FE0002501E0918E01FF27E7FDF095E85EFE4FB9
:100FF00080818093260181E075DFCE0162E370E09D
:10100000FBD260938C0105C080918D018823D9F2B9
:10101000E0CFDF91CF910895809326016093250161
:1010200008951F920F920FB60F9211245F980F90A0
:101030000FBE0F901F9018952A989EBD0DB407FE05
:10104000FDCF8EBD0DB407FEFDCF2A9A08952A98D4
:101050009EBD0DB407FEFDCF3EB58EBD0DB407FE9F
:10106000FDCF2EB5932F80E02A9A30E0282B392B24
:10107000C90108952A981EBC0DB407FEFDCF2A9A17
:101080008EB508952A988EBD0DB407FEFDCF6EBDB6
:101090000DB407FEFDCF2A9A08952A9880EB8EBDE5
:1010A0000DB407FEFDCF1EBC0DB407FEFDCF2A9A7E
:1010B0008EB50895239A259A229A249881E58CBDAD
:1010C000089583EA96ECB8DF0895906AB5DF089535
:1010D0001F93D0DF87FF7CC08091F9018130E9F058
:1010E000813020F0823009F06BC052C011E01093C3
:1010F000FC01D3DF982F809303029D5F9093FB0147
:101100009350E091FD01F091FE018081882309F068
:1011100057C01093F90191835BC09091FC018091BD
:10112000FB019817D8F4B9DF9091030298279093A8
:1011300003022091FC01213238F4E091FD01F0918D
:10114000FE01E20FF11D81838091FC01823011F4D8
:101150009F3FB1F58F5F8093FC013AC0E091FD01A4
:10116000F091FE0182E080838091010290E001967F
:1011700081709070282F8093010282E2289F900155
:1011800011242B543E4F3093FE012093FD0118C0D3
:101190009091FC018091FB01981750F4E92FF0E049
:1011A000EE56FE4F60819F5F9093FC0188EB0FC06D
:1011B0001092FA0181E892E83FDF88EB6AEA62DF89
:1011C0001092F9018AEC61E85DDF8AEC63E85ADF8E
:1011D0001F9108958091F901882369F580E090E0DE
:1011E00036DF90FF04C088EC80932701089580913A
:1011F00027018150809327018823E9F481E08093BF
:1012000027018091FA018130B1F481E092E814DF86
:10121000809194018A5F8093FB011092FC0182E02F
:101220008093F9018AEA98EB07DF8AEA98EB04DFFA
:1012300081E292E801DF0895982F8091FA018823D6
:1012400011F083E0089560939401909395016927CC
:1012500060956093960181E08093FA0180E808959B
:10126000E091FF01F091000210828091020290E073
:10127000019681709070282F8093020282E2289F4D
:10128000900111242B543E4F309300022093FF0114
:1012900008952A9A229A0EDF87EE90E8CDDE81E04B
:1012A00092E8CADE80E496EAC7DE83EA96ECC4DE02
:1012B0008CE294E9C1DE8BEA92ECBEDE81E89AEC26
:1012C000BBDE87EF94ECB8DE80E798E9B5DE80E01E
:1012D00098ECB2DE80E090EEAFDE8DE2809392017A
:1012E00084ED8093930185EB91E0909300028093CD
:1012F000FF019093FE018093FD0181E892E89CDE5E
:10130000E9E6F0E080818860808380E090E09FDE05
:10131000E19A81E89AEC90DE83E89AEC8DDE0895FC
:101320000F931F93182F062F8F3110F082E010C0FB
:101330008091FA01882311F083E00AC027E931E0A7
:10134000C901BA01412F50E06AD1802F612F74DFAB
:101350001F910F910895282F8230D1F08330C9F169
:10136000813009F055C08FEF8093040280913D01D8
:101370008093050280913E018093060280913F0197
:10138000809307028CE080930802209309021BC01F
:101390008FEF80930402862F90E0FC01EE0FFF1F79
:1013A000E80FF91FEF5CFE4F808180930502818179
:1013B000809306028281809307028DE08093080269
:1013C00081E08093090286E060E044E052E0A8DF1B
:1013D00008958FEF80930402862F90E0FC01EE0FBA
:1013E000FF1FE80FF91FEF5CFE4F8081809305021D
:1013F0008181809306028281809307028AE0809334
:1014000008024093090286E060E044E052E088DF91
:101410000895CF93DF93EC0188818F3F09F0D5C009
:101420008C81853008F0D1C0843009F056C080919D
:101430000D02813009F051C010920D0280915501CA
:10144000813021F4109254011092530190913D018A
:101450008981891709F041C090913E018A818917DD
:10146000E1F590913F018B818917B9F560912801D1
:101470008CE0F1D780912801819580932801E0913B
:101480004001F0E08D81EF5FFE4F8083809140014D
:1014900090E020913D01FC01EE0FFF1FE80FF91FC6
:1014A000EF5CFE4F20838091400190E020913E014F
:1014B000FC01EE0FFF1FE80FF91FEF5CFE4F2183C9
:1014C0008091400190E020913F01FC01EE0FFF1F51
:1014D000E80FF91FEF5CFE4F228310920C0210926E
:1014E0000B0233C080910B0290910C02FC01EE0FB5
:1014F000FF1FE80FF91FEF5CFE4F9081898189176C
:1015000009F059C080910B0290910C02FC01EE0F82
:10151000FF1FE80FF91FEF5CFE4F91818A81891749
:1015200009F049C080910B0290910C02FC01EE0F72
:10153000FF1FE80FF91FEF5CFE4F92818B81891727
:10154000D1F581E080930A0206C080910B02909150
:101550000C0204973CF280910A02882349F18C81A5
:10156000813091F0833021F5E0910B02F0910C0273
:101570008D81EF5FFE4F8083E0910B02F0910C02B2
:10158000E35BFE4F81E013C0E0910B02F0910C028F
:10159000EE0FFF1FEF5BFE4F81E090E091838083B1
:1015A000E0910B02F0910C028D81E75BFE4F80838E
:1015B00010920A020AC080910B0290910C020196CF
:1015C00090930C0280930B02C0CFDF91CF910895CE
:1015D000AA1BBB1B51E107C0AA1FBB1FA617B70759
:1015E00010F0A61BB70B881F991F5A95A9F7809575
:1015F0009095BC01CD01089597FB092E07260AD0CE
:1016000077FD04D0E5DF06D000201AF470956195CF
:101610007F4F0895F6F7909581959F4F0895FB01B0
:10162000DC0102C001900D9241505040D8F708955E
:04163000F894FFCF5C
:10163400FF070707070106640C0F12150D10131698
:101644000E11141702FFFFFF0F1E3C505A646E78F0
:0A1654008C96A0B401645A10FF0048
:00000001FF
