:1000000021C03BC08EC397C338C0B2C436C0BEC87F
:10001000F9C933C032C031C030C02FC090C52DC027
:100020002CC02BC02AC029C028C031C026C025C082
:1000300024C023C033C23FC254C269C285C2A1C218
:10004000B6C2CAC211241FBECFEFD4E0DEBFCDBFFF
:1000500011E0A0E0B1E0ECEFFAE102C005900D92F2
:10006000AA32B107D9F711E0AAE2B1E001C01D92AE
:10007000A03EB107E1F775D03FCDC2CFEAE7F0E08F
:1000800080818660808380818062808308951F9252
:100090000F920FB60F9211242F933F934F938F938C
:1000A0009F93EF93FF93E0912E0120917800409170
:1000B0007900942F80E030E0822B932B90932D01D8
:1000C00080932C0180912C0190912D018170907072
:1000D00090932D0180932C0180912F0190913001FC
:1000E000880F991F9093300180932F0120912F0149
:1000F0003091300180912C0190912D01822B932B16
:100100009093300180932F0180912E01877087306A
:1001100089F480912F0190913001892B59F08091C1
:100120002F0190913001E695E695E695F0E0E95AC9
:10013000FE4F808380912E018F5F80932E018091EE
:100140002E01883110F010922E01FF91EF919F91B6
:100150008F914F913F912F910F900FBE0F901F9055
:100160001895CF93DF9380917A00866080937A0010
:1001700080917A00806280937A0038D1FBD2D1D40A
:1001800072DA5ED86AD8789419D374D381E011D129
:100190008091820190918301892BB9F3E091D10183
:1001A000F091D2018081823069F49F012C5F3F4F32
:1001B00030932B0120932A018181882311F0C901FA
:1001C00034DB38DA809184018F3F61F5809117012B
:1001D0008F3F89F480E061E04FD181E061E04CD154
:1001E00082E061E049D183E061E046D18AE562E8DE
:1001F00004D981E03FD880911701813009F0D4C043
:1002000080E062E039D181E062E036D182E062E0F4
:1002100033D183E062E030D18AE562E8EED880E055
:1002200029D8C2C080915601813009F06CC08091FC
:100230001401813051F0823089F08823C1F484E0C8
:1002400061E01AD185E060E005C084E060E014D18F
:1002500085E061E011D186E060E008C084E060E004
:100260000BD185E060E008D186E061E005D18091A6
:100270004101813091F0813028F08230E1F083300B
:10028000E1F52AC0E0914101F0E0EF5FFE4F6081AF
:1002900080E0F2D081E060E00AC080E060E0ECD075
:1002A000E0914101F0E0EF5FFE4F608181E0E4D03A
:1002B00082E060E00DC080E060E0DED081E060E0E0
:1002C000DBD0E0914101F0E0EF5FFE4F608182E022
:1002D000D3D083E060E010C080E060E0CDD081E06A
:1002E00060E0CAD082E060E0C7D0E0914101F0E078
:1002F000EF5FFE4F608183E0BFD060911501709188
:1003000016018AE050C084E060E0B6D085E060E08D
:10031000B3D086E060E0B0D080918701813039F4BD
:1003200080939B0184E690E0C6D71092870180916C
:100330008401813061F58BE060E09ED08CE060E06C
:100340009BD089E061E098D0C0E0D0E0FE01E25BA4
:10035000FE4F8081882399F020911701FE01EF5F05
:10036000FE4F808190E0332727FD3095829FB001BA
:10037000839F700D929F700D11248C2F02C08C2FC3
:1003800060E07AD02196C430D10501F703C089E03E
:1003900060E072D080918401823019F487E061E0DE
:1003A00002C087E060E068D0F8947CD8FDD87894EB
:1003B000EDCE882399F0419A80E197E20197F1F719
:1003C00080910701853608F084E68093070120912B
:1003D00007018FEF90E0821B910903C041988FEFD6
:1003E00090E09093890080938800089580E0E1DF99
:1003F000A0E0B0E0FD01E05AFE4F10821196A43259
:10040000B105C1F73B9A8C9182608C933C9A3D9ADE
:10041000399A81E0CEDF80918000896880938000E6
:1004200080918100836080938100089590910601FE
:1004300081E1989F902D1124953608F094E69093D1
:100440000701209107018FEF90E0821B91099093A3
:100450008900809388000895853608F084E68093AB
:100460000701209107018FEF90E0821B9109909383
:10047000890080938800089567FD60E0843008F06B
:10048000C8C0E62FFF27E7FDF095E830F10508F03A
:1004900026C1E65EFF4F282F30E00994285F3E4FCB
:1004A000F9018081AFE1B0E0FD01E81BF109E05AFC
:1004B000FE4F10820DC0285F3E4FF9018081AFE1F1
:1004C000B0E0FD01E81BF109E05AFE4F81E08083B6
:1004D000F9018481FD01E81BF109E05AFE4F108209
:1004E00048C0285F3E4FF9018081AFE1B0E0FD01D7
:1004F000E81BF109E05AFE4F1082F9018481FD01E9
:10050000E81BF109E05AFE4F81E0808332C0285F8A
:100510003E4FF9018081AFE1B0E0FD01E81BF10938
:10052000E05AFE4F1082F9018481FD01E81BF109B8
:10053000E05AFE4F1082F9018085A81BB109A05A2C
:10054000BE4F81E08C930895285F3E4FF901808172
:10055000AFE1B0E0FD01E81BF109E05AFE4F91E088
:100560009083F9018481FD01E81BF109E05AFE4FF7
:100570009083F9018085A81BB109A05ABE4F1C9237
:100580000895285F3E4FF9018081AFE1B0E0FD01A1
:10059000E81BF109E05AFE4F91E09083F901848154
:1005A000FD01E81BF109E05AFE4F10822AC0285FC6
:1005B0003E4FF9018081AFE1B0E0FD01E81BF10998
:1005C000E05AFE4F1082F9018481FD01E81BF10918
:1005D000E05AFE4F91E014C0285F3E4FF901808140
:1005E000AFE1B0E0FD01E81BF109E05AFE4F91E0F8
:1005F0009083F9018481FD01E81BF109E05AFE4F67
:100600009083F9018085A81BB109A05ABE4F9C9325
:100610000895843049F4662321F081E080937501C8
:100620000895109275010895853049F4662321F0EC
:1006300081E08093760108951092760108958630C6
:1006400049F4662321F081E08093770108951092A8
:1006500077010895873049F4662321F081E0809383
:100660007E01089510927E010895883049F4662332
:1006700021F081E080937D01089510927D0108951D
:10068000893049F4662321F081E080937C0108954C
:1006900010927C0108958A3069F4662331F081E07C
:1006A00080937A0180937B01089510927A011092D1
:1006B0007B0108958B3049F4662321F081E080931B
:1006C000660108951092660108958C3041F4662306
:1006D00021F081E0809367010895109267010895E9
:1006E00020E030E0F901E05AFE4F8081813011F4C2
:1006F000439A01C04398449A44982F5F3F4F243255
:10070000310581F7459A4598089580E090E0FC0115
:10071000E05AFE4F1082019684329105C1F7E0DF66
:1007200008951F920F920FB60F9211240F900FBED3
:100730000F901F9018951F920F920FB60F921124D1
:100740002F933F938F939F9320E23EE4C90101973B
:10075000F1F71E9906C0C9010197F1F781E0809376
:1007600081019F918F913F912F910F900FBE0F901C
:100770001F90189553985B9A54985C9A26982E9AD5
:1007800056985E9A55985D9A5098589A5198599AE9
:10079000E8E6F0E0808185608083EBE6F0E0808130
:1007A00080648083EDE6F0E080818B67808381E068
:1007B00090E09093830180938201089583B78E7FA8
:1007C00083BF89E061E058DE81E090E0909383018F
:1007D00080938201E998E8E6F0E08081856080837B
:1007E00080E090E073D980939C0188E090E06ED91E
:1007F0008093320180E190E069D98093330188E1F0
:1008000090E064D98093340180E290E05FD98093D6
:10081000350188E290E05AD98093360180E390E078
:1008200055D98093370188E390E050D980933801FF
:1008300080E490E04BD98093390188E490E046D978
:1008400080933A0180E590E041D980933B0188E5AF
:1008500090E03CD980933C0180E690E037D98093CA
:100860003D017894109284011092560182E08093A9
:100870001401089560919C0180E090E02FD960916F
:10088000320188E090E02AD96091330180E190E064
:1008900025D96091340188E190E020D9609135013B
:1008A00080E290E01BD96091360188E290E016D991
:1008B0006091370180E390E011D96091380188E3BD
:1008C00090E00CD96091390180E490E007D9609103
:1008D0003A0188E490E002D960913B0180E590E024
:1008E000FDD860913C0188E590E0F8D860913D0129
:1008F00080E690E0F3D8F894809168008A7F809336
:100900006800E99A109283011092820180E051DD23
:100910004B9BFECF83B7856083BF83B7816083BF66
:10092000789488954BDF88E893E128EC30E0F90172
:100930003197F1F70197D9F74B9B05C010928301CE
:1009400010928201089581E034DD80E197E2019701
:10095000F1F781E090E0909383018093820183E03E
:1009600080939B0180939C0188EC90E0A4D408952F
:100970001F920F920FB60F9211242F933F934F9314
:100980005F936F937F938F939F93AF93BF93EF93F7
:10099000FF9380EA9FE00197F1F789B18B778B375E
:1009A00009F4AEC04B9907C080915601882319F411
:1009B00081E0809380014E992CC04E9BFECF109217
:1009C000550110925401809156018130C1F48091FB
:1009D0001401813051F0823069F0882309F08FC012
:1009E0006091410183E041E337C06091410183E0C0
:1009F00041E232C06091410183E041E12DC080912C
:100A00009C0187FD04C080919C01815030C08FEF14
:100A10002EC04D9932C04D9BFECF109255011092C1
:100A20005401809156018130C9F4809114018130C4
:100A300051F0823069F0882309F061C06091410172
:100A400083E042E309C06091410183E042E204C0D7
:100A50006091410183E042E168D651C080919C01E0
:100A6000843024F480919C018F5F01C084E08093E6
:100A70009C0181E08093870142C0489914C0809115
:100A800056018130E1F51092550110925401809188
:100A900014018150809314018091140187FF2FC0AD
:100AA000109214012CC0499915C0809156018130D3
:100AB00031F51092550110925401809114018F5F0D
:100AC00080931401809114018330CCF082E08093F4
:100AD000140115C04C9913C080E29EE40197F1F710
:100AE00080915601882359F480918401823024F446
:100AF000809184018F3F19F481E080938601F0DDBD
:100B0000FF91EF91BF91AF919F918F917F916F91E5
:100B10005F914F913F912F910F900FBE0F901F90BB
:100B2000189584B5826084BD85B5856085BDEEE687
:100B3000F0E08081826080838FEF87BD08951F92EF
:100B40000F920FB60F9211242F933F934F935F9301
:100B50006F937F938F939F93AF93BF93CF93DF93C5
:100B6000EF93FF9380915E01882329F080915E01CD
:100B70008F5F80935E0180915E018A3011F480E086
:100B800061D380919A018823D9F080919701909147
:100B90009801019690939801809397012091970175
:100BA0003091980180919A0190E08217930740F468
:100BB00080E060D3109298011092970110929A01F0
:100BC00080919101873039F480911701819580934C
:100BD000170110929101809194018823F1F0809186
:100BE00095018F5F8093950180919501843169F41F
:100BF000609196014091940184E097D510929501FF
:100C0000809196018F5F8093960180919601843048
:100C100020F0109296011092940180918601882311
:100C2000E9F04C9906C0809186018F5F8093860120
:100C300015C082E080939401109286018093840114
:100C400080E060E019DC81E060E016DC82E060E0DA
:100C500013DC83E060E010DC80E00CD38091800145
:100C6000882331F14B9906C0809180018F5F80937A
:100C700080011EC010928001809156018823C1F42A
:100C8000809184018F5F80938401809184018430FE
:100C90001CF081E08093840180E060E0EDDB81E086
:100CA00060E0EADB82E060E0E7DB83E060E0E4DB79
:100CB0008091810118160CF046C080917A008860FE
:100CC00080937A0080917A00806880937A00809186
:100CD0007A00806480937A001E9906C08091810119
:100CE0008F5F809381012FC0109281018091560106
:100CF0008130F9F4809141018F5F8093410110921E
:100D000055011092540180914101843010F01092ED
:100D100041018091570180933E0180915801809359
:100D20003F01809159018093400181E08093DF0170
:100D30000AC080917A00877F80937A0080917A0040
:100D40008F7780937A00809186018E3129F41092FA
:100D5000860181E080939401809180018E3139F485
:100D600010928001109283011092820106C081E0EE
:100D700090E09093830180938201809181018E3174
:100D800009F090C01092810180915601882389F565
:100D90001092550110925401109241018091570117
:100DA00080933E018091580180933F0180915901C9
:100DB0008093400181E08093DF018093560182E0BF
:100DC00080931401C0E0D0E0FE01EE0FFF1FEE5B48
:100DD000FE4F118210828BE060E04EDB8CE060E021
:100DE0004BDB8C2F60E048DB2196C430D10561F7E6
:100DF00059C06091320188E090E070D66091330173
:100E000080E190E06BD66091340188E190E066D695
:100E10006091350180E290E061D66091360188E210
:100E200090E05CD66091370180E390E057D6609106
:100E3000380188E390E052D66091390180E490E077
:100E40004DD660913A0188E490E048D660913B012C
:100E500080E590E043D660913C0188E590E03ED685
:100E600060913D0180E690E039D6109256011092D3
:100E7000DF0180E060E000DB81E060E0FDDA82E03D
:100E800060E0FADA83E060E0F7DA8AE060E0F4DA62
:100E900080917A00877F80937A0080917A008F77A3
:100EA00080937A0080918D0190918E010F97B9F413
:100EB00080915601813079F480911501909116014D
:100EC000909581959F4F909316018093150181E035
:100ED00060E040E02AD410928E0110928D01809142
:100EE000540190915501845F914009F05EC080915A
:100EF0005601813009F059C0109256011092DF015D
:100F000080E060E0B9DA81E060E0B6DA82E060E0DB
:100F1000B3DA83E060E0B0DA8AE060E0ADDA8091D5
:100F20007A00877F80937A0080917A008F77809310
:100F30007A006091320188E090E0D0D56091330171
:100F400080E190E0CBD56091340188E190E0C6D596
:100F50006091350180E290E0C1D56091360188E270
:100F600090E0BCD56091370180E390E0B7D5609107
:100F7000380188E390E0B2D56091390180E490E0D7
:100F8000ADD560913A0188E490E0A8D560913B012D
:100F900080E590E0A3D560913C0188E590E09ED586
:100FA00060913D0180E690E099D580918F01873076
:100FB00009F05FC08091840182300CF458C08091A8
:100FC0005601882309F053C0C0E0D0E0FE01EE0FC7
:100FD000FF1FEE5BFE4F80819181C29758F0118216
:100FE00010828BE060E048DA8CE060E045DA8C2F1C
:100FF00060E042DAFE01EE0FFF1FEE5BFE4F8081E4
:101000009181892B79F120911701FE01EF5FFE4F4D
:10101000808190E0332727FD3095829FB001839F28
:10102000700D929F700D11248C2F26DAFE01E65B65
:10103000FE4F8081813031F48BE061E01DDA8CE07D
:1010400060E005C08BE060E017DA8CE061E014DA64
:10105000FE01EE0FFF1FEE5BFE4F80819181019636
:10106000918380832196C430D10509F0AFCF1092CF
:101070008F0180918801909189010F97E1F480910F
:1010800084018130A1F480915601882381F48091FC
:101090009001843010F0109290016091900182E0F4
:1010A00040E043D3809190018F5F80939001109234
:1010B00089011092880120E030E0F901E25BFE4FE7
:1010C0008081882319F080818F5F8083F901E25B42
:1010D000FE4F8081803508F010822F5F3F4F243013
:1010E000310559F7809152019091530101969093E7
:1010F00053018093520180918F018F5F80938F0104
:10110000EFDA80918801909189010196909389018D
:101110008093880180918B0190918C01019690932E
:101120008C0180938B0180918D0190918E010196AD
:1011300090938E0180938D01809191018F5F8093B8
:101140009101809154019091550101969093550120
:101150008093540180919201909193010196909314
:10116000930180939201FF91EF91DF91CF91BF9115
:10117000AF919F918F917F916F915F914F913F912F
:101180002F910F900FBE0F901F9018951F920F92E6
:101190000FB60F9211242F933F934F935F936F934A
:1011A0007F938F939F93AF93BF93DF93CF9300D0A1
:1011B000CDB7DEB780912501869590E09A8389832B
:1011C00029813A818091260190E0AC01429FC001C3
:1011D000439F900D529F900D11249A83898389819A
:1011E0009A8164E670E042D47A8369832091B300E7
:1011F00089819A812091B30089819A81280F209357
:10120000B4008091B300209125019091B3008091AA
:101210002501890F8093B3005F9A0F900F90CF91B3
:10122000DF91BF91AF919F918F917F916F915F916E
:101230004F913F912F910F900FBE0F901F901895D7
:10124000279A0895882329F02F9A81E080935E01E0
:1012500008952F9810925E010895579AE0E7F0E004
:1012600080818660808381E08093B30082E08093F8
:10127000B4000895181674F480919C01181614F0A7
:1012800081E001C080E0DEDF8091B1008460809366
:10129000B1000895882371F48091B1008B7F809311
:1012A000B1005F981092B20081E08093B30082E0B9
:1012B0008093B4000895CF93DF93EC0180912401D3
:1012C000823030F080919D0190919E01892B21F414
:1012D00080919C018F3F11F580919F018823F1F44B
:1012E00081E0B0DF1FC0E0919B01F0E0E35EFE4FC4
:1012F000808180932501E0919C01FF27E7FDF09517
:10130000E85EFE4F80818093260181E0B3DFCE014D
:1013100062E370E0BFD360939A0104C080919A01A8
:10132000882309F3DF91CF910895CF93DF93EC01E8
:1013300080912401823030F080919D0190919E0136
:10134000892B21F480919C018F3F51F580919F0161
:10135000882331F529C080919B01882331F4E091E5
:101360009B01F0E0E25EFE4F05C0E0919B01F0E0E2
:10137000E45EFE4F808180932501E0919C01FF2770
:10138000E7FDF095E85EFE4F80818093260181E0C5
:1013900071DFCE0162E370E07DD360939A0104C0F7
:1013A00080919A018823B9F2DF91CF910895CF936C
:1013B000DF93EC0180912401823030F080919D0117
:1013C00090919E01892B21F480919C018F3F71F4B3
:1013D00080919F01882351F40DC081E04BDFCE0145
:1013E00062E370E057D360939A0104C080919A0140
:1013F000882399F3DF91CF9108958093260160931C
:10140000250108951F920F920FB60F9211245F9835
:101410000F900FBE0F901F9018952A989EBD0DB487
:1014200007FEFDCF8EBD0DB407FEFDCF2A9A0895AD
:101430002A989EBD0DB407FEFDCF3EB58EBD0DB4FE
:1014400007FEFDCF2EB5932F80E02A9A30E0282B9F
:10145000392BC90108952A981EBC0DB407FEFDCF93
:101460002A9A8EB508952A988EBD0DB407FEFDCF39
:101470006EBD0DB407FEFDCF2A9A08952A9880EB21
:101480008EBD0DB407FEFDCF1EBC0DB407FEFDCF13
:101490002A9A8EB50895239A259A229A249881E54E
:1014A0008CBD08951F93D7DF87FF7CC08091CB014F
:1014B0008130E9F0813020F0823009F06BC052C0F9
:1014C00011E01093CE01DADF982F8093D5019D5F54
:1014D0009093CD019350E091CF01F091D0018081A4
:1014E000882309F057C01093CB0191835BC0909182
:1014F000CE018091CD019817D8F4C0DF9091D5012D
:1015000098279093D5012091CE012D3038F4E091A9
:10151000CF01F091D001E20FF11D81838091CE01C6
:10152000823011F49F3FB1F58F5F8093CE013AC0B6
:10153000E091CF01F091D00182E080838091D301CE
:1015400090E0019681709070282F8093D3018EE0F7
:10155000289F9001112421553E4F3093D0012093B4
:10156000CF0118C09091CE018091CD01981750F411
:10157000E92FF0E0E056FE4F60819F5F9093CE012F
:1015800088EB0FC01092CC0181E892E846DF88EB2F
:101590006AEA69DF1092CB018AEC61E864DF8AECC9
:1015A00063E861DF1F9108958091CB01882369F57D
:1015B00080E090E03DDF90FF04C088EC809327013D
:1015C0000895809127018150809327018823E9F4B1
:1015D00081E0809327018091CC018130B1F481E0DA
:1015E00092E81BDF8091A2018A5F8093CD01109267
:1015F000CE0182E08093CB018AEA98EB0EDF8AEA83
:1016000098EB0BDF81E292E808DF0895982F809134
:10161000CC01882311F083E008956093A201909398
:10162000A301692760956093A40181E08093CC01B8
:1016300080E80895E091D101F091D201108280916B
:10164000D40190E0019681709070282F8093D4018E
:101650008EE0289F9001112421553E4F3093D201F6
:101660002093D10108952A9A229A15DF87EE90E8F7
:10167000D4DE81E092E8D1DE80E496EACEDE83EA31
:1016800096ECCBDE8CE294E9C8DE8BEA92ECC5DE08
:1016900081E89AECC2DE87EF94ECBFDE80E798E940
:1016A000BCDE80E098ECB9DE80E090EEB6DE8DE244
:1016B0008093A00184ED8093A1018FEA91E0909343
:1016C000D2018093D1019093D0018093CF0181E822
:1016D00092E8A3DEE9E6F0E080818860808380E024
:1016E00090E0A6DEE19A81E89AEC97DE83E89AEC36
:1016F00094DE08950F931F93182F062F8B3010F050
:1017000082E010C08091CC01882311F083E00AC0F0
:1017100025EA31E0C901BA01412F50E0CED1802F36
:10172000612F74DF1F910F910895282F823009F1E6
:10173000833020F4813009F077C006C08330A9F1EE
:10174000843009F071C051C08FEF8093D601809131
:101750003E018093D70180913F018093D801809111
:1017600040018093D9018CE08093DA012093DB0162
:1017700036C08FEF8093D601862F90E0FC01EE0FEC
:10178000FF1FE80FF91FEE5CFE4F80818093D701A9
:1017900081818093D80182818093D9018DE08093EB
:1017A000DA0181E08093DB011AC08FEF8093D601CC
:1017B000862F90E0FC01EE0FFF1FE80FF91FEE5C93
:1017C000FE4F80818093D70181818093D8018281EF
:1017D0008093D9018AE08093DA014093DB0186E0AF
:1017E00060E046ED51E086DF08958FEF8093D601EB
:1017F000862F90E0FC01EE0FFF1FE80FF91FEE5C53
:10180000FE4F80818093D70181818093D8018281AE
:101810008093D9018BE08093DA014093DB0186E06D
:1018200060E046ED51E066DF0895CF93DF93EC0171
:1018300088818F3F09F017C18C81853008F013C172
:10184000843009F056C08091DF01813009F051C029
:101850001092DF0180915601813021F410925501E0
:101860001092540190913E018981891709F041C07D
:1018700090913F018A818917E1F5909140018B8118
:101880008917B9F5609128018CE0F6D5809128017F
:10189000819580932801E0914101F0E08D81EF5F17
:1018A000FE4F80838091410190E020913E01FC0138
:1018B000EE0FFF1FE80FF91FEE5CFE4F20838091B3
:1018C000410190E020913F01FC01EE0FFF1FE80F66
:1018D000F91FEE5CFE4F21838091410190E0209141
:1018E0004001FC01EE0FFF1FE80FF91FEE5CFE4FF9
:1018F00022831092DE011092DD0134C08091DD015F
:101900009091DE01FC01EE0FFF1FE80FF91FEE5C66
:10191000FE4F90818981891709F09BC08091DD017C
:101920009091DE01FC01EE0FFF1FE80FF91FEE5C46
:10193000FE4F91818A81891709F08BC08091DD016A
:101940009091DE01FC01EE0FFF1FE80FF91FEE5C26
:10195000FE4F92818B81891709F07BC081E08093D3
:10196000DC0106C08091DD019091DE01049734F224
:101970008091DC01882309F469C02C81223009F4AC
:101980004EC0233021F0213009F060C011C0E09139
:10199000DD01F091DE018D81EF5FFE4F8083E091EC
:1019A000DD01F091DE01E25BFE4F81E080834EC0FD
:1019B000E091DD01F091DE01EE0FFF1FEE5BFE4FC7
:1019C00081E090E091838083E091DD01F091DE0180
:1019D0008D81E65BFE4F8083E091DD01F091DE01B9
:1019E000E65BFE4F8081837080838D8190E09595CA
:1019F0008795959587958D8380939B01E091DD0177
:101A0000F091DE01E65BFE4F8081813021F482E3BC
:101A100090E08BDC1BC082E390E04DDC17C08D8131
:101A2000813021F48FEF8093840110C020938401D2
:101A300080E060E021D581E060E01ED582E060E0DA
:101A40001BD583E060E018D580E014DC1092DC0147
:101A50000AC08091DD019091DE0101969093DE0134
:101A60008093DD017FCFDF91CF910895AA1BBB1B2F
:101A700051E107C0AA1FBB1FA617B70710F0A61B8E
:101A8000B70B881F991F5A95A9F780959095BC01AF
:101A9000CD01089597FB092E07260AD077FD04D0C3
:101AA000E5DF06D000201AF4709561957F4F089508
:101AB000F6F7909581959F4F0895FB01DC0102C0D8
:101AC00001900D9241505040D8F70895F999FECFFA
:101AD00092BD81BDF89A992780B50895262FF9996E
:101AE000FECF1FBA92BD81BD20BD0FB6F894FA9A01
:0C1AF000F99A0FBE01960895F894FFCFFC
:101AFC00FF070707070106640C0F12150D101316CC
:101B0C000E11141702FFFFFF0F1E3C505A5A6E8C19
:0A1B1C00A0B4C8FA01645A10FF00DB
:00000001FF
