:1000000021C03BC067C430C438C0DCC336C0AAC2FC
:10001000AFC333C032C031C030C02FC02EC02DC0DE
:100020002CC02BC02AC029C028C046C226C025C06B
:1000300024C023C098C0A4C0B9C0CEC0EAC006C1C5
:100040001BC12FC111241FBECFEFD4E0DEBFCDBF37
:1000500011E0A0E0B1E0E2E9F9E002C005900D9204
:10006000A432B107D9F711E0A4E2B1E001C01D92BA
:10007000AC35B107E1F702D08AC4C2CF20D083D318
:100080007894FFCF882399F0419A80E197E2019715
:10009000F1F780910201853608F084E68093020131
:1000A000209102018FEF90E0821B910903C04198DB
:1000B0008FEF90E09093890080938800089580E00E
:1000C000E1DFA0E0B0E0FD01EB5DFE4F1082119694
:1000D000A432B105C1F73B9A8C9182608C933C9A13
:1000E0003D9A399A81E0CEDF8091800089688093C3
:1000F00080008091810083608093810008959091B9
:10010000010181E1989F902D1124953608F094E625
:1001100090930201209102018FEF90E0821B9109E0
:1001200090938900809388000895853608F084E6CE
:1001300080930201209102018FEF90E0821B9109D0
:1001400090938900809388000895843008F0C6C099
:10015000E62FF0E0E830F10508F026C1E65EFF4F3B
:10016000282F30E009942D5F3E4FF9018081AFE1E7
:10017000B0E0FD01E81BF109EB5DFE4F10820DC000
:100180002D5F3E4FF9018081AFE1B0E0FD01E81B3A
:10019000F109EB5DFE4F81E08083F9018481FD016F
:1001A000E81BF109EB5DFE4F108248C02D5F3E4F0A
:1001B000F9018081AFE1B0E0FD01E81BF109EB5DE1
:1001C000FE4F1082F9018481FD01E81BF109EB5D0E
:1001D000FE4F81E0808332C02D5F3E4FF901808168
:1001E000AFE1B0E0FD01E81BF109EB5DFE4F1082CD
:1001F000F9018481FD01E81BF109EB5DFE4F1082DE
:10020000F9018085A81BB109AB5DBE4F81E08C93DD
:1002100008952D5F3E4FF9018081AFE1B0E0FD010F
:10022000E81BF109EB5DFE4F91E09083F9018481B9
:10023000FD01E81BF109EB5DFE4F9083F90180851C
:10024000A81BB109AB5DBE4F1C9208952D5F3E4FB8
:10025000F9018081AFE1B0E0FD01E81BF109EB5D40
:10026000FE4F91E09083F9018481FD01E81BF109C3
:10027000EB5DFE4F10822AC02D5F3E4FF901808159
:10028000AFE1B0E0FD01E81BF109EB5DFE4F10822C
:10029000F9018481FD01E81BF109EB5DFE4F91E05E
:1002A00014C02D5F3E4FF9018081AFE1B0E0FD0148
:1002B000E81BF109EB5DFE4F91E09083F901848129
:1002C000FD01E81BF109EB5DFE4F9083F90180858C
:1002D000A81BB109AB5DBE4F9C930895843049F4CF
:1002E000662321F081E080933A01089510923A014B
:1002F0000895853049F4662321F081E080933B0125
:10030000089510923B010895863049F4662321F048
:1003100081E080933C01089510923C01089587305C
:1003200049F4662321F081E08093430108951092FF
:1003300043010895883049F4662321F081E08093D9
:1003400042010895109242010895893049F46623CC
:1003500021F081E0809341010895109241010895B8
:100360008A3069F4662331F081E080933F01809305
:100370004001089510923F011092400108958B3082
:1003800049F4662321F081E080932B0108951092B7
:100390002B0108958C3041F4662321F081E0809395
:1003A0002C01089510922C01089520E030E0F9010D
:1003B000EB5DFE4F8081813011F4439A01C0439878
:1003C000449A44982F5F3F4F2432310581F7459A74
:1003D000459881E057DE089580E090E0FC01EB5DF8
:1003E000FE4F1082019684329105C1F7DEDF089539
:1003F0001F9310E0812F60E0A8DE1F5F1630D1F759
:10040000D4DF1F9108959F92AF92BF92CF92DF9257
:10041000EF92FF920F931F93DF93CF9300D0CDB74E
:10042000DEB7182F062FA42EB22E1A821982E0DF13
:10043000173008F016E01A821982E12EFF2495E0A9
:10044000992E8DEFC82E8FEFD82ECE0CDF1C1AC040
:10045000BB2039F0153028F089819A818C159D05D3
:1004600064F0AA2031F089819A81292D281B822FDE
:1004700002C089819A81602F68DE89819A81019604
:100480009A83898389819A818E159F050CF38DDF6C
:1004900081E0809324010F900F90CF91DF911F9105
:1004A0000F91FF90EF90DF90CF90BF90AF909F9013
:1004B000089520E0A8DF08951F920F920FB60F92C3
:1004C00011248F939F93EF93FF93E0915501FF27A2
:1004D000E7FDF0958091780090917900EE0FFF1F75
:1004E000EB5BFE4F91838083809155018F5F8093FA
:1004F000550180915501853014F01092550180917D
:100500007C00807F80937C0090917C00E09155017D
:10051000FF27E7FDF095E15FFE4F8081892B8093F7
:100520007C0080917A00806480937A00FF91EF9143
:100530009F918F910F900FBE0F901F901895ECE731
:10054000F0E0808180648083EAE7F0E080818F685A
:100550008083AEE7B0E08C9186628C93808180646A
:10056000808308951F920F920FB60F9211242F933C
:100570003F934F935F936F937F938F939F93AF932B
:10058000BF93DF93CF9300D0CDB7DEB78091210129
:10059000869590E09A83898329813A81809122010E
:1005A00090E0AC01429FC001439F900D529F900D7F
:1005B00011249A83898389819A8164E670E0C0D18D
:1005C0007A8369832091B30089819A812091B30055
:1005D00089819A81280F2093B4008091B3002091E3
:1005E00021019091B30080912101890F8093B30084
:1005F0005E9A0F900F90CF91DF91BF91AF919F9135
:100600008F917F916F915F914F913F912F910F90BB
:100610000FBE0F901F901895569AE0E7F0E080818A
:100620008660808381E08093B30082E08093B40091
:100630000895282F18161CF58091590190915A01A0
:10064000892B21F48091580187FF04C080915B01C0
:100650008823A9F08091B10084608093B10008954F
:100660008091B1008B7F8093B1005E981092B200B0
:1006700081E08093B30082E08093B4000895222348
:1006800079F30895CF93DF93EC01809120018230BC
:1006900070F08091590190915A01892B21F4809139
:1006A000580187FF1EC080915B018823D1F4E0913F
:1006B0005701F0E0E75EFE4F808180932101E091D9
:1006C0005801FF27E7FDF095EC5EFE4F8081809397
:1006D000220181E0AEDFCE0162E370E045D160939C
:1006E0005601DF91CF910895CF93DF93EC01809174
:1006F0002001823080F18091590190915A01892B1B
:1007000021F48091580187FF2BC080915B018823E1
:1007100039F521C0E0915701F0E0E65EFE4F05C0DB
:10072000E0915701F0E0E85EFE4F80818093210167
:10073000E0915801FF27E7FDF095EC5EFE4F8081C8
:100740008093220181E075DFCE0162E370E00CD17D
:100750006093560105C0809157018823D9F2E0CFFC
:10076000DF91CF9108958093220160932101089534
:100770001F920F920FB60F9211245E980F900FBE2A
:100780000F901F90189553985B9A54985C9A2698EE
:100790002E9A56985E9A55985D9A5098589A519804
:1007A000599AE99AE8E6F0E0808187608083EBE679
:1007B000F0E0808180648083EDE6F0E080818367F3
:1007C000808308951F920F920FB60F9211242F93DA
:1007D0003F934F935F936F937F938F939F93AF93C9
:1007E000BF93EF93FF9380EA9FE00197F1F789B100
:1007F0008377833741F14E9903C063E070E016C000
:100800004D9903C064E070E011C0489903C065E0F1
:1008100070E00CC0499903C066E070E007C04C99D5
:1008200003C067E070E002C061E070E080E08DDC52
:10083000BCDD84EF91E028EC30E0F9013197F1F76D
:100840000197D9F7C9DDFF91EF91BF91AF919F91CA
:100850008F917F916F915F914F913F912F910F9069
:100860000FBE0F901F9018951F920F920FB60F9208
:1008700011242F933F934F935F936F937F938F93A5
:100880009F93AF93BF93EF93FF9380E29EE4019712
:10089000F1F71E990EC080E062E057DC86DD84EF40
:1008A00091E028EC30E0F9013197F1F70197D9F7A1
:1008B00093DDFF91EF91BF91AF919F918F917F91C8
:1008C0006F915F914F913F912F910F900FBE0F90BD
:1008D0001F9018951F920F920FB60F9211242F930D
:1008E0003F934F935F936F937F938F939F93AF93B8
:1008F000BF93EF93FF9380E061E027DC56DD84EF48
:1009000091E028EC30E0F9013197F1F70197D9F740
:1009100063DD4B9BFECF80E29EE40197F1F7FF91F0
:10092000EF91BF91AF919F918F917F916F915F9167
:100930004F913F912F910F900FBE0F901F901895E0
:10094000AA1BBB1B51E107C0AA1FBB1FA617B707F5
:1009500010F0A61BB70B881F991F5A95A9F7809511
:100960009095BC01CD01089597FB092E07260AD06A
:1009700077FD04D0E5DF06D000201AF4709561956C
:100980007F4F0895F6F7909581959F4F0895F894BD
:02099000FFCF97
:100992000106640C0F12150D1013160E1114170117
:1009A200020506070F1E3C505A646E788C96A0B45E
:0409B20001645A0082
:00000001FF
