:1000000021C03BC0C5C352C338C010C436C0CFC620
:10001000D4C733C032C031C030C02FC0BEC42DC021
:100020002CC02BC02AC029C028C03AC026C025C079
:1000300024C023C0F8C104C219C22EC24AC266C27B
:100040007BC28FC211241FBECFEFD4E0DEBFCDBF75
:1000500011E0A0E0B1E0ECECF5E102C005900D92FA
:10006000AA32B107D9F712E0AAE2B1E001C01D92AD
:10007000A730B107E1F754D0A7CAC2CFEAE7F0E052
:1000800080818660808380818068808380818062B7
:1000900080838081886080838081806480830895EC
:1000A0001F920F920FB60F9211242F933F934F93ED
:1000B0008F939F932091780040917900942F80E056
:1000C00030E0822B932B90932D0180932C01809113
:1000D0005301880F8093530180912C0190912D0141
:1000E0008170907090932D0180932C012091530189
:1000F00080912C0190912D01282B20935301809108
:100100005301882319F481E0809353019F918F91CB
:100110004F913F912F910F900FBE0F901F90189508
:10012000CF93DF93ABDF27D1E0D229D47ED899D605
:100130007894FFD214D381E001D18091770190911E
:100140007801892B11F40BD314C0E091F801F091E0
:10015000F9018081823069F49F012C5F3F4F309319
:100160002B0120932A018181882311F0C9011DD917
:1001700043D880915201813009F09DC080911401D3
:10018000813051F0823089F08823C1F484E061E04D
:1001900038D185E060E005C084E060E032D185E0E0
:1001A00061E02FD186E060E008C084E060E029D102
:1001B00085E060E026D186E061E023D180913D01B9
:1001C0008130F9F0813030F08230A9F1833009F0CC
:1001D0006CC04EC02091150130911601E0913D0197
:1001E000F0E0EF5FFE4F808190E0829FB001839F3F
:1001F000700D929F700D112480E003D181E060E0CA
:1002000016C080E060E0FDD020911501309116010C
:10021000E0913D01F0E0EF5FFE4F808190E0829F32
:10022000B001839F700D929F700D112481E0E9D081
:1002300082E060E019C080E060E0E3D081E060E04F
:10024000E0D02091150130911601E0913D01F0E0E0
:10025000EF5FFE4F808190E0829FB001839F700D21
:10026000929F700D112482E0CCD083E060E01CC02E
:1002700080E060E0C6D081E060E0C3D082E060E072
:10028000C0D02091150130911601E0913D01F0E0C0
:10029000EF5FFE4F808190E0829FB001839F700DE1
:1002A000929F700D112483E0ACD060911501709184
:1002B00016018AE03DC084E060E0A3D085E060E004
:1002C000A0D086E060E09DD080917901813021F559
:1002D0008BE060E096D08CE060E093D089E061E054
:1002E00090D0C0E0D0E0FE01E65BFE4F8081882325
:1002F00059F080911701FE01EF5FFE4F6081689F0A
:10030000602D11248C2F02C08C2F60E07AD02196B2
:10031000C430D10541F703C089E060E072D080911C
:100320007901823019F487E061E002C087E060E083
:1003300068D0F89499D61AD77894FDCE882399F08E
:10034000419A80E197E20197F1F7809107018536A4
:1003500008F084E680930701209107018FEF90E079
:10036000821B910903C041988FEF90E09093890020
:1003700080938800089580E0E1DFA0E0B0E0FD0117
:10038000EB5AFE4F10821196A432B105C1F73B9A89
:100390008C9182608C933C9A3D9A399A81E0CEDFB1
:1003A00080918000896880938000809181008360C3
:1003B0008093810008959091060181E1989F902D8E
:1003C0001124953608F094E69093070120910701D7
:1003D0008FEF90E0821B91099093890080938800B1
:1003E0000895853608F084E680930701209107017F
:1003F0008FEF90E0821B9109909389008093880091
:10040000089567FD60E0843008F0C8C0E62FFF273C
:10041000E7FDF095E830F10508F026C1E65EFF4FF4
:10042000282F30E00994285F3E4FF9018081AFE129
:10043000B0E0FD01E81BF109EB5AFE4F10820DC040
:10044000285F3E4FF9018081AFE1B0E0FD01E81B7C
:10045000F109EB5AFE4F81E08083F9018481FD01AF
:10046000E81BF109EB5AFE4F108248C0285F3E4F4F
:10047000F9018081AFE1B0E0FD01E81BF109EB5A21
:10048000FE4F1082F9018481FD01E81BF109EB5A4E
:10049000FE4F81E0808332C0285F3E4FF9018081AA
:1004A000AFE1B0E0FD01E81BF109EB5AFE4F10820D
:1004B000F9018481FD01E81BF109EB5AFE4F10821E
:1004C000F9018085A81BB109AB5ABE4F81E08C931E
:1004D0000895285F3E4FF9018081AFE1B0E0FD0152
:1004E000E81BF109EB5AFE4F91E09083F9018481FA
:1004F000FD01E81BF109EB5AFE4F9083F90180855D
:10050000A81BB109AB5ABE4F1C920895285F3E4FFD
:10051000F9018081AFE1B0E0FD01E81BF109EB5A80
:10052000FE4F91E09083F9018481FD01E81BF10900
:10053000EB5AFE4F10822AC0285F3E4FF90180819E
:10054000AFE1B0E0FD01E81BF109EB5AFE4F10826C
:10055000F9018481FD01E81BF109EB5AFE4F91E09E
:1005600014C0285F3E4FF9018081AFE1B0E0FD018A
:10057000E81BF109EB5AFE4F91E09083F901848169
:10058000FD01E81BF109EB5AFE4F9083F9018085CC
:10059000A81BB109AB5ABE4F9C930895843049F40F
:1005A000662321F081E080936A01089510926A0128
:1005B0000895853049F4662321F081E080936B0132
:1005C000089510926B010895863049F4662321F056
:1005D00081E080936C01089510926C01089587303A
:1005E00049F4662321F081E080937301089510920D
:1005F00073010895883049F4662321F081E08093E7
:1006000072010895109272010895893049F46623A9
:1006100021F081E080937101089510927101089595
:100620008A3069F4662331F081E080936F01809312
:100630007001089510926F011092700108958B302F
:1006400049F4662321F081E080935B0108951092C4
:100650005B0108958C3041F4662321F081E08093A2
:100660005C01089510925C01089520E030E0F901EA
:10067000EB5AFE4F8081813011F4439A01C04398B8
:10068000449A44982F5F3F4F2432310581F7459AB1
:100690004598089580E090E0FC01EB5AFE4F1082EF
:1006A000019684329105C1F7E0DF08951F920F9201
:1006B0000FB60F9211242F933F938F939F9320E2B5
:1006C0003EE4C9010197F1F71E9906C0C9010197DF
:1006D000F1F781E0809376019F918F913F912F9167
:1006E0000F900FBE0F901F90189553985B9A5498D7
:1006F0005C9A26982E9A56985E9A55985D9A5098CC
:10070000589A5198599AE8E6F0E080818560808394
:10071000EBE6F0E0808180648083EDE6F0E08081AC
:100720008B67808381E090E09093780180937701DC
:10073000089581E090E0909378018093770113BE53
:10074000E998E8E6F0E080818560808378941092F3
:1007500079011092520182E0809314010895EAE732
:10076000F0E08081877F808380818F778083E8E6D7
:10077000F0E080818A7F8083E99A1092780110925C
:10078000770180E0DBDD83B7856083BF88950895BE
:100790001F920F920FB60F9211242F933F934F93F6
:1007A0005F936F937F938F939F93AF93BF93EF93D9
:1007B000FF93BFDF88EE93E028EC30E0F90131973A
:1007C000F1F70197D9F74B9B05C010927801109271
:1007D00077010CC081E0B2DD80E197E20197F1F78B
:1007E00081E090E0909378018093770180917A0086
:1007F000886080937A0080917A00806880937A0084
:1008000080917A00806480937A00FF91EF91BF918C
:10081000AF919F918F917F916F915F914F913F9198
:100820002F910F900FBE0F901F9018951F920F924F
:100830000FB60F9211242F933F934F935F936F93B3
:100840007F938F939F93AF93BF93EF93FF9380EA30
:100850009FE00197F1F789B18B778B3709F47EC060
:100860004B9907C080915201882319F481E080934D
:1008700075014E9921C01092510110925001809142
:100880005201813009F069C080911401813051F02A
:10089000823069F0882309F060C060913D0183E0F7
:1008A00041E326C060913D0183E041E221C06091B7
:1008B0003D0183E041E11CC04D9921C010925101DE
:1008C0001092500180915201813009F046C0809110
:1008D0001401813049F0823069F08823F1F560918C
:1008E0003D0183E042E304C060913D0183E042E2C8
:1008F000FED433C060913D0183E042E1F9CF4899D5
:1009000014C080915201813041F510925101109232
:100910005001809114018150809314018091140141
:1009200087FF1BC01092140118C0499915C080910F
:100930005201813091F41092510110925001809136
:1009400014018F5F809314018091140183302CF087
:1009500082E08093140101C089B187DEFF91EF919D
:10096000BF91AF919F918F917F916F915F914F91C7
:100970003F912F910F900FBE0F901F90189584B547
:10098000826084BD85B5856085BDEEE6F0E080813E
:10099000826080838FEF87BD08951F920F920FB6FC
:1009A0000F9211242F933F934F935F936F937F93F5
:1009B0008F939F93AF93BF93CF93DF93EF93FF9367
:1009C00080918401873039F480911701819580935B
:1009D00017011092840180917501882331F14B99A0
:1009E00006C0809175018F5F809375011EC01092C3
:1009F0007501809152018823C1F4809179018F5F44
:100A0000809379018091790184301CF081E080939A
:100A1000790180E060E0F5DC81E060E0F2DC82E01A
:100A200060E0EFDC83E060E0ECDC8091760118169A
:100A3000BCF51E9906C0809176018F5F8093760188
:100A40002FC01092760180915201813049F580913A
:100A50003D018F5F80933D01109251011092500132
:100A600080913D01843010F010923D01809153013E
:100A700080933A0120E23EE4C9010197F1F78091A9
:100A8000530180933B01C9010197F1F78091530114
:100A900080933C01C9010197F1F781E08093060240
:100AA000809175018E3139F41092750110927801A0
:100AB0001092770106C081E090E0909378018093D6
:100AC0007701809176018E3109F056C0109276013F
:100AD00080915201882309F03CC01092510110927C
:100AE000500110923D018091530180933A0120E220
:100AF0003EE4C9010197F1F78091530180933B01D6
:100B0000C9010197F1F78091530180933C01C9011C
:100B10000197F1F781E0809306028093520182E011
:100B200080931401C0E0D0E0FE01EE0FFF1FE25CF5
:100B3000FE4F118210828BE060E063DC8CE060E0AD
:100B400060DC8C2F60E05DDC2196C430D10561F75C
:100B500013C0109252011092060280E060E051DC56
:100B600081E060E04EDC82E060E04BDC83E060E04E
:100B700048DC8AE060E045DC809180019091810151
:100B80000F97B9F480915201813079F48091150169
:100B900090911601909581959F4F909316018093A7
:100BA000150181E060E040E0A2D310928101109233
:100BB00080018091500190915101845F9140B9F47E
:100BC00080915201813099F41092520110920602E4
:100BD00080E060E016DC81E060E013DC82E060E051
:100BE00010DC83E060E00DDC8AE060E00ADC8091EC
:100BF0008201873009F057C08091790182300CF46E
:100C000050C080915201882309F04BC0C0E0D0E071
:100C1000FE01EE0FFF1FE25CFE4F80819181C297C3
:100C200058F0118210828BE060E0EBDB8CE060E03A
:100C3000E8DB8C2F60E0E5DBFE01EE0FFF1FE25CDE
:100C4000FE4F80819181892B39F180911701FE013E
:100C5000EF5FFE4F6081689F602D11248C2FD1DBE8
:100C6000FE01EA5BFE4F8081813031F48BE061E070
:100C7000C8DB8CE060E005C08BE060E0C2DB8CE0AC
:100C800061E0BFDBFE01EE0FFF1FE25CFE4F8081E3
:100C900091810196918380832196C430D10509F01A
:100CA000B7CF1092820180917B0190917C010F97C8
:100CB000E1F4809179018130A1F48091520188237F
:100CC00081F480918301843010F01092830160914F
:100CD000830182E040E00BD3809183018F5F80939A
:100CE000830110927C0110927B0120E030E0F90139
:100CF000E65BFE4F8081882319F080818F5F8083BF
:100D0000F901E65BFE4F8081803508F010822F5F8D
:100D10003F4F2430310559F780914E0190914F019A
:100D2000019690934F0180934E01809182018F5FD5
:100D3000809382019ADC80917B0190917C010196E5
:100D400090937C0180937B0180917E0190917F0143
:100D5000019690937F0180937E0180918001909114
:100D6000810101969093810180938001809184019B
:100D70008F5F809384018091500190915101019681
:100D80009093510180935001FF91EF91DF91CF91AA
:100D9000BF91AF919F918F917F916F915F914F9193
:100DA0003F912F910F900FBE0F901F9018951F929B
:100DB0000F920FB60F9211242F933F934F935F938F
:100DC0006F937F938F939F93AF93BF93DF93CF9353
:100DD00000D0CDB7DEB780912501869590E09A834B
:100DE000898329813A818091260190E0AC01429F5C
:100DF000C001439F900D529F900D11249A838983C7
:100E000089819A8164E670E0AFD37A836983209107
:100E1000B30089819A812091B30089819A81280F3A
:100E20002093B4008091B300209125019091B300EC
:100E300080912501890F8093B3005F9A0F900F90E6
:100E4000CF91DF91BF91AF919F918F917F916F91E2
:100E50005F914F913F912F910F900FBE0F901F9078
:100E60001895579AE0E7F0E080818660808381E002
:100E70008093B30082E08093B4000895282F181661
:100E80001CF58091880190918901892B21F4809132
:100E9000870187FF04C080918A018823A9F080918F
:100EA000B10084608093B10008958091B1008B7F80
:100EB0008093B1005F981092B20081E08093B300FC
:100EC00082E08093B4000895222379F30895CF93AC
:100ED000DF93EC0180912401823070F080918801D1
:100EE00090918901892B21F48091870187FF1EC091
:100EF00080918A018823D1F4E0918601F0E0E35EDD
:100F0000FE4F808180932501E0918701FF27E7FD57
:100F1000F095E85EFE4F80818093260181E0AEDF90
:100F2000CE0162E370E034D360938501DF91CF910D
:100F30000895CF93DF93EC0180912401823080F1FA
:100F40008091880190918901892B21F480918701FA
:100F500087FF2BC080918A01882339F521C0E09159
:100F60008601F0E0E25EFE4F05C0E0918601F0E010
:100F7000E45EFE4F808180932501E0918701FF2789
:100F8000E7FDF095E85EFE4F80818093260181E0C9
:100F900075DFCE0162E370E0FBD26093850105C08E
:100FA000809186018823D9F2E0CFDF91CF91089517
:100FB000809326016093250108951F920F920FB62A
:100FC0000F9211245F980F900FBE0F901F901895ED
:100FD0002A989EBD0DB407FEFDCF8EBD0DB407FE51
:100FE000FDCF2A9A08952A989EBD0DB407FEFDCF25
:100FF0003EB58EBD0DB407FEFDCF2EB5932F80E01C
:101000002A9A30E0282B392BC90108952A981EBC52
:101010000DB407FEFDCF2A9A8EB508952A988EBD8D
:101020000DB407FEFDCF6EBD0DB407FEFDCF2A9AAD
:1010300008952A9880EB8EBD0DB407FEFDCF1EBC2F
:101040000DB407FEFDCF2A9A8EB50895239A259AEE
:10105000229A249881E58CBD089583EA96ECB8DF46
:101060000895906AB5DF08951F93D0DF87FF7CC095
:101070008091F2018130E9F0813020F0823009F076
:101080006BC052C011E01093F501D3DF982F80930D
:10109000FC019D5F9093F4019350E091F601F09173
:1010A000F7018081882309F057C01093F2019183E2
:1010B0005BC09091F5018091F4019817D8F4B9DFE5
:1010C0009091FC0198279093FC012091F501213229
:1010D00038F4E091F601F091F701E20FF11D818300
:1010E0008091F501823011F49F3FB1F58F5F8093BD
:1010F000F5013AC0E091F601F091F70182E08083BA
:101100008091FA0190E0019681709070282F809371
:10111000FA0182E2289F9001112422553E4F30931C
:10112000F7012093F60118C09091F5018091F40128
:10113000981750F4E92FF0E0E557FE4F60819F5F6C
:101140009093F50188EB0FC01092F30181E892E8CB
:101150003FDF88EB6AEA62DF1092F2018AEC61E815
:101160005DDF8AEC63E85ADF1F9108958091F201F8
:10117000882369F580E090E036DF90FF04C088ECBA
:101180008093270108958091270181508093270142
:101190008823E9F481E0809327018091F301813075
:1011A000B1F481E092E814DF80918D018A5F809331
:1011B000F4011092F50182E08093F2018AEA98EB43
:1011C00007DF8AEA98EB04DF81E292E801DF089505
:1011D000982F8091F301882311F083E008956093A4
:1011E0008D0190938E016927609560938F0181E056
:1011F0008093F30180E80895E091F801F091F901FE
:1012000010828091FB0190E0019681709070282FF0
:101210008093FB0182E2289F9001112422553E4FCA
:101220003093F9012093F80108952A9A229A0EDF4B
:1012300087EE90E8CDDE81E092E8CADE80E496EAAF
:10124000C7DE83EA96ECC4DE8CE294E9C1DE8BEA69
:1012500092ECBEDE81E89AECBBDE87EF94ECB8DE60
:1012600080E798E9B5DE80E098ECB2DE80E090EEB1
:10127000AFDE8DE280938B0184ED80938C018EEA4A
:1012800091E09093F9018093F8019093F701809396
:10129000F60181E892E89CDEE9E6F0E08081886072
:1012A000808380E090E09FDEE19A81E89AEC90DE16
:1012B00083E89AEC8DDE08950F931F93182F062F65
:1012C0008F3110F082E010C08091F301882311F07B
:1012D00083E00AC020E931E0C901BA01412F50E0A2
:1012E0006AD1802F612F74DF1F910F910895282FED
:1012F0008230D1F08330C9F1813009F055C08FEFD1
:101300008093FD0180913A018093FE0180913B0121
:101310008093FF0180913C01809300028CE08093D8
:101320000102209302021BC08FEF8093FD01862FE4
:1013300090E0FC01EE0FFF1FE80FF91FE25DFE4F8A
:1013400080818093FE0181818093FF01828180935F
:1013500000028DE08093010281E08093020286E02A
:1013600060E04DEF51E0A8DF08958FEF8093FD011D
:10137000862F90E0FC01EE0FFF1FE80FF91FE25DE2
:10138000FE4F80818093FE0181818093FF018281E5
:10139000809300028AE0809301024093020286E07B
:1013A00060E04DEF51E088DF0895CF93DF93EC01CB
:1013B00088818F3F09F0D5C08C81853008F0D1C07D
:1013C000843009F056C080910602813009F051C086
:1013D0001092060280915201813021F41092510145
:1013E0001092500190913A018981891709F041C00A
:1013F00090913B018A818917E1F590913C018B81A5
:101400008917B9F5609128018CE0FBD780912801FC
:10141000819580932801E0913D01F0E08D81EF5F9F
:10142000FE4F808380913D0190E020913A01FC01C4
:10143000EE0FFF1FE80FF91FE25DFE4F2083809142
:101440003D0190E020913B01FC01EE0FFF1FE80FF2
:10145000F91FE25DFE4F218380913D0190E02091D4
:101460003C01FC01EE0FFF1FE80FF91FE25DFE4F8C
:101470002283109205021092040233C0809104026C
:1014800090910502FC01EE0FFF1FE80FF91FE25DCE
:10149000FE4F90818981891709F059C0809104021B
:1014A00090910502FC01EE0FFF1FE80FF91FE25DAE
:1014B000FE4F91818A81891709F049C08091040209
:1014C00090910502FC01EE0FFF1FE80FF91FE25D8E
:1014D000FE4F92818B818917D1F581E080930302C1
:1014E00006C0809104029091050204973CF280911D
:1014F0000302882349F18C81813091F0833021F5FA
:10150000E0910402F09105028D81EF5FFE4F808330
:10151000E0910402F0910502E65BFE4F81E013C00A
:10152000E0910402F0910502EE0FFF1FE25CFE4F16
:1015300081E090E091838083E0910402F0910502C4
:101540008D81EA5BFE4F8083109203020AC0809176
:101550000402909105020196909305028093040283
:10156000C0CFDF91CF910895AA1BBB1B51E107C0EB
:10157000AA1FBB1FA617B70710F0A61BB70B881F23
:10158000991F5A95A9F780959095BC01CD010895B2
:1015900097FB092E07260AD077FD04D0E5DF06D099
:1015A00000201AF4709561957F4F0895F6F7909595
:1015B00081959F4F0895FB01DC0102C001900D92BF
:0C15C00041505040D8F70895F894FFCF38
:1015CC00FF070707070106640C0F12150D10131601
:1015DC000E11141702FFFFFF0F1E3C505A646E7859
:0A15EC008C96A0B401645A10FF00B1
:00000001FF
