:1000000021C03BC094C39DC338C036C436C0B9C7F5
:10001000DDC833C032C031C030C02FC014C52DC0C0
:100020002CC02BC02AC029C028C031C026C025C082
:1000300024C023C039C245C25AC26FC28BC2A7C2F4
:10004000BCC2D0C211241FBECFEFD4E0DEBFCDBFF3
:1000500011E0A0E0B1E0E8E9F8E102C005900D92FE
:10006000AA32B107D9F711E0AAE2B1E001C01D92AE
:10007000A23EB107E1F775D00DCCC2CFEAE7F0E0C0
:1000800080818660808380818062808308951F9252
:100090000F920FB60F9211242F933F934F938F938C
:1000A0009F93EF93FF93E0912E0120917800409170
:1000B0007900942F80E030E0822B932B90932D01D8
:1000C00080932C0180912C0190912D018170907072
:1000D00090932D0180932C0180912F0190913001FC
:1000E000880F991F9093300180932F0120912F0149
:1000F0003091300180912C0190912D01822B932B16
:100100009093300180932F0180912E01877087306A
:1001100089F480912F0190913001892B59F08091C1
:100120002F0190913001E695E695E695F0E0E65ACC
:10013000FE4F808380912E018F5F80932E018091EE
:100140002E01883110F010922E01FF91EF919F91B6
:100150008F914F913F912F910F900FBE0F901F9055
:1001600018951F93CF93DF9380917A0086608093D8
:100170007A0080917A00806280937A003DD100D32A
:1001800054D455D958D7789483E080939E011CD3DA
:1001900036D312E081E013D18091840190918501E2
:1001A000892B11F42CD3F6CFE091D301F091D40137
:1001B0008081823069F49F012C5F3F4F30932B0187
:1001C00020932A018181882311F0C90112DA16D9FE
:1001D000809186018F3F61F5809117018F3F89F4EF
:1001E00080E061E04FD181E061E04CD182E061E0EC
:1001F00049D183E061E046D18AE562E8E2D781E057
:1002000027D780911701813009F0D4C080E062E0E7
:1002100039D181E062E036D182E062E033D183E01F
:1002200062E030D18AE562E8CCD780E011D7C2C065
:1002300080915901813009F06CC0809114018130A6
:1002400051F0823089F08823C1F484E061E01AD152
:1002500085E060E005C084E060E014D185E061E005
:1002600011D186E060E008C084E060E00BD185E059
:1002700060E008D186E061E005D1809144018130E1
:1002800091F0813028F08230E1F08330E1F52AC02E
:10029000E0914401F0E0EF5FFE4F608180E0F2D03A
:1002A00081E060E00AC080E060E0ECD0E0914401D1
:1002B000F0E0EF5FFE4F608181E0E4D082E060E03B
:1002C0000DC080E060E0DED081E060E0DBD0E09156
:1002D0004401F0E0EF5FFE4F608182E0D3D083E025
:1002E00060E010C080E060E0CDD081E060E0CAD086
:1002F00082E060E0C7D0E0914401F0E0EF5FFE4FA4
:10030000608183E0BFD060911501709116018AE091
:1003100050C084E060E0B6D085E060E0B3D086E015
:1003200060E0B0D080918901813039F410939D0153
:1003300084E690E0A6D610928901809186018130F2
:1003400061F58BE060E09ED08CE060E09BD089E0BE
:1003500061E098D0C0E0D0E0FE01EF5AFE4F80810E
:10036000882399F020911701FE01EF5FFE4F8081F5
:1003700090E0332727FD3095829FB001839F700D59
:10038000929F700D11248C2F02C08C2F60E07AD0C8
:100390002196C430D10501F703C089E060E072D036
:1003A00080918601823019F487E061E002C087E025
:1003B00060E068D0F8945AD7DBD77894EBCE8823E6
:1003C00099F0419A80E197E20197F1F78091070156
:1003D000853608F084E680930701209107018FEFAE
:1003E00090E0821B910903C041988FEF90E09093B9
:1003F000890080938800089580E0E1DFA0E0B0E00C
:10040000FD01EE59FE4F10821196A432B105C1F7DD
:100410003B9A8C9182608C933C9A3D9A399A81E008
:10042000CEDF809180008968809380008091810078
:1004300083608093810008959091060181E1989FE7
:10044000902D1124953608F094E6909307012091A1
:1004500007018FEF90E0821B9109909389008093B0
:1004600088000895853608F084E68093070120917E
:1004700007018FEF90E0821B910990938900809390
:100480008800089567FD60E0843008F0C8C0E62F5A
:10049000FF27E7FDF095E830F10508F026C1E65E9C
:1004A000FF4F282F30E00994285F3E4FF9018081EB
:1004B000AFE1B0E0FD01E81BF109EE59FE4F1082FB
:1004C0000DC0285F3E4FF9018081AFE1B0E0FD0132
:1004D000E81BF109EE59FE4F81E08083F901848128
:1004E000FD01E81BF109EE59FE4F108248C0285F5C
:1004F0003E4FF9018081AFE1B0E0FD01E81BF10959
:10050000EE59FE4F1082F9018481FD01E81BF109CB
:10051000EE59FE4F81E0808332C0285F3E4FF901E3
:100520008081AFE1B0E0FD01E81BF109EE59FE4F1B
:100530001082F9018481FD01E81BF109EE59FE4F9B
:100540001082F9018085A81BB109AE59BE4F81E028
:100550008C930895285F3E4FF9018081AFE1B0E0B0
:10056000FD01E81BF109EE59FE4F91E09083F9017E
:100570008481FD01E81BF109EE59FE4F9083F901DA
:100580008085A81BB109AE59BE4F1C920895285F03
:100590003E4FF9018081AFE1B0E0FD01E81BF109B8
:1005A000EE59FE4F91E09083F9018481FD01E81B33
:1005B000F109EE59FE4F10822AC0285F3E4FF90123
:1005C0008081AFE1B0E0FD01E81BF109EE59FE4F7B
:1005D0001082F9018481FD01E81BF109EE59FE4FFB
:1005E00091E014C0285F3E4FF9018081AFE1B0E097
:1005F000FD01E81BF109EE59FE4F91E09083F901EE
:100600008481FD01E81BF109EE59FE4F9083F90149
:100610008085A81BB109AE59BE4F9C9308958430C4
:1006200049F4662321F081E08093770108951092C8
:1006300077010895853049F4662321F081E08093A5
:1006400078010895109278010895863049F4662360
:1006500021F081E080937901089510927901089545
:10066000873049F4662321F081E08093800108956A
:10067000109280010895883049F4662321F081E0CA
:1006800080937F01089510927F010895893049F485
:10069000662321F081E080937E01089510927E010F
:1006A00008958A3069F4662331F081E080937C01FB
:1006B00080937D01089510927C0110927D01089530
:1006C0008B3049F4662321F081E08093680108951E
:1006D0001092680108958C3041F4662321F081E086
:1006E00080936901089510926901089520E030E037
:1006F000F901EE59FE4F8081813011F4439A01C017
:100700004398449A44982F5F3F4F2432310581F734
:10071000459A4598089580E090E0FC01EE59FE4F1F
:100720001082019684329105C1F7E0DF08951F928F
:100730000F920FB60F9211240F900FBE0F901F90C3
:1007400018951F920F920FB60F9211242F933F937B
:100750008F939F9320E23EE4C9010197F1F71E9920
:1007600006C0C9010197F1F781E0809383019F9151
:100770008F913F912F910F900FBE0F901F90189562
:1007800053985B9A54985C9A26982E9A56985E9A3B
:1007900055985D9A5098589A5198599AE8E6F0E021
:1007A000808185608083EBE6F0E0808180648083D7
:1007B000EDE6F0E080818B67808381E090E09093AC
:1007C000850180938401089583B78E7F83BF89E07C
:1007D00061E058DE81E090E0909385018093840190
:1007E000E998E8E6F0E08081856080837894109253
:1007F00086011092590182E0809314010895F894C3
:10080000809168008A7F80936800E99A1092850140
:100810001092840180E0D3DD4B9BFECF83B78560CF
:1008200083BF83B7816083BF78948895CDDF88E8E4
:1008300093E128EC30E0F9013197F1F70197D9F70E
:100840004B9B05C01092850110928401089581E0B0
:10085000B6DD80E197E20197F1F781E090E09093B7
:1008600085018093840183E080939D0180939E01A4
:1008700088EC90E006D408951F920F920FB60F9265
:1008800011242F933F934F935F936F937F938F9395
:100890009F93AF93BF93EF93FF9380EA9FE00197FD
:1008A000F1F789B18B778B3709F4AEC04B9907C04C
:1008B00080915901882319F481E0809382014E9937
:1008C0002CC04E9BFECF1092580110925701809180
:1008D00059018130C1F480911401813051F082308E
:1008E00069F0882309F08FC06091440183E041E3FF
:1008F00037C06091440183E041E232C0609144011D
:1009000083E041E12DC080919E0187FD04C080916C
:100910009E01815030C08FEF2EC04D9932C04D9B4B
:10092000FECF1092580110925701809159018130E9
:10093000C9F480911401813051F0823069F088232C
:1009400009F061C06091440183E042E309C0609115
:10095000440183E042E204C06091440183E042E14B
:10096000C8D551C080919E01843024F480919E01AD
:100970008F5F01C084E080939E0181E080938901B4
:1009800042C0489914C0809159018130E1F510921C
:1009900058011092570180911401815080931401E5
:1009A0008091140187FF2FC0109214012CC0499927
:1009B00015C080915901813031F510925801109283
:1009C0005701809114018F5F80931401809114016D
:1009D0008330CCF082E08093140115C04C9913C091
:1009E00080E29EE40197F1F780915901882359F440
:1009F00080918601823024F4809186018F3F19F422
:100A000081E08093880172DEFF91EF91BF91AF91F9
:100A10009F918F917F916F915F914F913F912F9116
:100A20000F900FBE0F901F90189584B5826084BD03
:100A300085B5856085BDEEE6F0E0808182608083CB
:100A40008FEF87BD08951F920F920FB60F9211245A
:100A50002F933F934F935F936F937F938F939F93C6
:100A6000AF93BF93CF93DF93EF93FF9380919C015C
:100A70008823D9F08091990190919A0101969093E1
:100A80009A01809399012091990130919A01809166
:100A90009C0190E08217930740F480E0D9D2109235
:100AA0009A011092990110929C01809193018730D4
:100AB00039F4809117018195809317011092930169
:100AC000809196018823F1F0809197018F5F809348
:100AD000970180919701843169F460919801409168
:100AE000960184E006D510929701809198018F5F5E
:100AF0008093980180919801843020F010929801A1
:100B000010929601809188018823E9F04C9906C0E3
:100B1000809188018F5F8093880115C082E0809367
:100B20009601109288018093860180E060E0AADC43
:100B300081E060E0A7DC82E060E0A4DC83E060E0CC
:100B4000A1DC80E085D280918201882331F14B992C
:100B500006C0809182018F5F809382011EC0109237
:100B60008201809159018823C1F4809186018F5FB1
:100B7000809386018091860184301CF081E080930F
:100B8000860180E060E07EDC81E060E07BDC82E08A
:100B900060E078DC83E060E075DC8091830118160A
:100BA0000CF046C080917A00886080937A00809132
:100BB0007A00806880937A0080917A0080648093C4
:100BC0007A001E9906C0809183018F5F8093830114
:100BD0002FC010928301809159018130F9F48091E6
:100BE00044018F5F80934401109258011092570185
:100BF00080914401843010F01092440180915A0198
:100C00008093410180915B018093420180915C015E
:100C10008093430181E08093E1010AC080917A00D2
:100C2000877F80937A0080917A008F7780937A0013
:100C3000809188018E3129F41092880181E080939F
:100C40009601809182018E3139F4109282011092C6
:100C500085011092840106C081E090E090938501A7
:100C600080938401809183018E3109F054C01092E9
:100C7000830180915901882389F5109258011092BF
:100C800057011092440180915A0180934101809153
:100C90005B018093420180915C018093430181E07C
:100CA0008093E1018093590182E080931401C0E0B8
:100CB000D0E0FE01EE0FFF1FEB5BFE4F11821082B2
:100CC0008BE060E0DFDB8CE060E0DCDB8C2F60E061
:100CD000D9DB2196C430D10561F71DC010925901AE
:100CE0001092E10180E060E0CDDB81E060E0CADBF2
:100CF00082E060E0C7DB83E060E0C4DB8AE060E0C4
:100D0000C1DB80917A00877F80937A0080917A009E
:100D10008F7780937A0080918F01909190010F9747
:100D2000B9F480915901813079F480911501909145
:100D30001601909581959F4F909316018093150110
:100D400081E060E040E0D5D31092900110928F01D5
:100D50008091570190915801845F914009F58091ED
:100D600059018130E9F4109259011092E10180E0BB
:100D700060E088DB81E060E085DB82E060E082DBD0
:100D800083E060E07FDB8AE060E07CDB80917A00DA
:100D9000877F80937A0080917A008F7780937A00A2
:100DA00080919101873009F05FC080918601823087
:100DB0000CF458C080915901882309F053C0C0E059
:100DC000D0E0FE01EE0FFF1FEB5BFE4F80819181B3
:100DD000C29758F0118210828BE060E053DB8CE008
:100DE00060E050DB8C2F60E04DDBFE01EE0FFF1F5B
:100DF000EB5BFE4F80819181892B79F12091170166
:100E0000FE01EF5FFE4F808190E0332727FD309594
:100E1000829FB001839F700D929F700D11248C2FC3
:100E200031DBFE01E35BFE4F8081813031F48BE0EA
:100E300061E028DB8CE060E005C08BE060E022DB55
:100E40008CE061E01FDBFE01EE0FFF1FEB5BFE4F4E
:100E5000808191810196918380832196C430D10550
:100E600009F0AFCF1092910180918A0190918B018E
:100E70000F97E1F4809186018130A1F480915901AE
:100E8000882381F480919201843010F010929201B5
:100E90006091920182E040E02CD3809192018F5FBB
:100EA0008093920110928B0110928A0120E030E031
:100EB000F901EF5AFE4F8081882319F080818F5FFE
:100EC0008083F901EF5AFE4F8081803508F010824F
:100ED0002F5F3F4F2430310559F780915501909194
:100EE000560101969093560180935501809191018E
:100EF0008F5F80939101FADB80918A0190918B0141
:100F0000019690938B0180938A0180918D0190913D
:100F10008E01019690938E0180938D0180918F01B7
:100F20009091900101969093900180938F01809110
:100F300093018F5F809393018091570190915801A5
:100F4000019690935801809357018091940190915C
:100F5000950101969093950180939401FF91EF91F3
:100F6000DF91CF91BF91AF919F918F917F916F91C1
:100F70005F914F913F912F910F900FBE0F901F9057
:100F800018951F920F920FB60F9211242F933F9333
:100F90004F935F936F937F938F939F93AF93BF9381
:100FA000DF93CF9300D0CDB7DEB780912501869532
:100FB00090E09A83898329813A818091260190E08B
:100FC000AC01429FC001439F900D529F900D112490
:100FD0009A83898389819A8164E670E02BD47A832D
:100FE00069832091B30089819A812091B30089811E
:100FF0009A81280F2093B4008091B300209125019D
:101000009091B30080912501890F8093B3005F9A7E
:101010000F900F90CF91DF91BF91AF919F918F91E2
:101020007F916F915F914F913F912F910F900FBEE4
:101030000F901F901895579AE0E7F0E08081866046
:10104000808381E08093B30082E08093B4000895B0
:10105000181634F48091B10084608093B100089533
:10106000882371F48091B1008B7F8093B1005F98E9
:101070001092B20081E08093B30082E08093B400CC
:101080000895CF93DF93EC0180912401823030F0FA
:1010900080919F019091A001892B21F480919E0164
:1010A0008F3F01F58091A1018823E1F41FC0E091F9
:1010B0009D01F0E0E35EFE4F808180932501E09189
:1010C0009E01FF27E7FDF095E85EFE4F808180934B
:1010D000260181E0BDDFCE0162E370E0BFD3609303
:1010E0009C0104C080919C01882309F3DF91CF917A
:1010F0000895CF93DF93EC0180912401823030F08A
:1011000080919F019091A001892B21F480919E01F3
:101110008F3F51F58091A101882331F529C080913D
:101120009D01882331F4E0919D01F0E0E25EFE4FE5
:1011300005C0E0919D01F0E0E45EFE4F8081809368
:101140002501E0919E01FF27E7FDF095E85EFE4F47
:1011500080818093260181E07BDFCE0162E370E035
:101160007DD360939C0104C080919C018823B9F2D7
:10117000DF91CF910895CF93DF93EC01809124010B
:10118000823030F080919F019091A001892B21F451
:1011900080919E018F3F71F48091A101882351F4C9
:1011A0000DC081E055DFCE0162E370E057D360935C
:1011B0009C0104C080919C01882399F3DF91CF9119
:1011C0000895809326016093250108951F920F9240
:1011D0000FB60F9211245F980F900FBE0F901F90C3
:1011E00018952A989EBD0DB407FEFDCF8EBD0DB497
:1011F00007FEFDCF2A9A08952A989EBD0DB407FEDA
:10120000FDCF3EB58EBD0DB407FEFDCF2EB5932F9D
:1012100080E02A9A30E0282B392BC90108952A98BA
:101220001EBC0DB407FEFDCF2A9A8EB508952A98EC
:101230008EBD0DB407FEFDCF6EBD0DB407FEFDCF14
:101240002A9A08952A9880EB8EBD0DB407FEFDCF33
:101250001EBC0DB407FEFDCF2A9A8EB50895239AC1
:10126000259A229A249881E58CBD08951F93D7DF93
:1012700087FF7CC08091CD018130E9F0813020F082
:10128000823009F06BC052C011E01093D001DADF58
:10129000982F8093D7019D5F9093CF019350E09159
:1012A000D101F091D2018081882309F057C01093B9
:1012B000CD0191835BC09091D0018091CF019817AF
:1012C000D8F4C0DF9091D70198279093D70120914F
:1012D000D0012D3038F4E091D101F091D201E20F2C
:1012E000F11D81838091D001823011F49F3FB1F5CF
:1012F0008F5F8093D0013AC0E091D101F091D2018B
:1013000082E080838091D50190E001968170907099
:10131000282F8093D5018EE0289F900111242F540F
:101320003E4F3093D2012093D10118C09091D0014B
:101330008091CF01981750F4E92FF0E0EE55FE4F61
:1013400060819F5F9093D00188EB0FC01092CE0117
:1013500081E892E846DF88EB6AEA69DF1092CD0106
:101360008AEC61E864DF8AEC63E861DF1F9108952D
:101370008091CD01882369F580E090E03DDF90FF0A
:1013800004C088EC80932701089580912701815043
:10139000809327018823E9F481E0809327018091DD
:1013A000CE018130B1F481E092E81BDF8091A4018D
:1013B0008A5F8093CF011092D00182E08093CD01AB
:1013C0008AEA98EB0EDF8AEA98EB0BDF81E292E87B
:1013D00008DF0895982F8091CE01882311F083E0D3
:1013E00008956093A4019093A50169276095609387
:1013F000A60181E08093CE0180E80895E091D301B9
:10140000F091D40110828091D60190E00196817014
:101410009070282F8093D6018EE0289F9001112490
:101420002F543E4F3093D4012093D30108952A9A2C
:10143000229A15DF87EE90E8D4DE81E092E8D1DED3
:1014400080E496EACEDE8EE996ECCBDE8CE294E97F
:10145000C8DE8BEA92ECC5DE81E89AECC2DE87EF4B
:1014600094ECBFDE80E798E9BCDE80E098ECB9DE62
:1014700080E090EEB6DE8DE28093A20184ED809351
:10148000A30181EB91E09093D4018093D3019093D9
:10149000D2018093D10181E892E8A3DEE9E6F0E091
:1014A00080818860808380E090E0A6DEE19A81E818
:1014B0009AEC97DE83E89AEC94DE08950F931F93DD
:1014C000182F062F8B3010F082E010C08091CE01D3
:1014D000882311F083E00AC027EA31E0C901BA018C
:1014E000412F50E0CED1802F612F74DF1F910F91DB
:1014F0000895282F823009F1833020F4813009F0DB
:1015000077C006C08330A9F1843009F071C051C0A2
:101510008FEF8093D801809141018093D901809110
:1015200042018093DA01809143018093DB018CE0DA
:101530008093DC012093DD0136C08FEF8093D801CA
:10154000862F90E0FC01EE0FFF1FE80FF91FEE5C05
:10155000FE4F80818093D90181818093DA0182815D
:101560008093DB018DE08093DC0181E08093DD01DD
:101570001AC08FEF8093D801862F90E0FC01EE0F08
:10158000FF1FE80FF91FEE5CFE4F80818093D901A9
:1015900081818093DA0182818093DB018AE08093EC
:1015A000DC014093DD0186E060E048ED51E086DF3C
:1015B00008958FEF8093D801862F90E0FC01EE0F05
:1015C000FF1FE80FF91FEE5CFE4F80818093D90169
:1015D00081818093DA0182818093DB018BE08093AB
:1015E000DC014093DD0186E060E048ED51E066DF1C
:1015F0000895CF93DF93EC0188818F3F09F017C1E5
:101600008C81853008F013C1843009F056C0809178
:10161000E101813009F051C01092E101809159013E
:10162000813021F41092580110925701909141019C
:101630008981891709F041C0909142018A818917F7
:10164000E1F5909143018B818917B9F560912801EB
:101650008CE018D780912801819580932801E09132
:101660004401F0E08D81EF5FFE4F80838091440163
:1016700090E020914101FC01EE0FFF1FE80FF91FE0
:10168000EE5CFE4F20838091440190E02091420166
:10169000FC01EE0FFF1FE80FF91FEE5CFE4F2183E8
:1016A0008091440190E020914301FC01EE0FFF1F67
:1016B000E80FF91FEE5CFE4F22831092E0011092BA
:1016C000DF0134C08091DF019091E001FC01EE0F59
:1016D000FF1FE80FF91FEE5CFE4F9081898189178B
:1016E00009F09BC08091DF019091E001FC01EE0FB9
:1016F000FF1FE80FF91FEE5CFE4F91818A81891769
:1017000009F08BC08091DF019091E001FC01EE0FA8
:10171000FF1FE80FF91FEE5CFE4F92818B81891746
:1017200009F07BC081E08093DE0106C08091DF017B
:101730009091E001049734F28091DE01882309F44E
:1017400069C02C81223009F44EC0233021F02130B1
:1017500009F060C011C0E091DF01F091E0018D81DE
:10176000EF5FFE4F8083E091DF01F091E001EF5ADF
:10177000FE4F81E080834EC0E091DF01F091E001F7
:10178000EE0FFF1FEB5BFE4F81E090E091838083C3
:10179000E091DF01F091E0018D81E35BFE4F8083FA
:1017A000E091DF01F091E001E35BFE4F8081837007
:1017B00080838D8190E095958795959587958D830C
:1017C00080939D01E091DF01F091E001E35BFE4F2A
:1017D0008081813021F482E390E053DC1BC082E3FE
:1017E00090E087DC17C08D81813021F48FEF8093EA
:1017F000860110C02093860180E060E043D681E03E
:1018000060E040D682E060E03DD683E060E03AD61A
:1018100080E01EDC1092DE010AC08091DF01909111
:10182000E00101969093E0018093DF017FCFDF918B
:10183000CF910895AA1BBB1B51E107C0AA1FBB1F74
:10184000A617B70710F0A61BB70B881F991F5A954C
:10185000A9F780959095BC01CD01089597FB092EBD
:1018600007260AD077FD04D0E5DF06D000201AF461
:10187000709561957F4F0895F6F7909581959F4FEC
:101880000895FB01DC0102C001900D9241505040CF
:08189000D8F70895F894FFCF8A
:10189800FF070707070106640C0F12150D10131632
:1018A8000E11141702FFFFFF0F1E3C505A5A6E8C80
:0A18B800A0B4C8FA01645A10FF0042
:00000001FF
