:1000000021C03BC07DC386C338C017C436C030C7CB
:1000100035C833C032C031C030C02FC0CAC42DC0B3
:100020002CC02BC02AC029C028C031C026C025C082
:1000300024C023C022C22EC243C258C274C290C27E
:10004000A5C2B9C211241FBECFEFD4E0DEBFCDBF21
:1000500011E0A0E0B1E0E2EDF6E102C005900D9202
:10006000AA32B107D9F712E0AAE2B1E001C01D92AD
:10007000A331B107E1F775D02ACBC2CFEAE7F0E0B0
:1000800080818660808380818062808308951F9252
:100090000F920FB60F9211242F933F934F938F938C
:1000A0009F93EF93FF93E0912E0120917800409170
:1000B0007900942F80E030E0822B932B90932D01D8
:1000C00080932C0180912C0190912D018170907072
:1000D00090932D0180932C0180912F0190913001FC
:1000E000880F991F9093300180932F0120912F0149
:1000F0003091300180912C0190912D01822B932B16
:100100009093300180932F0180912E01877087306A
:1001100089F480912F0190913001892B59F08091C1
:100120002F0190913001E695E695E695F0E0EA5AC8
:10013000FE4F808380912E018F5F80932E018091EE
:100140002E01883110F010922E01FF91EF919F91B6
:100150008F914F913F912F910F900FBE0F901F9055
:100160001895CF93DF9380917A00866080937A0010
:1001700080917A00806280937A0027D1EAD20BD4F2
:10018000B5D8D0D6789409D323D381E001D180911A
:10019000800190918101892B11F41AD314C0E09150
:1001A0000402F09105028081823069F49F012C5F86
:1001B0003F4F30932B0120932A018181882311F036
:1001C000C90176D97AD880915501813009F09DC056
:1001D00080911401813051F0823089F08823C1F47C
:1001E00084E061E038D185E060E005C084E060E053
:1001F00032D185E061E02FD186E060E008C084E084
:1002000060E029D185E060E026D186E061E023D17D
:10021000809140018130F9F0813030F08230A9F1D5
:10022000833009F06CC04EC0209115013091160149
:10023000E0914001F0E0EF5FFE4F808190E0829F0F
:10024000B001839F700D929F700D112480E003D147
:1002500081E060E016C080E060E0FDD020911501F3
:1002600030911601E0914001F0E0EF5FFE4F808198
:1002700090E0829FB001839F700D929F700D1124BA
:1002800081E0E9D082E060E019C080E060E0E3D086
:1002900081E060E0E0D02091150130911601E091FD
:1002A0004001F0E0EF5FFE4F808190E0829FB0015F
:1002B000839F700D929F700D112482E0CCD083E05B
:1002C00060E01CC080E060E0C6D081E060E0C3D0A8
:1002D00082E060E0C0D02091150130911601E091DC
:1002E0004001F0E0EF5FFE4F808190E0829FB0011F
:1002F000839F700D929F700D112483E0ACD06091AC
:100300001501709116018AE03DC084E060E0A3D041
:1003100085E060E0A0D086E060E09DD08091820121
:10032000813021F58BE060E096D08CE060E093D0E6
:1003300089E061E090D0C0E0D0E0FE01E35BFE4FD9
:100340008081882359F080911701FE01EF5FFE4FF5
:100350006081689F602D11248C2F02C08C2F60E07B
:100360007AD02196C430D10541F703C089E060E01E
:1003700072D080918201823019F487E061E002C07E
:1003800087E060E068D0F894D0D651D77894FDCE5D
:10039000882399F0419A80E197E20197F1F78091E3
:1003A0000701853608F084E6809307012091070154
:1003B0008FEF90E0821B910903C041988FEF90E08E
:1003C0009093890080938800089580E0E1DFA0E0A9
:1003D000B0E0FD01E25AFE4F10821196A432B10541
:1003E000C1F73B9A8C9182608C933C9A3D9A399AE2
:1003F00081E0CEDF809180008968809380008091C9
:10040000810083608093810008959091060181E1CD
:10041000989F902D1124953608F094E6909307014B
:10042000209107018FEF90E0821B91099093890042
:10043000809388000895853608F084E6809307014C
:10044000209107018FEF90E0821B91099093890022
:1004500080938800089567FD60E0843008F0C8C08C
:10046000E62FFF27E7FDF095E830F10508F026C1FB
:10047000E65EFF4F282F30E00994285F3E4FF901D8
:100480008081AFE1B0E0FD01E81BF109E25AFE4FC7
:1004900010820DC0285F3E4FF9018081AFE1B0E0CE
:1004A000FD01E81BF109E25AFE4F81E08083F9016A
:1004B0008481FD01E81BF109E25AFE4F108248C019
:1004C000285F3E4FF9018081AFE1B0E0FD01E81BFC
:1004D000F109E25AFE4F1082F9018481FD01E81B07
:1004E000F109E25AFE4F81E0808332C0285F3E4F1F
:1004F000F9018081AFE1B0E0FD01E81BF109E25AAA
:10050000FE4F1082F9018481FD01E81BF109E25AD6
:10051000FE4F1082F9018085A81BB109A25ABE4F77
:1005200081E08C930895285F3E4FF9018081AFE10F
:10053000B0E0FD01E81BF109E25AFE4F91E0908323
:10054000F9018481FD01E81BF109E25AFE4F908315
:10055000F9018085A81BB109A25ABE4F1C920895CB
:10056000285F3E4FF9018081AFE1B0E0FD01E81B5B
:10057000F109E25AFE4F91E09083F9018481FD0177
:10058000E81BF109E25AFE4F10822AC0285F3E4F55
:10059000F9018081AFE1B0E0FD01E81BF109E25A09
:1005A000FE4F1082F9018481FD01E81BF109E25A36
:1005B000FE4F91E014C0285F3E4FF9018081AFE10A
:1005C000B0E0FD01E81BF109E25AFE4F91E0908393
:1005D000F9018481FD01E81BF109E25AFE4F908385
:1005E000F9018085A81BB109A25ABE4F9C930895BA
:1005F000843049F4662321F081E0809373010895EB
:10060000109273010895853049F4662321F081E04A
:10061000809374010895109274010895863049F40E
:10062000662321F081E08093750108951092750191
:100630000895873049F4662321F081E080937C019E
:10064000089510927C010895883049F4662321F0C2
:1006500081E080937B01089510927B010895893099
:1006600049F4662321F081E080937A010895109285
:100670007A0108958A3069F4662331F081E080932D
:100680007801809379010895109278011092790190
:1006900008958B3049F4662321F081E08093640152
:1006A00008951092640108958C3041F4662321F07E
:1006B00081E080936501089510926501089520E01E
:1006C00030E0F901E25AFE4F8081813011F4439A03
:1006D00001C04398449A44982F5F3F4F243231051C
:1006E00081F7459A4598089580E090E0FC01E25A30
:1006F000FE4F1082019684329105C1F7E0DF089524
:100700001F920F920FB60F9211240F900FBE0F90F1
:100710001F9018951F920F920FB60F9211242F93CE
:100720003F938F939F9320E23EE4C9010197F1F735
:100730001E9906C0C9010197F1F781E080937F01FE
:100740009F918F913F912F910F900FBE0F901F900F
:10075000189553985B9A54985C9A26982E9A5698B6
:100760005E9A55985D9A5098589A5198599AE8E629
:10077000F0E0808185608083EBE6F0E0808180643A
:100780008083EDE6F0E080818B67808381E090E0FC
:100790009093810180938001089583B78E7F83BFFA
:1007A00089E061E058DE81E090E0909381018093E0
:1007B0008001E998E8E6F0E08081856080837894A4
:1007C000109282011092550182E0809314010895E5
:1007D000F894809168008A7F80936800E99A10926B
:1007E00081011092800180E0D3DD4B9BFECF83B767
:1007F000856083BF83B7816083BF78948895CDDFA0
:1008000088EE93E028EC30E0F9013197F1F7019799
:10081000D9F74B9B05C01092810110928001089579
:1008200081E0B6DD80E197E20197F1F781E090E0A9
:10083000909381018093800108951F920F920FB6CB
:100840000F9211242F933F934F935F936F937F9356
:100850008F939F93AF93BF93EF93FF9380EA9FE0B3
:100860000197F1F789B18B778B3709F483C04B99E6
:1008700007C080915501882319F481E080937E019F
:100880004E9921C01092540110925301809155014C
:10089000813009F06EC080911401813051F08230B6
:1008A00069F0882309F065C06091400183E041E36D
:1008B00027C06091400183E041E222C06091400185
:1008C00083E041E11DC04D9922C010925401109265
:1008D000530180915501813009F04BC08091140182
:1008E000813051F0823071F0882309F042C060916C
:1008F000400183E042E304C06091400183E042E2B2
:1009000057D537C06091400183E042E1F9CF489963
:1009100014C080915501813061F5109254011092FC
:10092000530180911401815080931401809114012E
:1009300087FF1FC0109214011CC0499915C08091F7
:1009400055018130B1F410925401109253018091FD
:1009500014018F5F809314018091140183304CF057
:1009600082E08093140105C04C9903C081E080931C
:100970008401A5DEFF91EF91BF91AF919F918F917F
:100980007F916F915F914F913F912F910F900FBE8B
:100990000F901F90189584B5826084BD85B58560E1
:1009A00085BDEEE6F0E08081826080838FEF87BDB9
:1009B00008951F920F920FB60F9211242F933F9319
:1009C0004F935F936F937F938F939F93AF93BF9357
:1009D000CF93DF93EF93FF9380918E01873039F4AB
:1009E0008091170181958093170110928E0180915B
:1009F00084018823D1F04C9906C0809184018F5FD7
:100A00008093840112C01092840184E060E042E08F
:100A1000CFD484E061E042E0CBD484E062E042E005
:100A2000C7D484E063E042E0C3D480917E01882390
:100A300031F14B9906C080917E018F5F80937E01DA
:100A40001EC010927E01809155018823C1F48091CF
:100A500082018F5F809382018091820184301CF03B
:100A600081E08093820180E060E0F5DC81E060E07D
:100A7000F2DC82E060E0EFDC83E060E0ECDC8091BF
:100A80007F0118160CF046C080917A008860809330
:100A90007A0080917A00806880937A0080917A0051
:100AA000806480937A001E9906C080917F018F5FD9
:100AB00080937F012FC010927F018091550181307A
:100AC000F9F4809140018F5F8093400110925401AE
:100AD0001092530180914001843010F01092400137
:100AE0008091560180933D018091570180933E0192
:100AF0008091580180933F0181E0809312020AC0E7
:100B000080917A00877F80937A0080917A008F7736
:100B100080937A00809184018E3191F41092840147
:100B200084E060E041E044D484E061E041E040D40E
:100B300084E062E041E03CD484E063E041E038D40A
:100B400080917E018E3139F410927E0110928101E4
:100B50001092800106C081E090E090938101809323
:100B6000800180917F018E3109F054C010927F0185
:100B700080915501882389F51092540110925301F8
:100B8000109240018091560180933D018091570160
:100B900080933E018091580180933F0181E08093D2
:100BA00012028093550182E080931401C0E0D0E0EE
:100BB000FE01EE0FFF1FEF5BFE4F118210828BE0F4
:100BC00060E049DC8CE060E046DC8C2F60E043DCD8
:100BD0002196C430D10561F71DC0109255011092C5
:100BE000120280E060E037DC81E060E034DC82E02B
:100BF00060E031DC83E060E02EDC8AE060E02BDC4A
:100C000080917A00877F80937A0080917A008F7735
:100C100080937A0080918A0190918B010F97B9F4AB
:100C200080915501813079F48091150190911601E0
:100C3000909581959F4F909316018093150181E0C7
:100C400060E040E0B5D310928B0110928A01809150
:100C5000530190915401845F914009F580915501B1
:100C60008130E9F4109255011092120280E060E0A8
:100C7000F2DB81E060E0EFDB82E060E0ECDB83E070
:100C800060E0E9DB8AE060E0E6DB80917A00877F64
:100C900080937A0080917A008F7780937A00809198
:100CA0008C01873009F057C08091820182300CF4AA
:100CB00050C080915501882309F04BC0C0E0D0E0BE
:100CC000FE01EE0FFF1FEF5BFE4F80819181C29707
:100CD00058F0118210828BE060E0BDDB8CE060E0B8
:100CE000BADB8C2F60E0B7DBFE01EE0FFF1FEF5B7E
:100CF000FE4F80819181892B39F180911701FE018E
:100D0000EF5FFE4F6081689F602D11248C2FA3DB65
:100D1000FE01E75BFE4F8081813031F48BE061E0C2
:100D20009ADB8CE060E005C08BE060E094DB8CE057
:100D300061E091DBFE01EE0FFF1FEF5BFE4F808154
:100D400091810196918380832196C430D10509F069
:100D5000B7CF10928C0180918501909186010F97F9
:100D6000E1F4809182018130A1F4809155018823C2
:100D700081F480918D01843010F010928D0160918A
:100D80008D0182E040E014D380918D018F5F8093CC
:100D90008D01109286011092850120E030E0F9016A
:100DA000E35BFE4F8081882319F080818F5F808311
:100DB000F901E35BFE4F8081803508F010822F5FE0
:100DC0003F4F2430310559F78091510190915201E4
:100DD0000196909352018093510180918C018F5F15
:100DE00080938C016CDC8091850190918601019645
:100DF000909386018093850180918801909189016B
:100E00000196909389018093880180918A01909145
:100E10008B01019690938B0180938A0180918E01C2
:100E20008F5F80938E0180915301909154010196C0
:100E3000909354018093530180918F019091900180
:100E400001969093900180938F01FF91EF91DF9134
:100E5000CF91BF91AF919F918F917F916F915F9152
:100E60004F913F912F910F900FBE0F901F901895AB
:100E70001F920F920FB60F9211242F933F934F930F
:100E80005F936F937F938F939F93AF93BF93DF9302
:100E9000CF9300D0CDB7DEB780912501869590E045
:100EA0009A83898329813A818091260190E0AC015F
:100EB000429FC001439F900D529F900D11249A8331
:100EC000898389819A8164E670E0D1D37A836983CA
:100ED0002091B30089819A812091B30089819A8100
:100EE000280F2093B4008091B300209125019091A8
:100EF000B30080912501890F8093B3005F9A0F9012
:100F00000F90CF91DF91BF91AF919F918F917F9182
:100F10006F915F914F913F912F910F900FBE0F9066
:100F20001F901895579AE0E7F0E0808186608083F3
:100F300081E08093B30082E08093B4000895282F6D
:100F400018161CF58091940190919501892B21F43C
:100F50008091930187FF04C0809196018823A9F0B6
:100F60008091B10084608093B10008958091B100B8
:100F70008B7F8093B1005F981092B20081E08093E4
:100F8000B30082E08093B4000895222379F308959A
:100F9000CF93DF93EC0180912401823070F0809137
:100FA000940190919501892B21F48091930187FF01
:100FB0001EC0809196018823D1F4E0919201F0E067
:100FC000E35EFE4F808180932501E0919301FF272E
:100FD000E7FDF095E85EFE4F80818093260181E079
:100FE000AEDFCE0162E370E056D360939101DF91F2
:100FF000CF910895CF93DF93EC018091240182304B
:1010000080F18091940190919501892B21F4809138
:10101000930187FF2BC080919601882339F521C069
:10102000E0919201F0E0E25EFE4F05C0E091920196
:10103000F0E0E45EFE4F808180932501E091930112
:10104000FF27E7FDF095E85EFE4F80818093260143
:1010500081E075DFCE0162E370E01DD36093910102
:1010600005C0809192018823D9F2E0CFDF91CF9122
:101070000895809326016093250108951F920F9291
:101080000FB60F9211245F980F900FBE0F901F9014
:1010900018952A989EBD0DB407FEFDCF8EBD0DB4E8
:1010A00007FEFDCF2A9A08952A989EBD0DB407FE2B
:1010B000FDCF3EB58EBD0DB407FEFDCF2EB5932FEF
:1010C00080E02A9A30E0282B392BC90108952A980C
:1010D0001EBC0DB407FEFDCF2A9A8EB508952A983E
:1010E0008EBD0DB407FEFDCF6EBD0DB407FEFDCF66
:1010F0002A9A08952A9880EB8EBD0DB407FEFDCF85
:101100001EBC0DB407FEFDCF2A9A8EB50895239A12
:10111000259A229A249881E58CBD089583EA96EC5D
:10112000B8DF0895906AB5DF08951F93D0DF87FF79
:101130007CC08091FE018130E9F0813020F0823066
:1011400009F06BC052C011E010930102D3DF982F59
:10115000809308029D5F909300029350E0910202F9
:10116000F09103028081882309F057C01093FE019B
:1011700091835BC090910102809100029817D8F48E
:10118000B9DF9091080298279093080220910102FC
:10119000213238F4E0910202F0910302E20FF11DD6
:1011A000818380910102823011F49F3FB1F58F5FFE
:1011B000809301023AC0E0910202F091030282E0C2
:1011C00080838091060290E0019681709070282FB4
:1011D0008093060282E2289F9001112426543E4FFC
:1011E000309303022093020218C090910102809173
:1011F0000002981750F4E92FF0E0E956FE4F6081A5
:101200009F5F9093010288EB0FC01092FF0181E86D
:1012100092E83FDF88EB6AEA62DF1092FE018AEC17
:1012200061E85DDF8AEC63E85ADF1F9108958091E1
:10123000FE01882369F580E090E036DF90FF04C06E
:1012400088EC809327010895809127018150809335
:1012500027018823E9F481E0809327018091FF0131
:101260008130B1F481E092E814DF809199018A5FC6
:10127000809300021092010282E08093FE018AEACC
:1012800098EB07DF8AEA98EB04DF81E292E801DF5E
:101290000895982F8091FF01882311F083E008952D
:1012A0006093990190939A016927609560939B01DF
:1012B00081E08093FF0180E80895E0910402F091BD
:1012C000050210828091070290E001968170907073
:1012D000282F8093070282E2289F90011124265430
:1012E0003E4F309305022093040208952A9A229AD1
:1012F0000EDF87EE90E8CDDE81E092E8CADE80E482
:1013000096EAC7DE83EA96ECC4DE8CE294E9C1DE9D
:101310008BEA92ECBEDE81E89AECBBDE87EF94ECC0
:10132000B8DE80E798E9B5DE80E098ECB2DE80E0D8
:1013300090EEAFDE8DE28093970184ED809398016B
:101340008AEB91E09093050280930402909303024C
:101350008093020281E892E89CDEE9E6F0E0808179
:101360008860808380E090E09FDEE19A81E89AECDB
:1013700090DE83E89AEC8DDE08950F931F93182F6B
:10138000062F8F3110F082E010C08091FF0188237A
:1013900011F083E00AC02CE931E0C901BA01412F04
:1013A00050E08CD1802F612F74DF1F910F91089531
:1013B000282F823009F1833020F4813009F077C082
:1013C00006C08330A9F1843009F071C051C08FEF9D
:1013D0008093090280913D0180930A0280913E0131
:1013E00080930B0280913F0180930C028CE08093EC
:1013F0000D0220930E0236C08FEF80930902862FD4
:1014000090E0FC01EE0FFF1FE80FF91FEF5CFE4FAD
:10141000808180930A02818180930B028281809374
:101420000C028DE080930D0281E080930E021AC0C1
:101430008FEF80930902862F90E0FC01EE0FFF1FD3
:10144000E80FF91FEF5CFE4F808180930A028181D3
:1014500080930B02828180930C028AE080930D02BC
:1014600040930E0286E060E049E052E086DF089596
:101470008FEF80930902862F90E0FC01EE0FFF1F93
:10148000E80FF91FEF5CFE4F808180930A02818193
:1014900080930B02828180930C028BE080930D027B
:1014A00040930E0286E060E049E052E066DF089576
:1014B000CF93DF93EC0188818F3F09F0D5C08C81F9
:1014C000853008F0D1C0843009F056C080911202F6
:1014D000813009F051C01092120280915501813083
:1014E00021F4109254011092530190913D01898191
:1014F000891709F041C090913E018A818917E1F571
:1015000090913F018B818917B9F5609128018CE09A
:10151000A2D780912801819580932801E091400114
:10152000F0E08D81EF5FFE4F80838091400190E07D
:1015300020913D01FC01EE0FFF1FE80FF91FEF5C4A
:10154000FE4F20838091400190E020913E01FC01FC
:10155000EE0FFF1FE80FF91FEF5CFE4F2183809114
:10156000400190E020913F01FC01EE0FFF1FE80FCA
:10157000F91FEF5CFE4F22831092110210921002AD
:1015800033C08091100290911102FC01EE0FFF1FF9
:10159000E80FF91FEF5CFE4F90818981891709F0F0
:1015A00059C08091100290911102FC01EE0FFF1FB3
:1015B000E80FF91FEF5CFE4F91818A81891709F0CE
:1015C00049C08091100290911102FC01EE0FFF1FA3
:1015D000E80FF91FEF5CFE4F92818B818917D1F5DF
:1015E00081E080930F0206C0809110029091110259
:1015F00004973CF280910F02882349F18C8181305D
:1016000091F0833021F5E0911002F09111028D816B
:10161000EF5FFE4F8083E0911002F0911102E35BD7
:10162000FE4F81E013C0E0911002F0911102EE0F25
:10163000FF1FEF5BFE4F81E090E091838083E0919C
:101640001002F09111028D81E75BFE4F80831092B2
:101650000F020AC08091100290911102019690939E
:10166000110280931002C0CFDF91CF910895AA1B81
:10167000BB1B51E107C0AA1FBB1FA617B70710F07D
:10168000A61BB70B881F991F5A95A9F780959095AF
:10169000BC01CD01089597FB092E07260AD077FDDE
:1016A00004D0E5DF06D000201AF4709561957F4FD5
:1016B0000895F6F7909581959F4F0895FB01DC0101
:1016C00002C001900D9241505040D8F70895F8940F
:0216D000FFCF4A
:1016D200FF070707070106640C0F12150D101316FA
:1016E2000E11141702FFFFFF0F1E3C505A646E7852
:0A16F2008C96A0B401645A10FF00AA
:00000001FF
