:1000000021C03BC00AC477C338C040C436C0A1C6B3
:10001000A6C733C032C031C030C02FC0F2C42DC01B
:100020002CC02BC02AC029C028C03AC026C025C079
:1000300024C023C012C21EC233C248C264C280C2DE
:1000400095C2A9C211241FBECFEFD4E0DEBFCDBF41
:1000500011E0A0E0B1E0E4EAF5E102C005900D9204
:10006000AA32B107D9F712E0AAE2B1E001C01D92AD
:10007000A830B107E1F750D093CAC2CFEAE7F0E069
:1000800080818760808380818068808380818062B6
:1000900080838081886080838081806480830895EC
:1000A0001F920F920FB60F9211242F936F937F938D
:1000B0008F939F93EF93FF938091540162E027DA2F
:1000C000E82FFF27E7FDF095EF5AFE4F8081992733
:1000D00087FD9095880F991F8083208180917800FB
:1000E000909179008170282B2083809154018F5F3B
:1000F0008093540180915401863014F01092540181
:10010000FF91EF919F918F917F916F912F910F9020
:100110000FBE0F901F901895CF93DF9346D10AD34F
:1001200062D44ED878942AD33BD381E01CD18091FD
:10013000780190917901892B11F432D321C0E0919B
:10014000F901F091FA0180818230D1F460910001CF
:100150008BE071D180910001819580930001E09145
:10016000F901F091FA019F012C5F3F4F30932B0171
:1001700020932A018181882311F0C901E1D807D891
:1001800080915001813009F068C080911401813064
:1001900051F0823089F08823C1F484E061E04BD1D2
:1001A00085E060E005C084E060E045D185E061E085
:1001B00042D186E060E008C084E060E03CD185E0A8
:1001C00060E039D186E061E036D180913B01813039
:1001D00099F0813030F08230E9F0833009F0AEC020
:1001E0002BC0E0913B01F0E0EF5FFE4F608180E0CB
:1001F00022D181E060E00AC080E060E01CD1E091A3
:100200003B01F0E0EF5FFE4F608181E014D182E0BE
:1002100060E00DC080E060E00ED181E060E00BD1D5
:10022000E0913B01F0E0EF5FFE4F608182E003D19F
:1002300083E060E000D182C080E060E0FCD081E03B
:1002400060E0F9D082E060E0F6D0E0913B01F0E0C0
:10025000EF5FFE4F608183E0EDCF84E060E0EBD0A4
:1002600085E060E0E8D086E060E0E5D080917A014A
:10027000813039F58BE060E0DED08CE060E0DBD0EF
:1002800089E061E0D8D087E060E0D5D0C0E0D0E080
:10029000FE01E85BFE4F8081882359F080911701B1
:1002A000FE01EF5FFE4F6081689F602D11248C2F4F
:1002B00002C08C2F60E0BFD02196C430D10541F739
:1002C00003C089E060E0B7D080917A018230B4F158
:1002D00080917A01823019F487E061E002C087E002
:1002E00060E0A9D0C0E0D0E0FE01EE0FFF1FE45CAB
:1002F000FE4F80819181892BE9F080911701FE01E9
:10030000EF5FFE4F6081689F602D11248C2F93D08A
:10031000FE01EC5BFE4F8081813031F48BE061E0C7
:100320008AD08CE060E005C08BE060E084D08CE097
:1003300061E081D02196C430D105B1F680915001A1
:100340002091150130911601992787FD9095829F84
:10035000B001839F700D929F700D11248AE06BD0C5
:100360004ED6CFD6E2CE8823C1F0419A84EF91E0F9
:1003700028EC30E0F9013197F1F70197D9F7809136
:100380000701853608F084E6809307012091070174
:100390008FEF90E0821B910903C041988FEF90E0AE
:1003A0009093890080938800089580E0DCDFA0E0CE
:1003B000B0E0FD01EA5AFE4F10821196A432B10559
:1003C000C1F73B9A8C9182608C933C9A3D9A399A02
:1003D00081E0C9DF809180008968809380008091EE
:1003E000810083608093810008959091060181E1EE
:1003F000989F902D1124953608F094E6909307016C
:10040000209107018FEF90E0821B91099093890062
:10041000809388000895853608F084E6809307016C
:10042000209107018FEF90E0821B91099093890042
:1004300080938800089567FD60E0843008F0C8C0AC
:10044000E62FFF27E7FDF095E830F10508F026C11B
:10045000E65EFF4F282F30E00994285F3E4FF901F8
:100460008081AFE1B0E0FD01E81BF109EA5AFE4FDF
:1004700010820DC0285F3E4FF9018081AFE1B0E0EE
:10048000FD01E81BF109EA5AFE4F81E08083F90182
:100490008481FD01E81BF109EA5AFE4F108248C031
:1004A000285F3E4FF9018081AFE1B0E0FD01E81B1C
:1004B000F109EA5AFE4F1082F9018481FD01E81B1F
:1004C000F109EA5AFE4F81E0808332C0285F3E4F37
:1004D000F9018081AFE1B0E0FD01E81BF109EA5AC2
:1004E000FE4F1082F9018481FD01E81BF109EA5AEF
:1004F000FE4F1082F9018085A81BB109AA5ABE4F90
:1005000081E08C930895285F3E4FF9018081AFE12F
:10051000B0E0FD01E81BF109EA5AFE4F91E090833B
:10052000F9018481FD01E81BF109EA5AFE4F90832D
:10053000F9018085A81BB109AA5ABE4F1C920895E3
:10054000285F3E4FF9018081AFE1B0E0FD01E81B7B
:10055000F109EA5AFE4F91E09083F9018481FD018F
:10056000E81BF109EA5AFE4F10822AC0285F3E4F6D
:10057000F9018081AFE1B0E0FD01E81BF109EA5A21
:10058000FE4F1082F9018481FD01E81BF109EA5A4E
:10059000FE4F91E014C0285F3E4FF9018081AFE12A
:1005A000B0E0FD01E81BF109EA5AFE4F91E09083AB
:1005B000F9018481FD01E81BF109EA5AFE4F90839D
:1005C000F9018085A81BB109AA5ABE4F9C930895D2
:1005D000843049F4662321F081E080936B01089513
:1005E00010926B010895853049F4662321F081E073
:1005F00080936C01089510926C010895863049F43F
:10060000662321F081E080936D01089510926D01C1
:100610000895873049F4662321F081E080937401C6
:100620000895109274010895883049F4662321F0EA
:1006300081E08093730108951092730108958930C9
:1006400049F4662321F081E08093720108951092AD
:10065000720108958A3069F4662331F081E0809355
:1006600070018093710108951092700110927101D0
:1006700008958B3049F4662321F081E080935C017A
:10068000089510925C0108958C3041F4662321F0A6
:1006900081E080935D01089510925D01089520E04E
:1006A00030E0F901EA5AFE4F8081813011F4439A1B
:1006B00001C04398449A44982F5F3F4F243231053C
:1006C00081F7459A4598089580E090E0FC01EA5A48
:1006D000FE4F1082019684329105C1F7E0DF089544
:1006E00080E090E0FC01EA5AFE4F108201968432CD
:1006F0009105C1F708951F920F920FB60F92112422
:100700002F933F938F939F9320E23EE4C90101977B
:10071000F1F71E9906C0C9010197F1F781E08093B6
:1007200077019F918F913F912F910F900FBE0F9066
:100730001F90189553985B9A54985C9A26982E9A15
:1007400056985E9A55985D9A5098589A5198599A29
:10075000E8E6F0E0808185608083EBE6F0E0808170
:1007600080648083EDE6F0E080818B67808381E0A8
:1007700090E09093790180937801089583B78E7FFC
:1007800083BF81E090E09093790180937801E998AC
:1007900010927A011092500182E080931401089522
:1007A0008BE061E048DE88EE93E028EC30E0F90170
:1007B0003197F1F70197D9F78BE060E03CDE88EEE6
:1007C00093E028EC30E0F9013197F1F70197D9F780
:1007D00088EE93E028EC30E0F9013197F1F70197CA
:1007E000D9F7809168008A7F80936800E99A8091A8
:1007F0006900837F8093690067DF80E0B4DD88E86B
:1008000093E128EC30E0F9013197F1F70197D9F73E
:1008100083B7856083BF889508951F920F920FB6A6
:100820000F9211242F933F934F935F936F937F9376
:100830008F939F93AF93BF93EF93FF939FDF81E0DD
:1008400092DD88E893E128EC30E0F9013197F1F787
:100850000197D9F74B9B04C010927901109278014F
:1008600080916800856080936800FF91EF91BF914F
:10087000AF919F918F917F916F915F914F913F9138
:100880002F910F900FBE0F901F9018951F920F92EF
:100890000FB60F9211242F933F934F935F936F9353
:1008A0007F938F939F93AF93BF93EF93FF9380E2D8
:1008B0009EE40197F1F780EA9FE00197F1F789B193
:1008C0008B778B3709F47EC04B9907C0809150011C
:1008D000882319F481E0809376014E9921C010920B
:1008E0004F0110924E0180915001813009F069C092
:1008F00080911401813051F0823069F0882309F031
:1009000060C060913B0183E041E326C060913B0100
:1009100083E041E221C060913B0183E041E11CC0E2
:100920004D9921C010924F0110924E0180915001BB
:10093000813009F046C080911401813049F0823045
:1009400069F08823F1F560913B0183E042E304C044
:1009500060913B0183E042E295D433C060913B015A
:1009600083E042E1F9CF489914C080915001813071
:1009700041F510924F0110924E0180911401815067
:10098000809314018091140187FF1BC01092140101
:1009900018C0499915C080915001813091F410928E
:1009A0004F0110924E01809114018F5F80931401CA
:1009B0008091140183302CF082E08093140101C0F7
:1009C00089B16DDEFF91EF91BF91AF919F918F91B2
:1009D0007F916F915F914F913F912F910F900FBE3B
:1009E0000F901F90189584B5826084BD85B5856091
:1009F00085BDEEE6F0E08081826080838FEF87BD69
:100A000008951F920F920FB60F9211242F933F93C8
:100A10004F935F936F937F938F939F93AF93BF9306
:100A2000CF93DF93EF93FF9380918501873039F463
:100A30008091170181958093170110928501809113
:100A40007601882331F14B9906C0809176018F5F42
:100A5000809376011EC01092760180915001882308
:100A6000C1F480917A018F5F80937A0180E060E029
:100A7000E2DC81E060E0DFDC82E060E0DCDC83E09F
:100A800060E0D9DC80917A0184301CF081E08093B1
:100A90007A0180917701181664F51E9906C080913D
:100AA00077018F5F8093770124C010927701809146
:100AB00050018130F1F480913B018F5F80933B01C5
:100AC00010924F0110924E0180913B01843010F042
:100AD00010923B0180915101809338018091520125
:100AE000809339018091530180933A0181E0809392
:100AF0000702809176018E3138F0109276011092C3
:100B000079011092780106C081E090E0909379011C
:100B100080937801809177018E3151F510927701A1
:100B2000809150018823E9F410924F0110924E01F8
:100B300010923B0181E08093500182E08093140188
:100B400010923D0110923C0110923F0110923E0123
:100B50001092410110924001109243011092420103
:100B600007C01092500181E080937A011092070231
:100B700080918101909182010F97B9F48091500189
:100B8000813079F4809115019091160190958195AD
:100B90009F4F909316018093150181E060E040E043
:100BA00071D3109282011092810180914E01909137
:100BB0004F01845F914051F480915001813031F4B4
:100BC000109250011092070280937A018091830164
:100BD0008730D9F580917A018230ACF18091500153
:100BE000882389F5C0E0D0E0FE01EE0FFF1FE45C32
:100BF000FE4F80819181C297A0F0118210828BE01C
:100C000060E019DC8CE060E016DC80E060E013DC82
:100C100081E060E010DC82E060E00DDC83E060E019
:100C20000ADCFE01EE0FFF1FE45CFE4F8081918124
:100C3000892B29F08081918101969183808321966F
:100C4000C430D10589F61092830180917C01909186
:100C50007D010F97E1F480917A018130A1F48091B8
:100C60005001882381F480918401843010F0109227
:100C700084016091840182E040E004D3809184018A
:100C80008F5F8093840110927D0110927C0120E09F
:100C900030E0F901E85BFE4F8081882319F0808104
:100CA0008F5F8083F901E85BFE4F8081803508F01B
:100CB00010822F5F3F4F2430310559F780914C014E
:100CC00090914D01019690934D0180934C0180913C
:100CD00083018F5F80938301E2DC80917C0190919E
:100CE0007D01019690937D0180937C0180917F012D
:100CF0009091800101969093800180937F01809173
:100D000081019091820101969093820180938101EB
:100D1000809185018F5F8093850180914E01909134
:100D20004F01019690934F0180934E01FF91EF91F7
:100D3000DF91CF91BF91AF919F918F917F916F91F3
:100D40005F914F913F912F910F900FBE0F901F9089
:100D500018951F920F920FB60F9211242F933F9365
:100D60004F935F936F937F938F939F93AF93BF93B3
:100D7000DF93CF9300D0CDB7DEB780912501869564
:100D800090E09A83898329813A818091260190E0BD
:100D9000AC01429FC001439F900D529F900D1124C2
:100DA0009A83898389819A8164E670E0BDD37A83CE
:100DB00069832091B30089819A812091B300898150
:100DC0009A81280F2093B4008091B30020912501CF
:100DD0009091B30080912501890F8093B3005F9AB1
:100DE0000F900F90CF91DF91BF91AF919F918F9115
:100DF0007F916F915F914F913F912F910F900FBE17
:100E00000F901F901895579AE0E7F0E08081866078
:100E1000808381E08093B30082E08093B4000895E2
:100E2000282F18161CF58091890190918A01892B31
:100E300021F48091880187FF04C080918B01882371
:100E4000A9F08091B10084608093B10008958091F1
:100E5000B1008B7F8093B1005F981092B20081E067
:100E60008093B30082E08093B4000895222379F345
:100E70000895CF93DF93EC0180912401823070F0CC
:100E80008091890190918A01892B21F480918801B8
:100E900087FF1EC080918B018823D1F4E0918701E8
:100EA000F0E0E35EFE4F808180932501E0918801B0
:100EB000FF27E7FDF095E85EFE4F808180932601D5
:100EC00081E0AEDFCE0162E370E042D36093860141
:100ED000DF91CF910895CF93DF93EC0180912401AE
:100EE000823080F18091890190918A01892B21F4CF
:100EF0008091880187FF2BC080918B01882339F571
:100F000021C0E0918701F0E0E25EFE4F05C0E09174
:100F10008701F0E0E45EFE4F808180932501E0913F
:100F20008801FF27E7FDF095E85EFE4F8081809302
:100F3000260181E075DFCE0162E370E009D36093A2
:100F4000860105C0809187018823D9F2E0CFDF9127
:100F5000CF910895809326016093250108951F92F3
:100F60000F920FB60F9211245F980F900FBE0F9043
:100F70001F9018952A989EBD0DB407FEFDCF8EBD1B
:100F80000DB407FEFDCF2A9A08952A989EBD0DB490
:100F900007FEFDCF3EB58EBD0DB407FEFDCF2EB5CD
:100FA000932F80E02A9A30E0282B392BC90108952D
:100FB0002A981EBC0DB407FEFDCF2A9A8EB508955F
:100FC0002A988EBD0DB407FEFDCF6EBD0DB407FE91
:100FD000FDCF2A9A08952A9880EB8EBD0DB407FEA6
:100FE000FDCF1EBC0DB407FEFDCF2A9A8EB5089525
:100FF000239A259A229A249881E58CBD08951F93FF
:10100000D7DF87FF7CC08091F3018130E9F0813028
:1010100020F0823009F06BC052C011E01093F6014D
:10102000DADF982F8093FD019D5F9093F501935037
:10103000E091F701F091F8018081882309F057C011
:101040001093F30191835BC09091F6018091F501BB
:101050009817D8F4C0DF9091FD0198279093FD0177
:101060002091F601213238F4E091F701F091F80176
:10107000E20FF11D81838091F601823011F49F3FD0
:10108000B1F58F5F8093F6013AC0E091F701F091DE
:10109000F80182E080838091FB0190E001968170ED
:1010A0009070282F8093FB0182E2289F90011124E9
:1010B00021553E4F3093F8012093F70118C09091CD
:1010C000F6018091F501981750F4E92FF0E0E4570C
:1010D000FE4F60819F5F9093F60188EB0FC01092E6
:1010E000F40181E892E846DF88EB6AEA69DF109252
:1010F000F3018AEC61E864DF8AEC63E861DF1F9149
:1011000008958091F301882369F580E090E03DDF48
:1011100090FF04C088EC80932701089580912701F7
:101120008150809327018823E9F481E0809327018F
:101130008091F4018130B1F481E092E81BDF80916D
:101140008E018A5F8093F5011092F60182E0809310
:10115000F3018AEA98EB0EDF8AEA98EB0BDF81E273
:1011600092E808DF0895982F8091F401882311F008
:1011700083E0089560938E0190938F0169276095B5
:101180006093900181E08093F40180E80895E091FC
:10119000F901F091FA0110828091FC0190E0019632
:1011A00081709070282F8093FC0182E2289F90012B
:1011B000112421553E4F3093FA012093F9010895EF
:1011C0002A9A229A15DF87EE90E8D4DE81E092E831
:1011D000D1DE80E496EACEDE83EA96ECCBDE8CE2CA
:1011E00094E9C8DE8BEA92ECC5DE81E89AECC2DEB7
:1011F00087EF94ECBFDE80E798E9BCDE80E098ECF6
:10120000B9DE80E090EEB6DE8DE280938C0184ED55
:1012100080938D018FEA91E09093FA018093F90118
:101220009093F8018093F70181E892E8A3DEE9E664
:10123000F0E080818860808380E090E0A6DEE19A23
:1012400081E89AEC97DE83E89AEC94DE08950F9398
:101250001F93182F062F8F3110F082E010C080915D
:10126000F401882311F083E00AC021E931E0C901CB
:10127000BA01412F50E08BD1802F612F74DF1F9175
:101280000F910895282F8230D1F08330C9F1813039
:1012900009F055C08FEF8093FE0180913801809353
:1012A000FF01809139018093000280913A0180937F
:1012B00001028CE080930202209303021BC08FEF97
:1012C0008093FE01862F90E0FC01EE0FFF1FE80FD8
:1012D000F91FE45DFE4F80818093FF01818180933F
:1012E00000028281809301028DE08093020281E0FE
:1012F0008093030286E060E04EEF51E0A8DF08959E
:101300008FEF8093FE01862F90E0FC01EE0FFF1F10
:10131000E80FF91FE45DFE4F80818093FF0181811A
:10132000809300028281809301028AE0809302020E
:101330004093030286E060E04EEF51E088DF0895BD
:10134000CF93DF93EC0188818F3F09F0DDC08C8162
:10135000853008F0D9C0843009F05EC08091070262
:10136000813009F059C010920702809150018130FC
:1013700021F410924F0110924E0190913801898111
:10138000891709F049C0909139018A81891709F0BC
:1013900043C090913A018B81891709F03DC08CE0E0
:1013A00061E049D888E893E128EC30E0F901319711
:1013B000F1F70197D9F78CE060E03DD8E0913B016F
:1013C000F0E08D81EF5FFE4F808380913B0190E0E4
:1013D00020913801FC01EE0FFF1FE80FF91FE45DBB
:1013E000FE4F208380913B0190E020913901FC0168
:1013F000EE0FFF1FE80FF91FE45DFE4F2183809180
:101400003B0190E020913A01FC01EE0FFF1FE80F35
:10141000F91FE45DFE4F228310920602109205022E
:1014200033C08091050290910602FC01EE0FFF1F70
:10143000E80FF91FE45DFE4F90818981891709F05B
:1014400059C08091050290910602FC01EE0FFF1F2A
:10145000E80FF91FE45DFE4F91818A81891709F039
:1014600049C08091050290910602FC01EE0FFF1F1A
:10147000E80FF91FE45DFE4F92818B818917D1F54A
:1014800081E08093040206C08091050290910602DB
:1014900004973CF280910402882349F18C818130C9
:1014A00091F0833021F5E0910502F09106028D81E3
:1014B000EF5FFE4F8083E0910502F0910602E85B4A
:1014C000FE4F81E013C0E0910502F0910602EE0F9D
:1014D000FF1FE45CFE4F81E090E091838083E09108
:1014E0000502F09106028D81EC5BFE4F8083109225
:1014F00004020AC080910502909106020196909321
:10150000060280930502C0CFDF91CF91089587FB3B
:10151000082E062687FD819567FD61952CD00EF477
:10152000919507FC81950895AA1BBB1B51E107C04B
:10153000AA1FBB1FA617B70710F0A61BB70B881F63
:10154000991F5A95A9F780959095BC01CD010895F2
:1015500097FB092E07260AD077FD04D0E5DF06D0D9
:1015600000201AF4709561957F4F0895F6F79095D5
:1015700081959F4F0895991B79E004C0991F961794
:1015800008F0961B881F7A95C9F780950895FB018E
:10159000DC0102C001900D9241505040D8F70895EF
:0415A000F894FFCFED
:1015A400FF070707070106640C0F12150D10131629
:1015B4000E11141702FFFFFF0F1E3C505A646E7881
:0A15C4008C96A0B401645A10FF00D9
:00000001FF
