:1000000021C03BC083C218C238C0BFC236C0AEC513
:10001000B3C633C032C031C030C02FC041C32DC0C1
:100020002CC02BC02AC029C028C027C026C025C08C
:1000300024C023C0BEC0CAC0DFC0F4C010C12CC1E0
:1000400041C155C111241FBECFEFD4E0DEBFCDBFEB
:1000500011E0A0E0B1E0EAE8F3E102C005900D9202
:10006000AA32B107D9F712E0AAE2B1E001C01D92AD
:10007000A330B107E1F702D086C9C2CF42D0FBD18D
:1000800001D3B2D778941BD230D280917101909174
:100090007201892B11F429D214C0E091F401F0917E
:1000A000F5018081823069F49F012C5F3F4F3093CE
:1000B0002B0120932A018181882311F0C9014CD89A
:1000C0007AD7B1D632D7E1CF882399F0419A80E12F
:1000D00097E20197F1F780910601853608F084E6F2
:1000E00080930601209106018FEF90E0821B910919
:1000F00003C041988FEF90E090938900809388002F
:10010000089580E0E1DFA0E0B0E0FD01E15BFE4F9B
:1001100010821196A432B105C1F73B9A8C9182608E
:100120008C933C9A3D9A399A81E0CEDF8091800091
:100130008968809380008091810083608093810032
:1001400008959091050181E1989F902D1124953695
:1001500008F094E690930601209106018FEF90E05D
:10016000821B9109909389008093880008958536B9
:1001700008F084E680930601209106018FEF90E05D
:10018000821B91099093890080938800089567FDF0
:1001900060E0843008F0C8C0E62FFF27E7FDF09547
:1001A000E830F10508F026C1E65EFF4F282F30E069
:1001B0000994295F3E4FF9018081AFE1B0E0FD0174
:1001C000E81BF109E15BFE4F10820DC0295F3E4F35
:1001D000F9018081AFE1B0E0FD01E81BF109E15BCD
:1001E000FE4F81E08083F9018481FD01E81BF10964
:1001F000E15BFE4F108248C0295F3E4FF9018081CC
:10020000AFE1B0E0FD01E81BF109E15BFE4F1082B8
:10021000F9018481FD01E81BF109E15BFE4F81E0FA
:10022000808332C0295F3E4FF9018081AFE1B0E0A9
:10023000FD01E81BF109E15BFE4F1082F9018481A9
:10024000FD01E81BF109E15BFE4F1082F901808599
:10025000A81BB109A15BBE4F81E08C930895295F73
:100260003E4FF9018081AFE1B0E0FD01E81BF109EB
:10027000E15BFE4F91E09083F9018481FD01E81B71
:10028000F109E15BFE4F9083F9018085A81BB1095C
:10029000A15BBE4F1C920895295F3E4FF9018081FA
:1002A000AFE1B0E0FD01E81BF109E15BFE4F91E039
:1002B0009083F9018481FD01E81BF109E15BFE4FA8
:1002C00010822AC0295F3E4FF9018081AFE1B0E082
:1002D000FD01E81BF109E15BFE4F1082F901848109
:1002E000FD01E81BF109E15BFE4F91E014C0295FBD
:1002F0003E4FF9018081AFE1B0E0FD01E81BF1095B
:10030000E15BFE4F91E09083F9018481FD01E81BE0
:10031000F109E15BFE4F9083F9018085A81BB109CB
:10032000A15BBE4F9C930895843049F4662321F06D
:1003300081E08093640108951092640108958530EE
:1003400049F4662321F081E08093650108951092BD
:1003500065010895863049F4662321F081E0809399
:1003600066010895109266010895873049F4662366
:1003700021F081E080936D01089510926D01089540
:10038000883049F4662321F081E080936C01089560
:1003900010926C010895893049F4662321F081E0C0
:1003A00080936B01089510926B0108958A3069F46F
:1003B000662331F081E08093690180936A0108959A
:1003C0001092690110926A0108958B3049F46623F6
:1003D00021F081E080935501089510925501089510
:1003E0008C3041F4662321F081E08093560108951A
:1003F00010925601089520E030E0F901E15BFE4FD4
:100400008081813011F4439A01C04398449A449802
:100410002F5F3F4F2432310581F7459A4598089563
:1004200080E090E0FC01E15BFE4F10820196843297
:100430009105C1F7E0DF08951F920F920FB60F925A
:1004400011242F933F938F939F9320E23EE4C901A1
:100450000197F1F71E9906C0C9010197F1F781E0F4
:10046000809370019F918F913F912F910F900FBEBC
:100470000F901F90189553985B9A54985C9A269801
:100480002E9A56985E9A55985D9A5098589A519817
:10049000599AE8E6F0E0808185608083EBE6F0E041
:1004A000808180648083EDE6F0E080818B678083CB
:1004B00081E090E09093720180937101089581E052
:1004C00090E0909372018093710113BEE998E8E681
:1004D000F0E080818560808378941092730110929F
:1004E000740182E0809313010895E8E6F0E08081D2
:1004F0008A7F8083E99A109272011092710180E0E4
:10050000E3DD83B7856083BF889508951F920F92BE
:100510000FB60F9211242F933F934F935F936F93D6
:100520007F938F939F93AF93BF93EF93FF93C7DF17
:1005300088EE93E028EC30E0F9013197F1F701976C
:10054000D9F74B9B05C010927201109271010CC03B
:1005500081E0BADD80E197E20197F1F781E090E078
:100560009093720180937101FF91EF91BF91AF91D0
:100570009F918F917F916F915F914F913F912F91BB
:100580000F900FBE0F901F9018951F920F920FB6ED
:100590000F9211242F933F934F935F936F937F9309
:1005A0008F939F93AF93BF93EF93FF9380EA9FE066
:1005B0000197F1F789B18B778B37E1F14B9907C040
:1005C00080917401882319F481E080936F014E9B20
:1005D00030C04D9B2EC0489914C080917401813069
:1005E00041F51092760110927501809113018150AE
:1005F000809313018091130187FF1BC01092130198
:1006000018C0499915C080917401813091F41092FD
:10061000760110927501809113018F5F8093130111
:100620008091130183302CF082E08093130101C08C
:1006300089B1E1DEFF91EF91BF91AF919F918F91D1
:100640007F916F915F914F913F912F910F900FBECE
:100650000F901F901895209116013091170185E396
:100660009EE4AC01249FC001259F900D349F900D06
:1006700011240196909317018093160161E071E0B7
:1006800052D6089584B5826084BD85B5856085BDE8
:10069000EEE6F0E08081826080838FEF87BD089571
:1006A0001F920F920FB60F9211242F933F934F93E7
:1006B0005F936F937F938F939F93AF93BF93CF93EA
:1006C000DF93EF93FF9380918001873039F480911D
:1006D00018018195809318011092800180916F011B
:1006E0008823D1F04B9906C080916F018F5F809372
:1006F0006F0112C010926F0180917401882361F420
:10070000809173018F5F80937301809173018430B6
:100710001CF081E0809373018091700118164CF5F4
:100720001E9906C0809170018F5F8093700121C077
:1007300010927001809174018130D9F480913B0155
:100740008F5F80933B01109276011092750180912A
:100750003B01843010F010923B017DDF8093380123
:100760007ADF8093390177DF80933A0181E08093CB
:10077000020280916F018E3139F410926F01109254
:1007800072011092710106C081E090E090937201B5
:1007900080937101809170018E3169F51092700122
:1007A00080917401882319F51092760110927501D9
:1007B00010923B0181E08093740182E080931301E9
:1007C000C0E0D0E0FE01EE0FFF1FE45CFE4F11829F
:1007D00010828BE060E0DBDC8CE060E0D8DC8C2F0A
:1007E00060E0D5DC2196C430D10561F704C01092D9
:1007F00074011092020280917C0190917D010F970B
:10080000A9F480917401813069F480911401909170
:100810001501909581959F4F909315018093140138
:1008200081E044D410927D0110927C018091750189
:1008300090917601845F914041F480917401813000
:1008400021F4109274011092020280917E0187308F
:1008500009F057C08091730182300CF450C0809130
:100860007401882309F04BC0C0E0D0E0FE01EE0F18
:10087000FF1FE45CFE4F80819181C29758F0118286
:1008800010828BE060E083DC8CE060E080DC8C2F09
:1008900060E07DDCFE01EE0FFF1FE45CFE4F808117
:1008A0009181892B39F180911801FE01E050FF4FB1
:1008B0006081689F602D11248C2F69DCFE01EC5B48
:1008C000FE4F8081813031F48BE061E060DC8CE0B0
:1008D00060E005C08BE060E05ADC8CE061E057DC52
:1008E000FE01EE0FFF1FE45CFE4F808191810196B7
:1008F000918380832196C430D10509F0B7CF10923F
:100900007E0180917801909179010F9799F58091FE
:100910007301813059F580917401882339F58091F4
:100920007F01843010F010927F01E0917F01F0E0B0
:10093000E85BFE4F8081882371F080917F01909168
:100940001801E0917F01F0E0E050FF4F6081699F66
:10095000602D112403C080917F0160E018DC82E0EB
:10096000A5D380917F018F5F80937F0110927901E1
:100970001092780120E030E0F901E85BFE4F8081C1
:10098000882319F080818F5F8083F901E85BFE4F37
:100990008081833208F010822F5F3F4F2430310571
:1009A00059F780914C0190914D01019690934D0122
:1009B00080934C0180917E018F5F80937E018091B6
:1009C00074012091140130911501992787FD9095AC
:1009D000829FB001839F700D929F700D11248AE059
:1009E000D6DB09DD80917801909179010196909391
:1009F00079018093780180917A0190917B01019631
:100A000090937B0180937A0180917C0190917D018C
:100A1000019690937D0180937C01809180018F5F8E
:100A20008093800180917501909176010196909359
:100A300076018093750180917301813019F489E00A
:100A400061E002C089E060E0A2DB80917301823046
:100A500019F487E061E002C087E060E098DB8091F4
:100A60007401813009F066C080911301813051F02A
:100A7000823089F08823C1F484E061E088DB85E07E
:100A800060E005C084E060E082DB85E061E07FDB60
:100A900086E060E008C084E060E079DB85E060E04B
:100AA00076DB86E061E073DB80913B01813099F079
:100AB000813030F08230E9F0833009F044C029C041
:100AC000E0913B01F0E0E050FF4F608180E05FDBB0
:100AD00081E060E00AC080E060E059DBE0913B012A
:100AE000F0E0E050FF4F608181E051DB82E060E0A8
:100AF0000DC080E060E04BDB81E060E048DBE0912E
:100B00003B01F0E0E050FF4F608182E040DB83E09A
:100B100018C080E060E03BDB81E060E038DB82E031
:100B200060E035DBE0913B01F0E0E050FF4F608199
:100B300083E008C084E060E02ADB85E060E027DB3A
:100B400086E060E024DBFF91EF91DF91CF91BF91D0
:100B5000AF919F918F917F916F915F914F913F9155
:100B60002F910F900FBE0F901F9018951F920F920C
:100B70000FB60F9211242F933F934F935F936F9370
:100B80007F938F939F93AF93BF93DF93CF9300D0C7
:100B9000CDB7DEB780912601869590E09A83898350
:100BA00029813A818091270190E0AC01429FC001E8
:100BB000439F900D529F900D11249A8389838981C0
:100BC0009A8164E670E0AFD37A8369832091B300A1
:100BD00089819A812091B30089819A81280F20937D
:100BE000B4008091B300209126019091B3008091D0
:100BF0002601890F8093B3005F9A0F900F90CF91D9
:100C0000DF91BF91AF919F918F917F916F915F9194
:100C10004F913F912F910F900FBE0F901F901895FD
:100C2000579AE0E7F0E080818660808381E08093DE
:100C3000B30082E08093B4000895282F18161CF5A5
:100C40008091840190918501892B21F48091830109
:100C500087FF04C0809186018823A9F08091B100AC
:100C600084608093B10008958091B1008B7F809360
:100C7000B1005F981092B20081E08093B30082E0EF
:100C80008093B4000895222379F30895CF93DF93DE
:100C9000EC0180912501823070F080918401909167
:100CA0008501892B21F48091830187FF1EC08091EB
:100CB00086018823D1F4E0918201F0E0E25EFE4FEC
:100CC000808180932601E0918301FF27E7FDF09565
:100CD000E75EFE4F80818093270181E0AEDFCE0189
:100CE00062E370E034D360938101DF91CF91089586
:100CF000CF93DF93EC0180912501823080F18091C8
:100D0000840190918501892B21F48091830187FFD3
:100D10002BC080918601882339F521C0E0918201A2
:100D2000F0E0E15EFE4F05C0E0918201F0E0E35E9D
:100D3000FE4F808180932601E0918301FF27E7FD2C
:100D4000F095E75EFE4F80818093270181E075DF9B
:100D5000CE0162E370E0FBD26093810105C0809117
:100D600082018823D9F2E0CFDF91CF91089580935B
:100D700027016093260108951F920F920FB60F92DC
:100D800011245F980F900FBE0F901F9018952A980E
:100D90009EBD0DB407FEFDCF8EBD0DB407FEFDCF89
:100DA0002A9A08952A989EBD0DB407FEFDCF3EB540
:100DB0008EBD0DB407FEFDCF2EB5932F80E02A9A8D
:100DC00030E0282B392BC90108952A981EBC0DB498
:100DD00007FEFDCF2A9A8EB508952A988EBD0DB4D0
:100DE00007FEFDCF6EBD0DB407FEFDCF2A9A089514
:100DF0002A9880EB8EBD0DB407FEFDCF1EBC0DB44E
:100E000007FEFDCF2A9A8EB50895239A259A229A35
:100E1000249881E58CBD089583EA96ECB8DF0895A7
:100E2000906AB5DF08951F93D0DF87FF7CC0809163
:100E3000EE018130E9F0813020F0823009F06BC0A2
:100E400052C011E01093F101D3DF982F8093F80185
:100E50009D5F9093F0019350E091F201F091F301C6
:100E60008081882309F057C01093EE0191835BC005
:100E70009091F1018091F0019817D8F4B9DF909129
:100E8000F80198279093F8012091F101213238F46C
:100E9000E091F201F091F301E20FF11D8183809165
:100EA000F101823011F49F3FB1F58F5F8093F10122
:100EB0003AC0E091F201F091F30182E080838091E9
:100EC000F60190E0019681709070282F8093F601D2
:100ED00082E2289F9001112426553E4F3093F30162
:100EE0002093F20118C09091F1018091F0019817C0
:100EF00050F4E92FF0E0E957FE4F60819F5F909337
:100F0000F10188EB0FC01092EF0181E892E83FDF1A
:100F100088EB6AEA62DF1092EE018AEC61E85DDF3D
:100F20008AEC63E85ADF1F9108958091EE018823CF
:100F300069F580E090E036DF90FF04C088EC809394
:100F400028010895809128018150809328018823E9
:100F5000E9F481E0809328018091EF018130B1F4C0
:100F600081E092E814DF809189018A5F8093F0012B
:100F70001092F10182E08093EE018AEA98EB07DF9C
:100F80008AEA98EB04DF81E292E801DF0895982F66
:100F90008091EF01882311F083E008956093890127
:100FA00090938A016927609560938B0181E080931B
:100FB000EF0180E80895E091F401F091F5011082CD
:100FC0008091F70190E0019681709070282F8093B6
:100FD000F70182E2289F9001112426553E4F30935D
:100FE000F5012093F40108952A9A229A0EDF87EEE4
:100FF00090E8CDDE81E092E8CADE80E496EAC7DEC2
:1010000083EA96ECC4DE8CE294E9C1DE8BEA92ECD2
:10101000BEDE81E89AECBBDE87EF94ECB8DE80E7B9
:1010200098E9B5DE80E098ECB2DE80E090EEAFDECD
:101030008DE28093870184ED809388018AEA91E0B4
:101040009093F5018093F4019093F3018093F20162
:1010500081E892E89CDEE9E6F0E0808188608083A8
:1010600080E090E09FDEE19A81E89AEC90DE83E8F0
:101070009AEC8DDE08950F931F93182F062F8F3152
:1010800010F082E010C08091EF01882311F083E01E
:101090000AC02CE831E0C901BA01412F50E06AD101
:1010A000802F612F74DF1F910F910895982F813049
:1010B00021F0823009F04FC019C08FEF8093F90101
:1010C000809138018093FA01809139018093FB016E
:1010D00080913A018093FC018CE08093FD01909314
:1010E000FE0186E060E049EF51E0C5DF8FEF8093BD
:1010F000F90180913B0190E0FC01EE0FFF1FE80F2A
:10110000F91FE45DFE4F80818093FA0180913B01DD
:1011100090E0FC01EE0FFF1FE80FF91FE45DFE4FAA
:1011200081818093FB0180913B0190E0FC01EE0FF7
:10113000FF1FE80FF91FE45DFE4F82818093FC01E1
:101140008DE08093FD0181E08093FE0186E060E008
:1011500049EF51E090DF0895CF93DF93EC01888150
:101160008F3F09F0DDC08C81853008F0D9C0843014
:1011700009F05EC080910202813009F059C01092DE
:10118000020280917401813021F410927601109254
:101190007501909138018981891709F049C09091B2
:1011A00039018A81891709F043C090913A018B81F6
:1011B000891709F03DC08CE061E0E9D788E893E148
:1011C00028EC30E0F9013197F1F70197D9F78CE07D
:1011D00060E0DDD7E0913B01F0E08D81E050FF4F12
:1011E000808380913B0190E020913801FC01EE0F5B
:1011F000FF1FE80FF91FE45DFE4F208380913B0144
:1012000090E020913901FC01EE0FFF1FE80FF91F5C
:10121000E45DFE4F218380913B0190E020913A01F3
:10122000FC01EE0FFF1FE80FF91FE45DFE4F228364
:10123000109201021092000233C08091000290913E
:101240000102FC01EE0FFF1FE80FF91FE45DFE4FE6
:1012500090818981891709F059C08091000290918D
:101260000102FC01EE0FFF1FE80FF91FE45DFE4FC6
:1012700091818A81891709F049C08091000290917B
:101280000102FC01EE0FFF1FE80FF91FE45DFE4FA6
:1012900092818B818917D1F581E08093FF0106C08F
:1012A000809100029091010204973CF28091FF012D
:1012B000882349F18C81813091F0833021F5E091D0
:1012C0000002F09101028D81E050FF4F8083E09198
:1012D0000002F0910102E85BFE4F81E013C0E09153
:1012E0000002F0910102EE0FFF1FE45CFE4F81E06F
:1012F00090E091838083E0910002F09101028D8162
:10130000EC5BFE4F80831092FF010AC080910002C7
:101310009091010201969093010280930002C0CF48
:10132000DF91CF910895AA1BBB1B51E107C0AA1FF3
:10133000BB1FA617B70710F0A61BB70B881F991F76
:101340005A95A9F780959095BC01CD01089597FB1A
:10135000092E07260AD077FD04D0E5DF06D000204D
:101360001AF4709561957F4F0895F6F790958195E1
:101370009F4F0895FB01DC0102C001900D92415086
:0A1380005040D8F70895F894FFCF0D
:10138A00070707070106640C0F12150D1013160E36
:10139A0011141702FFFF0100FF0F1E3C505A646E22
:0A13AA00788C96A0B401645A10FF7D
:00000001FF
