:1000000021C03BC083C218C238C0BFC236C0CEC4F4
:10001000D3C533C032C031C030C02FC041C32DC0A2
:100020002CC02BC02AC029C028C027C026C025C08C
:1000300024C023C0BEC0CAC0DFC0F4C010C12CC1E0
:1000400041C155C111241FBECFEFD4E0DEBFCDBFEB
:1000500011E0A0E0B1E0E2E2F1E102C005900D9212
:10006000AA32B107D9F711E0AAE2B1E001C01D92AE
:10007000AE3EB107E1F702D052C8C2CF42D0FBD1A9
:1000800001D3D2D678941BD230D280915F01909167
:100090006001892B11F429D214C0E091DF01F091A5
:1000A000E0018081823069F49F012C5F3F4F3093E3
:1000B0002B0120932A018181882311F0C90133D7B4
:1000C0009AD6D1D552D6E1CF882399F0419A80E1D2
:1000D00097E20197F1F780910601853608F084E6F2
:1000E00080930601209106018FEF90E0821B910919
:1000F00003C041988FEF90E090938900809388002F
:10010000089580E0E1DFA0E0B0E0FD01E35CFE4F98
:1001100010821196A432B105C1F73B9A8C9182608E
:100120008C933C9A3D9A399A81E0CEDF8091800091
:100130008968809380008091810083608093810032
:1001400008959091050181E1989F902D1124953695
:1001500008F094E690930601209106018FEF90E05D
:10016000821B9109909389008093880008958536B9
:1001700008F084E680930601209106018FEF90E05D
:10018000821B91099093890080938800089567FDF0
:1001900060E0843008F0C8C0E62FFF27E7FDF09547
:1001A000E830F10508F026C1E65EFF4F282F30E069
:1001B0000994295F3E4FF9018081AFE1B0E0FD0174
:1001C000E81BF109E35CFE4F10820DC0295F3E4F32
:1001D000F9018081AFE1B0E0FD01E81BF109E35CCA
:1001E000FE4F81E08083F9018481FD01E81BF10964
:1001F000E35CFE4F108248C0295F3E4FF9018081C9
:10020000AFE1B0E0FD01E81BF109E35CFE4F1082B5
:10021000F9018481FD01E81BF109E35CFE4F81E0F7
:10022000808332C0295F3E4FF9018081AFE1B0E0A9
:10023000FD01E81BF109E35CFE4F1082F9018481A6
:10024000FD01E81BF109E35CFE4F1082F901808596
:10025000A81BB109A35CBE4F81E08C930895295F70
:100260003E4FF9018081AFE1B0E0FD01E81BF109EB
:10027000E35CFE4F91E09083F9018481FD01E81B6E
:10028000F109E35CFE4F9083F9018085A81BB10959
:10029000A35CBE4F1C920895295F3E4FF9018081F7
:1002A000AFE1B0E0FD01E81BF109E35CFE4F91E036
:1002B0009083F9018481FD01E81BF109E35CFE4FA5
:1002C00010822AC0295F3E4FF9018081AFE1B0E082
:1002D000FD01E81BF109E35CFE4F1082F901848106
:1002E000FD01E81BF109E35CFE4F91E014C0295FBA
:1002F0003E4FF9018081AFE1B0E0FD01E81BF1095B
:10030000E35CFE4F91E09083F9018481FD01E81BDD
:10031000F109E35CFE4F9083F9018085A81BB109C8
:10032000A35CBE4F9C930895843049F4662321F06A
:1003300081E0809352010895109252010895853012
:1003400049F4662321F081E08093530108951092CF
:1003500053010895863049F4662321F081E08093AB
:1003600054010895109254010895873049F466238A
:1003700021F081E080935B01089510925B01089564
:10038000883049F4662321F081E080935A01089572
:1003900010925A010895893049F4662321F081E0D2
:1003A0008093590108951092590108958A3069F493
:1003B000662331F081E080935701809358010895BE
:1003C000109257011092580108958B3049F466231A
:1003D00021F081E080934301089510924301089534
:1003E0008C3041F4662321F081E08093440108952C
:1003F00010924401089520E030E0F901E35CFE4FE3
:100400008081813011F4439A01C04398449A449802
:100410002F5F3F4F2432310581F7459A4598089563
:1004200080E090E0FC01E35CFE4F10820196843294
:100430009105C1F7E0DF08951F920F920FB60F925A
:1004400011242F933F938F939F9320E23EE4C901A1
:100450000197F1F71E9906C0C9010197F1F781E0F4
:1004600080935E019F918F913F912F910F900FBECE
:100470000F901F90189553985B9A54985C9A269801
:100480002E9A56985E9A55985D9A5098589A519817
:10049000599AE8E6F0E0808185608083EBE6F0E041
:1004A000808180648083EDE6F0E080818B678083CB
:1004B00081E090E09093600180935F01089581E076
:1004C00090E09093600180935F0113BEE998E8E6A5
:1004D000F0E08081856080837894109261011092B1
:1004E000620182E0809313010895E8E6F0E08081E4
:1004F0008A7F8083E99A1092600110925F0180E008
:10050000E3DD83B7856083BF889508951F920F92BE
:100510000FB60F9211242F933F934F935F936F93D6
:100520007F938F939F93AF93BF93EF93FF93C7DF17
:1005300088EE93E028EC30E0F9013197F1F701976C
:10054000D9F74B9B05C01092600110925F010CC05F
:1005500081E0BADD80E197E20197F1F781E090E078
:100560009093600180935F01FF91EF91BF91AF91F4
:100570009F918F917F916F915F914F913F912F91BB
:100580000F900FBE0F901F9018951F920F920FB6ED
:100590000F9211242F933F934F935F936F937F9309
:1005A0008F939F93AF93BF93EF93FF9380EA9FE066
:1005B0000197F1F789B18B778B37E1F14B9907C040
:1005C00080916201882319F481E080935D014E9B44
:1005D00030C04D9B2EC0489914C08091620181307B
:1005E00041F51092640110926301809113018150D2
:1005F000809313018091130187FF1BC01092130198
:1006000018C0499915C080916201813091F410920F
:10061000640110926301809113018F5F8093130135
:100620008091130183302CF082E08093130101C08C
:1006300089B1E1DEFF91EF91BF91AF919F918F91D1
:100640007F916F915F914F913F912F910F900FBECE
:100650000F901F901895209116013091170185E396
:100660009EE4AC01249FC001259F900D349F900D06
:1006700011240196909317018093160161E071E0B7
:100680001ED5089584B5826084BD85B5856085BD1D
:10069000EEE6F0E08081826080838FEF87BD089571
:1006A0001F920F920FB60F9211242F933F934F93E7
:1006B0005F936F937F938F939F93AF93BF93EF93CA
:1006C000FF9380915D018823D1F04B9906C0809102
:1006D0005D018F5F80935D0112C010925D0180917A
:1006E0006201882361F4809161018F5F80936101D1
:1006F0008091610184301CF081E0809361018091E0
:100700005E0118164CF51E9906C080915E018F5F40
:1007100080935E0121C010925E0180916201813060
:10072000D9F480913B018F5F80933B01109264016B
:100730001092630180913B01843010F010923B01D4
:100740008ADF8093380187DF8093390184DF8093CB
:100750003A0181E08093ED0180915D018E3139F4A1
:1007600010925D011092600110925F0106C081E05D
:1007700090E09093600180935F0180915E018E31E3
:1007800099F410925E0180916201882359F41092CD
:1007900064011092630181E08093620182E08093A2
:1007A000130102C01092620180916601909167016D
:1007B00080916A0190916B010F97A9F48091620179
:1007C000813069F480911401909115019095819583
:1007D0009F4F909315018093140181E087D310926D
:1007E0006B0110926A0180916301909164018C52B7
:1007F000914041F480916201813021F410926201B4
:100800001092ED0180916201209114013091150147
:10081000992787FD9095829FB001839F700D929FCD
:10082000700D11248AE0B3DCE6DD809166019091C1
:10083000670101969093670180936601809168013A
:10084000909169010196909369018093680180916C
:100850006A0190916B01019690936B0180936A01FC
:10086000809163019091640101969093640180935B
:10087000630180916101813019F489E061E002C077
:1008800089E060E084DC80916101823019F487E0C6
:1008900061E002C087E060E07ADC80916201813033
:1008A00009F05EC080911301813051F0823089F0EF
:1008B0008823C1F484E061E06ADC85E060E005C083
:1008C00084E060E064DC85E061E061DC86E060E0BB
:1008D00008C084E060E05BDC85E060E058DC86E036
:1008E00061E055DC80913B01813081F0813030F056
:1008F0008230B9F0833009F048C021C0E0913B015B
:10090000F0E0E050FF4F608180E035C080E060E0C3
:100910003EDCE0913B01F0E0E050FF4F608181E080
:100920002DC080E060E033DC81E060E030DCE0910D
:100930003B01F0E0E050FF4F608182E022C080E0A8
:1009400060E025DC81E060E022DC82E060E01FDC2A
:10095000E0913B01F0E0E050FF4F608183E014C084
:1009600084E060E014DC85E060E011DC86E060E0BB
:100970000EDC80E060E00BDC81E060E008DC82E01F
:1009800060E005DC83E060E002DCFF91EF91BF9165
:10099000AF919F918F917F916F915F914F913F9117
:1009A0002F910F900FBE0F901F9018951F920F92CE
:1009B0000FB60F9211242F933F934F935F936F9332
:1009C0007F938F939F93AF93BF93DF93CF9300D089
:1009D000CDB7DEB780912501869590E09A83898313
:1009E00029813A818091260190E0AC01429FC001AB
:1009F000439F900D529F900D11249A838983898182
:100A00009A8164E670E05BD37A8369832091B300B6
:100A100089819A812091B30089819A81280F20933E
:100A2000B4008091B300209125019091B300809192
:100A30002501890F8093B3005F9A0F900F90CF919B
:100A4000DF91BF91AF919F918F917F916F915F9156
:100A50004F913F912F910F900FBE0F901F901895BF
:100A6000579AE0E7F0E080818660808381E08093A0
:100A7000B30082E08093B4000895282F18161CF567
:100A800080916F0190917001892B21F480916E010A
:100A900087FF04C0809171018823A9F08091B10083
:100AA00084608093B10008958091B1008B7F809322
:100AB000B1005F981092B20081E08093B30082E0B1
:100AC0008093B4000895222379F30895CF93DF93A0
:100AD000EC0180912401823070F080916F0190913F
:100AE0007001892B21F480916E0187FF1EC08091D7
:100AF00071018823D1F4E0916D01F0E0E35EFE4FD7
:100B0000808180932501E0916E01FF27E7FDF0953C
:100B1000E85EFE4F80818093260181E0AEDFCE014A
:100B200062E370E0E0D260936C01DF91CF910895B1
:100B3000CF93DF93EC0180912401823080F180918A
:100B40006F0190917001892B21F480916E0187FFD4
:100B50002BC080917101882339F521C0E0916D018E
:100B6000F0E0E25EFE4F05C0E0916D01F0E0E45E72
:100B7000FE4F808180932501E0916E01FF27E7FD04
:100B8000F095E85EFE4F80818093260181E075DF5D
:100B9000CE0162E370E0A7D260936C0105C0809142
:100BA0006D018823D9F2E0CFDF91CF910895809332
:100BB00026016093250108951F920F920FB60F92A0
:100BC00011245F980F900FBE0F901F9018952A98D0
:100BD0009EBD0DB407FEFDCF8EBD0DB407FEFDCF4B
:100BE0002A9A08952A989EBD0DB407FEFDCF3EB502
:100BF0008EBD0DB407FEFDCF2EB5932F80E02A9A4F
:100C000030E0282B392BC90108952A981EBC0DB459
:100C100007FEFDCF2A9A8EB508952A988EBD0DB491
:100C200007FEFDCF6EBD0DB407FEFDCF2A9A0895D5
:100C30002A9880EB8EBD0DB407FEFDCF1EBC0DB40F
:100C400007FEFDCF2A9A8EB50895239A259A229AF7
:100C5000249881E58CBD089583EA96ECB8DF089569
:100C6000906AB5DF08951F93D0DF87FF7CC0809125
:100C7000D9018130E9F0813020F0823009F06BC079
:100C800052C011E01093DC01D3DF982F8093E30171
:100C90009D5F9093DB019350E091DD01F091DE01C7
:100CA0008081882309F057C01093D90191835BC0DC
:100CB0009091DC018091DB019817D8F4B9DF909115
:100CC000E30198279093E3012091DC01213238F46D
:100CD000E091DD01F091DE01E20FF11D8183809151
:100CE000DC01823011F49F3FB1F58F5F8093DC010E
:100CF0003AC0E091DD01F091DE0182E080838091D5
:100D0000E10190E0019681709070282F8093E101BD
:100D100082E2289F900111242B563E4F3093DE0132
:100D20002093DD0118C09091DC018091DB019817C0
:100D300050F4E92FF0E0EE58FE4F60819F5F9093F2
:100D4000DC0188EB0FC01092DA0181E892E83FDF06
:100D500088EB6AEA62DF1092D9018AEC61E85DDF14
:100D60008AEC63E85ADF1F9108958091D9018823A6
:100D700069F580E090E036DF90FF04C088EC809356
:100D800027010895809127018150809327018823AE
:100D9000E9F481E0809327018091DA018130B1F498
:100DA00081E092E814DF809174018A5F8093DB0117
:100DB0001092DC0182E08093D9018AEA98EB07DF88
:100DC0008AEA98EB04DF81E292E801DF0895982F28
:100DD0008091DA01882311F083E008956093740113
:100DE00090937501692760956093760181E0809307
:100DF000DA0180E80895E091DF01F091E0011082CE
:100E00008091E20190E0019681709070282F80938C
:100E1000E20182E2289F900111242B563E4F30932D
:100E2000E0012093DF0108952A9A229A0EDF87EECF
:100E300090E8CDDE81E092E8CADE80E496EAC7DE83
:100E400083EA96ECC4DE8CE294E9C1DE8BEA92EC94
:100E5000BEDE81E89AECBBDE87EF94ECB8DE80E77B
:100E600098E9B5DE80E098ECB2DE80E090EEAFDE8F
:100E70008DE28093720184ED8093730185E991E0A6
:100E80009093E0018093DF019093DE018093DD0178
:100E900081E892E89CDEE9E6F0E08081886080836A
:100EA00080E090E09FDEE19A81E89AEC90DE83E8B2
:100EB0009AEC8DDE08950F931F93182F062F8F3114
:100EC00010F082E010C08091DA01882311F083E0F5
:100ED0000AC027E731E0C901BA01412F50E016D11D
:100EE000802F612F74DF1F910F910895982F81300B
:100EF000C9F48FEF8093E401809138018093E5017C
:100F0000809139018093E60180913A018093E70155
:100F10008CE08093E8019093E90186E060E044EE84
:100F200051E0C9DF0895CF93DF93EC0188818F3FB3
:100F300009F0C2C08C81853008F0BEC080912801C4
:100F4000819580932801609128018BE020D98C81C4
:100F5000843009F059C01092ED0180916201813016
:100F600021F41092640110926301909138018981FB
:100F7000891709F049C0909139018A81891709F0D0
:100F800043C090913A018B81891709F03DC08CE0F4
:100F900061E0FDD888E893E128EC30E0F901319771
:100FA000F1F70197D9F78CE060E0F1D8E0913B01CF
:100FB000F0E08D81E050FF4F808380913B0190E015
:100FC00020913801FC01EE0FFF1FE80FF91FE45DCF
:100FD000FE4F208380913B0190E020913901FC017C
:100FE000EE0FFF1FE80FF91FE45DFE4F2183809194
:100FF0003B0190E020913A01FC01EE0FFF1FE80F4A
:10100000F91FE45DFE4F22831092EC011092EB0178
:1010100031C08091EB019091EC01FC01EE0FFF1FBC
:10102000E80FF91FE45DFE4F908189818917D1F5A2
:101030008091EB019091EC01FC01EE0FFF1FE80F96
:10104000F91FE45DFE4F91818A81891759F58091DE
:10105000EB019091EC01FC01EE0FFF1FE80FF91F6F
:10106000E45DFE4F92818B818917E1F481E08093EA
:10107000EA0106C08091EB019091EC0104974CF2DB
:101080008091EA01882359F08C81833041F4E0910A
:10109000EB01F091EC018D81E050FF4F80831092C5
:1010A000EA010AC08091EB019091EC0101969093C6
:1010B000EC018093EB01DECFDF91CF910895AA1B65
:1010C000BB1B51E107C0AA1FBB1FA617B70710F033
:1010D000A61BB70B881F991F5A95A9F78095909565
:1010E000BC01CD01089597FB092E07260AD077FD94
:1010F00004D0E5DF06D000201AF4709561957F4F8B
:101100000895F6F7909581959F4F0895FB01DC01B6
:1011100002C001900D9241505040D8F70895F894C4
:02112000FFCFFF
:10112200070707070106640C0F12150D1013160EA0
:1011320011141702FFFF01000F1E3C505A646E7813
:0A1142008C96A0B401645A10FF005F
:00000001FF
