:1000000021C03BC095C39EC338C0BBC436C0DEC848
:1000100019CA33C032C031C030C02FC09DC52DC0F9
:100020002CC02BC02AC029C028C031C026C025C082
:1000300024C023C03AC246C25BC270C28CC2A8C2EE
:10004000BDC2D1C211241FBECFEFD4E0DEBFCDBFF1
:1000500011E0A0E0B1E0E4E5FBE102C005900D9203
:10006000AA32B107D9F711E0AAE2B1E001C01D92AE
:10007000A33EB107E1F775D06BCDC2CFEAE7F0E060
:1000800080818660808380818062808308951F9252
:100090000F920FB60F9211242F933F934F938F938C
:1000A0009F93EF93FF93E0912E0120917800409170
:1000B0007900942F80E030E0822B932B90932D01D8
:1000C00080932C0180912C0190912D018170907072
:1000D00090932D0180932C0180912F0190913001FC
:1000E000880F991F9093300180932F0120912F0149
:1000F0003091300180912C0190912D01822B932B16
:100100009093300180932F0180912E01877087306A
:1001100089F480912F0190913001892B59F08091C1
:100120002F0190913001E695E695E695F0E0E95AC9
:10013000FE4F808380912E018F5F80932E018091EE
:100140002E01883110F010922E01FF91EF919F91B6
:100150008F914F913F912F910F900FBE0F901F9055
:100160001895CF93DF9380917A00866080937A0010
:1001700080917A00806280937A003FD106D3DED4EA
:1001800092DA7ED88AD8789424D37FD381E018D1AC
:100190008091850190918601892BB9F3809161014D
:1001A000813019F410926101F1CFE091D401F09106
:1001B000D5018081823069F49F012C5F3F4F3093DD
:1001C0002B0120932A018181882311F0C9014DDB85
:1001D00051DA809187018F3F61F5809117018F3F40
:1001E00089F480E061E04FD181E061E04CD182E0B0
:1001F00061E049D183E061E046D18AE562E81DD93A
:1002000081E058D880911701813009F0D4C080E096
:1002100062E039D181E062E036D182E062E033D140
:1002200083E062E030D18AE562E807D980E042D815
:10023000C2C080915601813009F06CC080911401D8
:10024000813051F0823089F08823C1F484E061E08C
:100250001AD185E060E005C084E060E014D185E05B
:1002600061E011D186E060E008C084E060E00BD17D
:1002700085E060E008D186E061E005D18091410130
:10028000813091F0813028F08230E1F08330E1F567
:100290002AC0E0914101F0E0EF5FFE4F608180E015
:1002A000F2D081E060E00AC080E060E0ECD0E09154
:1002B0004101F0E0EF5FFE4F608181E0E4D082E039
:1002C00060E00DC080E060E0DED081E060E0DBD087
:1002D000E0914101F0E0EF5FFE4F608182E0D3D01A
:1002E00083E060E010C080E060E0CDD081E060E0BD
:1002F000CAD082E060E0C7D0E0914101F0E0EF5F5A
:10030000FE4F608183E0BFD06091150170911601AE
:100310008AE050C084E060E0B6D085E060E0B3D011
:1003200086E060E0B0D080918A01813039F480931A
:100330009E0184E690E0DFD710928A0180918701C8
:10034000813061F58BE060E09ED08CE060E09BD076
:1003500089E061E098D0C0E0D0E0FE01E25BFE4FB2
:100360008081882399F020911701FE01EF5FFE4FF5
:10037000808190E0332727FD3095829FB001839FD5
:10038000700D929F700D11248C2F02C08C2F60E095
:100390007AD02196C430D10501F703C089E060E02E
:1003A00072D080918701823019F487E061E002C049
:1003B00087E060E068D0F89495D816D97894E6CEB6
:1003C000882399F0419A80E197E20197F1F78091B3
:1003D0000701853608F084E6809307012091070124
:1003E0008FEF90E0821B910903C041988FEF90E05E
:1003F0009093890080938800089580E0E1DFA0E079
:10040000B0E0FD01ED59FE4F10821196A432B10506
:10041000C1F73B9A8C9182608C933C9A3D9A399AB1
:1004200081E0CEDF80918000896880938000809198
:10043000810083608093810008959091060181E19D
:10044000989F902D1124953608F094E6909307011B
:10045000209107018FEF90E0821B91099093890012
:10046000809388000895853608F084E6809307011C
:10047000209107018FEF90E0821B910990938900F2
:1004800080938800089567FD60E0843008F0C8C05C
:10049000E62FFF27E7FDF095E830F10508F026C1CB
:1004A000E65EFF4F282F30E00994285F3E4FF901A8
:1004B0008081AFE1B0E0FD01E81BF109ED59FE4F8D
:1004C00010820DC0285F3E4FF9018081AFE1B0E09E
:1004D000FD01E81BF109ED59FE4F81E08083F90130
:1004E0008481FD01E81BF109ED59FE4F108248C0DF
:1004F000285F3E4FF9018081AFE1B0E0FD01E81BCC
:10050000F109ED59FE4F1082F9018481FD01E81BCC
:10051000F109ED59FE4F81E0808332C0285F3E4FE4
:10052000F9018081AFE1B0E0FD01E81BF109ED596F
:10053000FE4F1082F9018481FD01E81BF109ED599C
:10054000FE4F1082F9018085A81BB109AD59BE4F3D
:1005500081E08C930895285F3E4FF9018081AFE1DF
:10056000B0E0FD01E81BF109ED59FE4F91E09083E9
:10057000F9018481FD01E81BF109ED59FE4F9083DB
:10058000F9018085A81BB109AD59BE4F1C92089591
:10059000285F3E4FF9018081AFE1B0E0FD01E81B2B
:1005A000F109ED59FE4F91E09083F9018481FD013D
:1005B000E81BF109ED59FE4F10822AC0285F3E4F1B
:1005C000F9018081AFE1B0E0FD01E81BF109ED59CF
:1005D000FE4F1082F9018481FD01E81BF109ED59FC
:1005E000FE4F91E014C0285F3E4FF9018081AFE1DA
:1005F000B0E0FD01E81BF109ED59FE4F91E0908359
:10060000F9018481FD01E81BF109ED59FE4F90834A
:10061000F9018085A81BB109AD59BE4F9C9308957F
:10062000843049F4662321F081E0809378010895B5
:10063000109278010895853049F4662321F081E015
:10064000809379010895109279010895863049F4D4
:10065000662321F081E080937A01089510927A0157
:100660000895873049F4662321F081E08093810169
:100670000895109281010895883049F4662321F08D
:1006800081E080938001089510928001089589305F
:1006900049F4662321F081E080937F010895109250
:1006A0007F0108958A3069F4662331F081E08093F8
:1006B0007D0180937E01089510927D0110927E014C
:1006C00008958B3049F4662321F081E0809369011D
:1006D00008951092690108958C3041F4662321F049
:1006E00081E080936A01089510926A01089520E0E4
:1006F00030E0F901ED59FE4F8081813011F4439AC9
:1007000001C04398449A44982F5F3F4F24323105EB
:1007100081F7459A4598089580E090E0FC01ED59F5
:10072000FE4F1082019684329105C1F7E0DF0895F3
:100730001F920F920FB60F9211240F900FBE0F90C1
:100740001F9018951F920F920FB60F9211242F939E
:100750003F938F939F931092600110925F0120E26C
:100760003EE4C9010197F1F71E9906C0C90101973E
:10077000F1F781E0809384019F918F913F912F91B8
:100780000F900FBE0F901F90189553985B9A549836
:100790005C9A26982E9A56985E9A55985D9A50982B
:1007A000589A5198599AE8E6F0E0808185608083F4
:1007B000EBE6F0E0808180648083EDE6F0E080810C
:1007C0008B67808381E090E0909386018093850120
:1007D000089583B78E7F83BF89E061E054DE81E0B6
:1007E00090E09093860180938501E998E8E6F0E037
:1007F00080818560808380E090E094D980939F0120
:1008000088E090E08FD98093320180E190E08AD92E
:100810008093330188E190E085D98093340180E2B0
:1008200090E080D98093350188E290E07BD9809375
:10083000360180E390E076D98093370188E390E039
:1008400071D98093380180E490E06CD980933901AC
:1008500088E490E067D980933A0180E590E062D91E
:1008600080933B0188E590E05DD980933C0180E670
:1008700090E058D980933D017894109287011092AE
:10088000560182E080931401089560919F0180E0F9
:1008900090E050D96091320188E090E04BD96091AE
:1008A000330180E190E046D96091340188E190E025
:1008B00041D96091350180E290E03CD960913601E8
:1008C00088E290E037D96091370180E390E032D937
:1008D0006091380188E390E02DD96091390180E47E
:1008E00090E028D960913A0188E490E023D96091A2
:1008F0003B0180E590E01ED960913C0188E590E0E5
:1009000019D960913D0180E690E014D9F894809166
:1009100068008A7F80936800E99A1092860110929D
:10092000850180E04DDD4B9BFECF83B7856083BFA3
:1009300083B7816083BF789488954BDF84EF91E023
:1009400028EC30E0F9013197F1F70197D9F74B9B8B
:1009500005C01092860110928501089581E030DD76
:1009600080E197E20197F1F781E090E090938601B2
:100970008093850183E080939E0188EC90E0BBD456
:1009800008951F920F920FB60F9211242F933F9349
:100990004F935F936F937F938F939F93AF93BF9387
:1009A000EF93FF931092600110925F0180EA9FE045
:1009B0000197F1F789B18B778B3709F4AEC04B996A
:1009C00007C080915601882319F481E08093830148
:1009D0004E992CC04E9BFECF10925501109254019F
:1009E000809156018130C1F480911401813051F021
:1009F000823069F0882309F08FC06091410183E063
:100A000041E337C06091410183E041E232C060912F
:100A1000410183E041E12DC080919F0187FD04C029
:100A200080919F01815030C08FEF2EC04D9932C010
:100A30004D9BFECF109255011092540180915601AA
:100A40008130C9F480911401813051F0823069F015
:100A5000882309F061C06091410183E042E309C04D
:100A60006091410183E042E204C06091410183E072
:100A700042E17BD651C080919F01843024F4809163
:100A80009F018F5F01C084E080939F0181E080938C
:100A90008A0142C0489914C0809156018130E1F525
:100AA000109255011092540180911401815080934D
:100AB00014018091140187FF2FC0109214012CC0E3
:100AC000499915C080915601813031F51092550138
:100AD00010925401809114018F5F809314018091D2
:100AE00014018330CCF082E08093140115C04C993E
:100AF00013C080E29EE40197F1F7809156018823AC
:100B000059F480918701823024F4809187018F3FCE
:100B100019F481E080938901EADDFF91EF91BF91A3
:100B2000AF919F918F917F916F915F914F913F9185
:100B30002F910F900FBE0F901F90189584B5826073
:100B400084BD85B5856085BDEEE6F0E0808182607C
:100B500080838FEF87BD08951F920F920FB60F927B
:100B600011242F933F934F935F936F937F938F93B2
:100B70009F93AF93BF93CF93DF93EF93FF938091B6
:100B80005E01882329F080915E018F5F80935E0172
:100B900080915E018A3011F480E074D380919D01D0
:100BA0008823D9F080919A0190919B0101969093AE
:100BB0009B0180939A0120919A0130919B01809131
:100BC0009D0190E08217930740F480E073D3109268
:100BD0009B0110929A0110929D018091940187309F
:100BE00039F4809117018195809317011092940137
:100BF000809197018823F1F0809198018F5F809315
:100C0000980180919801843169F460919901409133
:100C1000970184E0AAD510929801809199018F5F85
:100C20008093990180919901843020F0109299016C
:100C300010929701809189018823E9F04C9906C0B0
:100C4000809189018F5F8093890115C082E0809334
:100C50009701109289018093870180E060E013DCA6
:100C600081E060E010DC82E060E00DDC83E060E0C9
:100C70000ADC80E01FD380918301882331F14B99F6
:100C800006C0809183018F5F809383011EC0109204
:100C90008301809156018823C1F4809187018F5F81
:100CA000809387018091870184301CF081E08093DC
:100CB000870180E060E0E7DB81E060E0E4DB82E088
:100CC00060E0E1DB83E060E0DEDB80918401181608
:100CD0000CF046C080917A00886080937A00809101
:100CE0007A00806880937A0080917A008064809393
:100CF0007A001E9906C0809184018F5F80938401E1
:100D00002FC010928401809156018130F9F48091B6
:100D100041018F5F8093410110925501109254015F
:100D200080914101843010F010924101809157016F
:100D300080933E018091580180933F018091590139
:100D40008093400181E08093E2010AC080917A00A3
:100D5000877F80937A0080917A008F7780937A00E2
:100D6000809189018E3129F41092890181E080936C
:100D70009701809183018E3139F410928301109292
:100D800086011092850106C081E090E09093860173
:100D900080938501809184018E3109F094C0109276
:100DA000840180915601882389F510925501109293
:100DB0005401109241018091570180933E0180912E
:100DC000580180933F01809159018093400181E057
:100DD0008093E2018093560182E080931401C0E089
:100DE000D0E0FE01EE0FFF1FEE5BFE4F118210827E
:100DF0008BE060E048DB8CE060E045DB8C2F60E05E
:100E000042DB2196C430D10561F75DC060913201AB
:100E100088E090E08FD66091330180E190E08AD63F
:100E20006091340188E190E085D66091350180E2DF
:100E300090E080D66091360188E290E07BD66091A8
:100E4000370180E390E076D66091380188E390E046
:100E500071D66091390180E490E06CD660913A01DE
:100E600088E490E067D660913B0180E590E062D62F
:100E700060913C0188E590E05DD660913D0180E69F
:100E800090E058D61092600110925F0110925601C6
:100E90001092E20180E060E0F6DA81E060E0F3DAEF
:100EA00082E060E0F0DA83E060E0EDDA8AE060E0C2
:100EB000EADA80917A00877F80937A0080917A00C5
:100EC0008F7780937A0080919001909191010F9794
:100ED000B9F480915601813079F480911501909197
:100EE0001601909581959F4F90931601809315015F
:100EF00081E060E040E039D41092910110929001BD
:100F00008091540190915501845F914009F062C035
:100F100080915601813009F05DC0109260011092FD
:100F20005F01109256011092E20180E060E0ABDABE
:100F300081E060E0A8DA82E060E0A5DA83E060E0CA
:100F4000A2DA8AE060E09FDA80917A00877F80935E
:100F50007A0080917A008F7780937A0060913201D5
:100F600088E090E0E7D56091330180E190E0E2D540
:100F70006091340188E190E0DDD56091350180E237
:100F800090E0D8D56091360188E290E0D3D56091A9
:100F9000370180E390E0CED56091380188E390E09E
:100FA000C9D56091390180E490E0C4D560913A01DF
:100FB00088E490E0BFD560913B0180E590E0BAD530
:100FC00060913C0188E590E0B5D560913D0180E6F7
:100FD00090E0B0D580919201873009F053C08091A4
:100FE000870182300CF44CC080915601882309F0AF
:100FF00047C0C0E0D0E0FE01EE0FFF1FEE5BFE4FEA
:1010000080819181C29758F0118210828BE060E05C
:101010003ADA8CE060E037DA8C2F60E034DAFE01F7
:10102000EE0FFF1FEE5BFE4F80819181892B19F13E
:10103000FE01EF5FFE4F60818C2F25DAFE01E65B3B
:10104000FE4F8081813039F4609117018BE01BDA0B
:101050008CE060E005C08BE060E015DA8CE061E0D8
:1010600012DAFE01EE0FFF1FEE5BFE4F80819181D1
:101070000196918380832196C430D10509F0BBCFBE
:101080001092920180918B0190918C010F97E1F465
:10109000809187018130A1F480915601882381F4E9
:1010A00080919301843010F010929301609193012C
:1010B00082E040E05AD3809193018F5F8093930147
:1010C00010928C0110928B0120E030E0F901E25B7C
:1010D000FE4F8081882319F080818F5F8083F90122
:1010E000E25BFE4F8081803508F010822F5F3F4F1A
:1010F0002430310559F780915F0190916001815D45
:10110000974018F081E08093610180915601882317
:1011100049F480915F019091600101969093600184
:1011200080935F01809152019091530101969093B9
:10113000530180935201809192018F5F80939201BD
:10114000D6DA80918B0190918C01019690938C015D
:1011500080938B0180918E0190918F0101969093E5
:101160008F0180938E018091900190919101019661
:101170009093910180939001809194018F5F80936F
:1011800094018091540190915501019690935501DD
:1011900080935401809195019091960101969093CE
:1011A000960180939501FF91EF91DF91CF91BF91CF
:1011B000AF919F918F917F916F915F914F913F91EF
:1011C0002F910F900FBE0F901F9018951F920F92A6
:1011D0000FB60F9211242F933F934F935F936F930A
:1011E0007F938F939F93AF93BF93DF93CF9300D061
:1011F000CDB7DEB780912501869590E09A838983EB
:1012000029813A818091260190E0AC01429FC00182
:10121000439F900D529F900D11249A838983898159
:101220009A8164E670E04ED47A8369832091B3009A
:1012300089819A812091B30089819A81280F209316
:10124000B4008091B300209125019091B30080916A
:101250002501890F8093B3005F9A0F900F90CF9173
:10126000DF91BF91AF919F918F917F916F915F912E
:101270004F913F912F910F900FBE0F901F90189597
:10128000279A0895882329F02F9A81E080935E01A0
:1012900008952F9810925E010895579AE0E7F0E0C4
:1012A00080818660808381E08093B30082E08093B8
:1012B000B4000895181674F480919F01181614F064
:1012C00081E001C080E0DEDF8091B1008460809326
:1012D000B1000895882371F48091B1008B7F8093D1
:1012E000B1005F981092B20081E08093B30082E079
:1012F0008093B4000895CF93DF93EC018091240193
:10130000823030F08091A0019091A101892B21F4CD
:1013100080919F018F3F11F58091A2018823F1F404
:1013200081E0B0DF1FC0E0919E01F0E0E35EFE4F80
:10133000808180932501E0919F01FF27E7FDF095D3
:10134000E85EFE4F80818093260181E0B3DFCE010D
:1013500062E370E0CBD360939D0104C080919D0156
:10136000882309F3DF91CF910895CF93DF93EC01A8
:1013700080912401823030F08091A0019091A101F0
:10138000892B21F480919F018F3F51F58091A2011B
:10139000882331F529C080919E01882331F4E091A2
:1013A0009E01F0E0E25EFE4F05C0E0919E01F0E09C
:1013B000E45EFE4F808180932501E0919F01FF272D
:1013C000E7FDF095E85EFE4F80818093260181E085
:1013D00071DFCE0162E370E089D360939D0104C0A8
:1013E00080919D018823B9F2DF91CF910895CF9329
:1013F000DF93EC0180912401823030F08091A001D4
:101400009091A101892B21F480919F018F3F71F46C
:101410008091A201882351F40DC081E04BDFCE0101
:1014200062E370E063D360939D0104C080919D01ED
:10143000882399F3DF91CF910895809326016093DB
:10144000250108951F920F920FB60F9211245F98F5
:101450000F900FBE0F901F9018952A989EBD0DB447
:1014600007FEFDCF8EBD0DB407FEFDCF2A9A08956D
:101470002A989EBD0DB407FEFDCF3EB58EBD0DB4BE
:1014800007FEFDCF2EB5932F80E02A9A30E0282B5F
:10149000392BC90108952A981EBC0DB407FEFDCF53
:1014A0002A9A8EB508952A988EBD0DB407FEFDCFF9
:1014B0006EBD0DB407FEFDCF2A9A08952A9880EBE1
:1014C0008EBD0DB407FEFDCF1EBC0DB407FEFDCFD3
:1014D0002A9A8EB50895239A259A229A249881E50E
:1014E0008CBD08951F93D7DF87FF7CC08091CE010C
:1014F0008130E9F0813020F0823009F06BC052C0B9
:1015000011E01093D101DADF982F8093D8019D5F0D
:101510009093D0019350E091D201F091D30180815A
:10152000882309F057C01093CE0191835BC090913E
:10153000D1018091D0019817D8F4C0DF9091D801E3
:1015400098279093D8012091D1012D3038F4E09163
:10155000D201F091D301E20FF11D81838091D1017D
:10156000823011F49F3FB1F58F5F8093D1013AC073
:10157000E091D201F091D30182E080838091D60185
:1015800090E0019681709070282F8093D6018EE0B4
:10159000289F900111242E543E4F3093D301209365
:1015A000D20118C09091D1018091D001981750F4C8
:1015B000E92FF0E0ED55FE4F60819F5F9093D101E0
:1015C00088EB0FC01092CF0181E892E846DF88EBEC
:1015D0006AEA69DF1092CE018AEC61E864DF8AEC86
:1015E00063E861DF1F9108958091CE01882369F53A
:1015F00080E090E03DDF90FF04C088EC80932701FD
:101600000895809127018150809327018823E9F470
:1016100081E0809327018091CF018130B1F481E096
:1016200092E81BDF8091A5018A5F8093D001109220
:10163000D10182E08093CE018AEA98EB0EDF8AEA3C
:1016400098EB0BDF81E292E808DF0895982F8091F4
:10165000CF01882311F083E008956093A501909352
:10166000A601692760956093A70181E08093CF016F
:1016700080E80895E091D401F091D5011082809125
:10168000D70190E0019681709070282F8093D70148
:101690008EE0289F900111242E543E4F3093D501A7
:1016A0002093D40108952A9A229A15DF87EE90E8B4
:1016B000D4DE81E092E8D1DE80E496EACEDE83EAF1
:1016C00096ECCBDE8CE294E9C8DE8BEA92ECC5DEC8
:1016D00081E89AECC2DE87EF94ECBFDE80E798E900
:1016E000BCDE80E098ECB9DE80E090EEB6DE8DE204
:1016F0008093A30184ED8093A40182EB91E0909309
:10170000D5018093D4019093D3018093D20181E8D5
:1017100092E8A3DEE9E6F0E080818860808380E0E3
:1017200090E0A6DEE19A81E89AEC97DE83E89AECF5
:1017300094DE08950F931F93182F062F8B3010F00F
:1017400082E010C08091CF01882311F083E00AC0AD
:1017500028EA31E0C901BA01412F50E0DAD1802FE7
:10176000612F74DF1F910F910895282F823009F1A6
:10177000833020F4813009F077C006C08330A9F1AE
:10178000843009F071C051C08FEF8093D9018091EE
:101790003E018093DA0180913F018093DB018091CB
:1017A00040018093DC018CE08093DD012093DE0119
:1017B00036C08FEF8093D901862F90E0FC01EE0FA9
:1017C000FF1FE80FF91FEE5CFE4F80818093DA0166
:1017D00081818093DB0182818093DC018DE08093A5
:1017E000DD0181E08093DE011AC08FEF8093D90183
:1017F000862F90E0FC01EE0FFF1FE80FF91FEE5C53
:10180000FE4F80818093DA0181818093DB018281A8
:101810008093DC018AE08093DD014093DE0186E065
:1018200060E049ED51E086DF08958FEF8093D901A4
:10183000862F90E0FC01EE0FFF1FE80FF91FEE5C12
:10184000FE4F80818093DA0181818093DB01828168
:101850008093DC018BE08093DD014093DE0186E024
:1018600060E049ED51E066DF0895CF93DF93EC012E
:1018700088818F3F09F023C18C81853008F01FC11A
:10188000843009F05EC08091E201813009F059C0D6
:101890001092E20180915601813021F4109255019D
:1018A0001092540190913E018981891709F049C035
:1018B00090913F018A81891709F043C090914001BE
:1018C0008B81891709F03DC08CE061E0DCD588EEA2
:1018D00093E028EC30E0F9013197F1F70197D9F75F
:1018E0008CE060E0D0D5E0914101F0E08D81EF5FC8
:1018F000FE4F80838091410190E020913E01FC01E8
:10190000EE0FFF1FE80FF91FEE5CFE4F2083809162
:10191000410190E020913F01FC01EE0FFF1FE80F15
:10192000F91FEE5CFE4F21838091410190E02091F0
:101930004001FC01EE0FFF1FE80FF91FEE5CFE4FA8
:1019400022831092E1011092E00134C08091E00105
:101950009091E101FC01EE0FFF1FE80FF91FEE5C13
:10196000FE4F90818981891709F09FC08091E00125
:101970009091E101FC01EE0FFF1FE80FF91FEE5CF3
:10198000FE4F91818A81891709F08FC08091E00113
:101990009091E101FC01EE0FFF1FE80FF91FEE5CD3
:1019A000FE4F92818B81891709F07FC081E080937F
:1019B000DF0106C08091E0019091E101049734F2CB
:1019C0008091DF01882309F46DC0109260011092AC
:1019D0005F012C81223009F44EC0233021F02130E8
:1019E00009F060C011C0E091E001F091E1018D814A
:1019F000EF5FFE4F8083E091E001F091E101E25B57
:101A0000FE4F81E080834EC0E091E001F091E10162
:101A1000EE0FFF1FEE5BFE4F81E090E0918380832D
:101A2000E091E001F091E1018D81E65BFE4F808362
:101A3000E091E001F091E101E65BFE4F808183706F
:101A400080838D8190E095958795959587958D8379
:101A500080939E01E091E001F091E101E65BFE4F91
:101A60008081813021F482E390E07FDC1BC082E33F
:101A700090E041DC17C08D81813021F48FEF80939D
:101A8000870110C02093870180E060E0FCD481E0F2
:101A900060E0F9D482E060E0F6D483E060E0F3D463
:101AA00080E008DC1092DF010AC08091E001909193
:101AB000E10101969093E1018093E0017BCFDF91FA
:101AC000CF910895AA1BBB1B51E107C0AA1FBB1FE2
:101AD000A617B70710F0A61BB70B881F991F5A95BA
:101AE000A9F780959095BC01CD01089597FB092E2B
:101AF00007260AD077FD04D0E5DF06D000201AF4CF
:101B0000709561957F4F0895F6F7909581959F4F59
:101B10000895FB01DC0102C001900D92415050403C
:101B2000D8F70895F999FECF92BD81BDF89A99270B
:101B300080B50895262FF999FECF1FBA92BD81BDB9
:101B400020BD0FB6F894FA9AF99A0FBE019608953F
:041B5000F894FFCF37
:101B5400FF070707070106640C0F12150D10131673
:101B64000E11141702FFFFFF0F1E3C505A5A6E8CC1
:0A1B7400A0B4C8FA01645A10FF0083
:00000001FF
