:100000002DC047C0E0C3E9C344C022C542C047C9B0
:100010007ACA3FC03EC03DC03CC03BC004C639C0E8
:1000200038C037C036C035C034C03DC032C031C022
:1000300030C02FC085C291C2A6C2BBC2D7C2F3C214
:1000400008C31CC3E680038262A6A3C62C94ABC27D
:1000500081CAF7C4709800C800E0838211241FBED3
:10006000CFEFD4E0DEBFCDBF11E0A0E0B1E0E8ED1E
:10007000FCE102C005900D92A832B107D9F711E05A
:10008000A8E2B1E001C01D92A03EB107E1F775D032
:1000900021CEB6CFEAE7F0E0808186608083808160
:1000A0008062808308951F920F920FB60F921124E1
:1000B0002F933F934F938F939F93EF93FF93E091F1
:1000C0002C012091780040917900942F80E030E05D
:1000D000822B932B90932B0180932A0180912A01EC
:1000E00090912B018170907090932B0180932A0145
:1000F00080912D0190912E01880F991F90932E01D0
:1001000080932D0120912D0130912E0180912A01A3
:1001100090912B01822B932B90932E0180932D0194
:1001200080912C018770873089F480912D01909106
:100130002E01892B59F080912D0190912E01E69589
:10014000E695E695F0E0EB5AFE4F808380912C0116
:100150008F5F80932C0180912C01883110F01092D8
:100160002C01FF91EF919F918F914F913F912F9192
:100170000F900FBE0F901F901895CF93DF93809133
:100180007A00866080937A0080917A008062809302
:100190007A007ED145D339D53CDBDBD8E7D87894DB
:1001A00063D3D8D381E057D18091830190918401AA
:1001B000892B99F4DFD9FBD215BC1092680080E03E
:1001C000E2D81092800010928100299843981092F2
:1001D0007A0010927E00BED33BC180915F018130D6
:1001E00039F410925F0110925E0110925D0130C1EE
:1001F0004091D101842F90E0880F991FFC01A3E06A
:10020000EE0FFF1FAA95E1F7E81BF90BE055FE4F33
:100210008081823031F5842F90E0880F991F9C01F6
:1002200063E0220F331F6A95E1F7281B390B2C542A
:100230003E4F3093290120932801842F90E0880FAE
:10024000991FFC0143E0EE0FFF1F4A95E1F7E81B01
:10025000F90BE055FE4F8181882311F0C901C0DB05
:10026000C2DA809185018F3F61F5809117018F3F40
:1002700089F480E061E052D181E061E04FD182E019
:1002800061E04CD183E061E049D18AE562E836D98A
:1002900081E079D880911701813009F0D5C080E0E4
:1002A00062E03CD181E062E039D182E062E036D1A7
:1002B00083E062E033D18AE562E820D980E063D848
:1002C000C3C080915401813009F06CC08091140149
:1002D000813051F0823089F08823C1F484E061E0FC
:1002E0001DD185E060E005C084E060E017D185E0C5
:1002F00061E014D186E060E008C084E060E00ED1E7
:1003000085E060E00BD186E061E008D180913F019B
:10031000813091F0813028F08230E1F08330E1F5D6
:100320002AC0E0913F01F0E0EF5FFE4F608180E086
:10033000F5D081E060E00AC080E060E0EFD0E091BD
:100340003F01F0E0EF5FFE4F608181E0E7D082E0A7
:1003500060E00DC080E060E0E1D081E060E0DED0F0
:10036000E0913F01F0E0EF5FFE4F608182E0D6D088
:1003700083E060E010C080E060E0D0D081E060E029
:10038000CDD082E060E0CAD0E0913F01F0E0EF5FC5
:10039000FE4F608183E0C2D060911501709116011B
:1003A0008AE051C084E060E0B9D085E060E0B6D07A
:1003B00086E060E0B3D080918801813041F484E030
:1003C00080939C0182E390E0FFD710928801809196
:1003D0008501813061F58BE060E0A0D08CE060E0C9
:1003E0009DD089E061E09AD0C0E0D0E0FE01E45BFE
:1003F000FE4F8081882399F020911701FE01EF5F65
:10040000FE4F808190E0332727FD3095829FB00119
:10041000839F700D929F700D11248C2F02C08C2F22
:1004200060E07CD02196C430D10501F703C089E09B
:1004300060E074D080918501823019F487E061E03A
:1004400002C087E060E06AD0F894B3D88BD9789482
:10045000B0D888D9A7CE882399F0419A80E197E255
:100460000197F1F780910701853608F084E68093C3
:100470000701209107018FEF90E0821B910903C0D3
:1004800041988FEF90E090938900809388000895C1
:1004900080E0E1DFA0E0B0E0FD01EF59FE4F108207
:1004A0001196A432B105C1F73B9A8C9182608C936E
:1004B0003C9A3D9A399A81E0CEDF8091800089682C
:1004C00080938000809181008360809381000895F3
:1004D0009091060181E1989F902D1124953608F0A6
:1004E00094E690930701209107018FEF90E0821B23
:1004F000910990938900809388000895853608F0CB
:1005000084E680930701209107018FEF90E0821B22
:1005100091099093890080938800089567FD60E0B9
:10052000843008F0C8C0E62FFF27E7FDF095E830DB
:10053000F10508F026C1E65EFF4F282F30E0099450
:10054000285F3E4FF9018081AFE1B0E0FD01E81B7B
:10055000F109EF59FE4F10820DC0285F3E4FF9019F
:100560008081AFE1B0E0FD01E81BF109EF59FE4FDA
:1005700081E08083F9018481FD01E81BF109EF59D5
:10058000FE4F108248C0285F3E4FF9018081AFE1E5
:10059000B0E0FD01E81BF109EF59FE4F1082F901AF
:1005A0008481FD01E81BF109EF59FE4F81E0808352
:1005B00032C0285F3E4FF9018081AFE1B0E0FD011C
:1005C000E81BF109EF59FE4F1082F9018481FD010A
:1005D000E81BF109EF59FE4F1082F9018085A81B35
:1005E000B109AF59BE4F81E08C930895285F3E4F0B
:1005F000F9018081AFE1B0E0FD01E81BF109EF599D
:10060000FE4F91E09083F9018481FD01E81BF1091F
:10061000EF59FE4F9083F9018085A81BB109AF59AE
:10062000BE4F1C920895285F3E4FF9018081AFE1D3
:10063000B0E0FD01E81BF109EF59FE4F91E0908316
:10064000F9018481FD01E81BF109EF59FE4F108289
:100650002AC0285F3E4FF9018081AFE1B0E0FD0183
:10066000E81BF109EF59FE4F1082F9018481FD0169
:10067000E81BF109EF59FE4F91E014C0285F3E4F8F
:10068000F9018081AFE1B0E0FD01E81BF109EF590C
:10069000FE4F91E09083F9018481FD01E81BF1098F
:1006A000EF59FE4F9083F9018085A81BB109AF591E
:1006B000BE4F9C930895843049F4662321F081E075
:1006C000809376010895109276010895853049F45B
:1006D000662321F081E080937701089510927701DD
:1006E0000895863049F4662321F081E080937801F3
:1006F0000895109278010895873049F4662321F017
:1007000081E080937F01089510927F0108958830E1
:1007100049F4662321F081E080937E0108951092D0
:100720007E010895893049F4662321F081E08093A9
:100730007D01089510927D0108958A3069F4662341
:1007400031F081E080937B0180937C0108951092C9
:100750007B0110927C0108958B3049F4662321F0CF
:1007600081E08093670108951092670108958C30AD
:1007700041F4662321F081E080936801089510928E
:100780006801089520E030E0F901EF59FE4F8081C3
:10079000813011F4439A01C04398449A44982F5FE2
:1007A0003F4F2432310581F7459A4598089580E0FE
:1007B00090E0FC01EF59FE4F1082019684329105C2
:1007C000C1F7E0DF08951F920F920FB60F92112428
:1007D0000F900FBE0F901F9018951F920F920FB69B
:1007E0000F9211242F933F938F939F9310925E014A
:1007F00010925D0120E23EE4C9010197F1F71E99D4
:1008000006C0C9010197F1F781E0809382019F91B1
:100810008F913F912F910F900FBE0F901F901895C1
:1008200053985B9A54985C9A26982E9A56985E9A9A
:1008300055985D9A5098589A5198599AE8E6F0E080
:10084000808185608083EBE6F0E080818064808336
:10085000EDE6F0E080818B67808381E090E090930B
:10086000840180938301089583B78E7F83BF89E0DD
:1008700061E054DE81E090E09093840180938301F5
:10088000EAE7F0E0808186608083808180628083F7
:1008900084B5826084BD85B5856085BDEEE6F0E0F7
:1008A0008081826080838FEF87BDF2DDB9DF51D513
:1008B0005DD5E998E8E6F0E08081856080836CD6BC
:1008C00080E090E0F1D980939D0188E090E0ECD940
:1008D0008093300180E190E0E7D98093310188E195
:1008E00090E0E2D98093320180E290E0DDD98093FC
:1008F000330188E290E0D8D98093340180E390E01E
:10090000D3D98093350188E390E0CED98093360126
:1009100080E490E0C9D98093370188E490E0C4D99D
:100920008093380180E590E0BFD98093390188E554
:1009300090E0BAD980933A0180E690E0B5D98093EF
:100940003B017894109285011092540182E08093CB
:100950001401089560919D0180E090E0ADD960910F
:10096000300188E090E0A8D96091310180E190E009
:10097000A3D96091320188E190E09ED96091330162
:1009800080E290E099D96091340188E290E094D9B6
:100990006091350180E390E08FD96091360188E362
:1009A00090E08AD96091370180E490E085D9609128
:1009B000380188E490E080D96091390180E590E0C9
:1009C0007BD960913A0188E590E076D960913B014E
:1009D00080E690E071D9F894809168008A7F8093D6
:1009E0006800E99A109284011092830180E033DD5F
:1009F0004B9BFECF83B7856083BF83B7816083BF86
:100A00007894889531DF84EF91E028EC30E0F901AB
:100A10003197F1F70197D9F74B9B05C010928401EC
:100A200010928301089581E016DD80E197E201973D
:100A3000F1F781E090E0909384018093830184E05A
:100A400080939C01F89482E390E0BED4789408955A
:100A50001F920F920FB60F9211242F933F934F9333
:100A60005F936F937F938F939F93AF93BF93EF9316
:100A7000FF9310925E0110925D0180E29EE4019767
:100A8000F1F789B18B778B3709F4AEC04B9907C06A
:100A900080915401882319F481E0809381014E995B
:100AA0002CC04E9BFECF10925301109252018091A8
:100AB00054018130C1F480911401813051F08230B1
:100AC00069F0882309F08FC060913F0183E041E322
:100AD00037C060913F0183E041E232C060913F0145
:100AE00083E041E12DC080919D0187FD04C080918C
:100AF0009D01815030C08FEF2EC04D9932C04D9B6B
:100B0000FECF109253011092520180915401813016
:100B1000C9F480911401813051F0823069F088234A
:100B200009F061C060913F0183E042E309C0609138
:100B30003F0183E042E204C060913F0183E042E173
:100B4000BFD651C080919D01843024F480919D01D5
:100B50008F5F01C084E080939D0181E080938801D4
:100B600042C0489914C0809154018130E1F510923F
:100B7000530110925201809114018150809314010D
:100B80008091140187FF2FC0109214012CC0499945
:100B900015C080915401813031F5109253011092AB
:100BA0005201809114018F5F809314018091140190
:100BB0008330CCF082E08093140115C04C9913C0AF
:100BC00080E29EE40197F1F780915401882359F463
:100BD00080918501823024F4809185018F3F19F442
:100BE00081E080938701CEDDFF91EF91BF91AF91BE
:100BF0009F918F917F916F915F914F913F912F9135
:100C00000F900FBE0F901F90189584B5826084BD21
:100C100085B5856085BDEEE6F0E0808182608083E9
:100C20008FEF87BD08951F920F920FB60F92112478
:100C30002F933F934F935F936F937F938F939F93E4
:100C4000AF93BF93CF93DF93EF93FF9380915C01BA
:100C5000882329F080915C018F5F80935C018091F3
:100C60005C018A3011F480E076D380919B01882367
:100C7000D9F08091980190919901019690939901F2
:100C800080939801209198013091990180919B0166
:100C900090E08217930740F480E075D31092990199
:100CA0001092980110929B0180919201873039F443
:100CB0008091170181958093170110929201809184
:100CC00095018823F1F0809196018F5F80939601C2
:100CD00080919601843169F460919701409195016A
:100CE00084E0EED510929601809197018F5F8093FA
:100CF000970180919701843020F010929701109213
:100D00009501809187018823E9F04C9906C0809174
:100D100087018F5F8093870115C082E080939501E2
:100D2000109287018093850180E060E0F7DB81E02D
:100D300060E0F4DB82E060E0F1DB83E060E0EEDBCA
:100D400080E021D380918101882331F14B9906C045
:100D5000809181018F5F809381011EC0109281017B
:100D6000809154018823C1F4809185018F5F809325
:100D700085018091850184301CF081E0809385019C
:100D800080E060E0CBDB81E060E0C8DB82E060E037
:100D9000C5DB83E060E0C2DB8091820118160CF0B5
:100DA00048C080917A00886080937A0080917A00B0
:100DB000806880937A0080917A00806480937A00C2
:100DC0001E9906C0809182018F5F8093820131C09D
:100DD00010928201809154018130F9F480913F0199
:100DE0008F5F80933F0110925301109252018091C6
:100DF0003F01843010F010923F01809155018093A3
:100E00003C018091560180933D0180915701809370
:100E10003E0181E08093DF010CC080917A00877FE2
:100E200080937A0080917A008F7780937A00109275
:100E30007E00809187018E3129F41092870181E034
:100E400080939501809181018E3139F41092810156
:100E5000109284011092830106C081E090E090938B
:100E6000840180938301809182018E3109F094C0C6
:100E70001092820180915401882389F510925301C8
:100E80001092520110923F018091550180933C01D4
:100E90008091560180933D018091570180933E01DE
:100EA00081E08093DF018093540182E080931401FC
:100EB000C0E0D0E0FE01EE0FFF1FE05CFE4F1182AC
:100EC00010828BE060E02ADB8CE060E027DB8C2F77
:100ED00060E024DB2196C430D10561F75DC06091EC
:100EE000300188E090E0E8D66091310180E190E047
:100EF000E3D66091320188E190E0DED66091330163
:100F000080E290E0D9D66091340188E290E0D4D6B6
:100F10006091350180E390E0CFD66091360188E39F
:100F200090E0CAD66091370180E490E0C5D6609128
:100F3000380188E490E0C0D66091390180E590E006
:100F4000BBD660913A0188E590E0B6D660913B014E
:100F500080E690E0B1D610925E0110925D01109291
:100F600054011092DF0180E060E0D8DA81E060E0B7
:100F7000D5DA82E060E0D2DA83E060E0CFDA8AE0BE
:100F800060E0CCDA80917A00877F80937A0080914C
:100F90007A008F7780937A0080918E0190918F01F3
:100FA0000F97B9F480915401813079F48091150143
:100FB00090911601909581959F4F90931601809383
:100FC000150181E060E040E07BD410928F01109227
:100FD0008E018091520190915301845F914009F0FC
:100FE00062C080915401813009F05DC010925E01B1
:100FF00010925D01109254011092DF0180E060E0D8
:101000008DDA81E060E08ADA82E060E087DA83E00E
:1010100060E084DA8AE060E081DA80917A00877F9C
:1010200080937A0080917A008F7780937A00609124
:10103000300188E090E040D66091310180E190E09D
:101040003BD66091320188E190E036D66091330161
:1010500080E290E031D66091340188E290E02CD6B5
:101060006091350180E390E027D66091360188E3F6
:1010700090E022D66091370180E490E01DD6609127
:10108000380188E490E018D66091390180E590E05D
:1010900013D660913A0188E590E00ED660913B014D
:1010A00080E690E009D680919001873009F053C026
:1010B0008091850182300CF44CC0809154018823CA
:1010C00009F047C0C0E0D0E0FE01EE0FFF1FE05C7A
:1010D000FE4F80819181C29758F0118210828BE07F
:1010E00060E01CDA8CE060E019DA8C2F60E016DA40
:1010F000FE01EE0FFF1FE05CFE4F80819181892B86
:1011000019F1FE01EF5FFE4F60818C2F07DAFE01BF
:10111000E85BFE4F8081813039F4609117018BE0EC
:10112000FDD98CE060E005C08BE060E0F7D98CE091
:1011300061E0F4D9FE01EE0FFF1FE05CFE4F8081FD
:1011400091810196918380832196C430D10509F065
:10115000BBCF109290018091890190918A010F97E5
:10116000E1F4809185018130A1F4809154018823BC
:1011700081F480919101843010F01092910160917E
:10118000910182E040E09CD3809191018F5F809338
:10119000910110928A011092890120E030E0F9015A
:1011A000E45BFE4F8081882319F080818F5F80830C
:1011B000F901E45BFE4F8081803508F010822F5FDB
:1011C0003F4F2430310559F780915D0190915E01C8
:1011D000815D974018F081E080935F018091540118
:1011E000882349F480915D0190915E01019690936E
:1011F0005E0180935D0180915001909151010196B3
:101200009093510180935001809190018F5F809362
:101210009001B8DA8091890190918A0101969093AA
:101220008A018093890180918C0190918D010196B2
:1012300090938D0180938C0180918E0190918F010C
:10124000019690938F0180938E01809192018F5F20
:101250008093920180915201909153010196909355
:1012600053018093520180919301909194010196D2
:101270009093940180939301FF91EF91DF91CF912F
:10128000BF91AF919F918F917F916F915F914F919E
:101290003F912F910F900FBE0F901F9018951F92A6
:1012A0000F920FB60F9211242F933F934F935F939A
:1012B0006F937F938F939F93AF93BF93DF93CF935E
:1012C00000D0CDB7DEB780912501869590E09A8356
:1012D000898329813A818091260190E0AC01429F67
:1012E000C001439F900D529F900D11249A838983D2
:1012F00089819A8164E670E0A7D47A83698320911A
:10130000B30089819A812091B30089819A81280F45
:101310002093B4008091B300209125019091B300F7
:1013200080912501890F8093B3005F9A0F900F90F1
:10133000CF91DF91BF91AF919F918F917F916F91ED
:101340005F914F913F912F910F900FBE0F901F9083
:101350001895279A0895882329F02F9A81E0809381
:101360005C0108952F9810925C010895579AE0E768
:10137000F0E080818660808381E08093B30082E02A
:101380008093B4000895181674F480919D01181686
:1013900014F081E001C080E0DEDF8091B100846064
:1013A0008093B1000895882371F48091B1008B7F00
:1013B0008093B1005F981092B20081E08093B300F7
:1013C00082E08093B4000895CF93DF93EC01809185
:1013D0002401823030F080919E0190919F01892BF1
:1013E00021F480919D018F3F11F58091A001882308
:1013F000F1F481E0B0DF1FC0E0919C01F0E0E35E1A
:10140000FE4F808180932501E0919D01FF27E7FD3C
:10141000F095E85EFE4F80818093260181E0B3DF86
:10142000CE0162E370E024D460939B0104C08091FC
:101430009B01882309F3DF91CF910895CF93DF9328
:10144000EC0180912401823030F080919E019091D6
:101450009F01892B21F480919D018F3F11F580918F
:10146000A0018823F1F481E076DF1FC0E0919C01A8
:10147000F0E0E25EFE4F808180932501E0919D01C6
:10148000FF27E7FDF095E85EFE4F808180932601FF
:1014900081E079DFCE0162E370E0EAD360939B01E3
:1014A00004C080919B01882309F3DF91CF910895B7
:1014B000CF93DF93EC0180912401823030F0809152
:1014C0009E0190919F01892B21F480919D018F3F76
:1014D00071F48091A001882351F40DC081E053DFA5
:1014E000CE0162E370E0C4D360939B0104C080919D
:1014F0009B01882399F3DF91CF9108958093260172
:101500006093250108951F920F920FB60F92112438
:101510005F980F900FBE0F901F9018952A989EBD50
:101520000DB407FEFDCF8EBD0DB407FEFDCF2A9A88
:1015300008952A989EBD0DB407FEFDCF3EB58EBD21
:101540000DB407FEFDCF2EB5932F80E02A9A30E030
:10155000282B392BC9010895906EE0DF8091D201CC
:101560009091D3018D7FDADF8091D2019091D301E8
:10157000D5DF08958091CC018823E1F78091D201D5
:101580009091D3018F779093D3018093D201C6DFDE
:1015900083E08093CC0108951092CC018091D20118
:1015A0009091D30180689093D3018093D201B6DFEC
:1015B0000895CF92DF92EF92FF920F931F930091C5
:1015C000D501A2E0DA2EEE24E394FEE0CF2EDCBAC1
:1015D0002A981EBC0DB407FEFDCF2A9A1EB514FD35
:1015E00002C0FF2404C0E092D401FF24F394812FB1
:1015F000807959F08091D2019091D3018D7F8EDF57
:101600008091D2019091D30189DF17FF9FC0109183
:10161000CC011130C9F1113038F0123009F46BC02F
:10162000133009F08AC086C0E092CF0180E090EBD1
:1016300080DF082F0D5F0093CE0103502091D00171
:10164000822F90E0880F991FFC0173E0EE0FFF1FBF
:101650007A95E1F7E81BF90BE055FE4F808188236E
:1016600009F06BC0E092CC01822F90E0880F991FA7
:10167000FC0153E0EE0FFF1F5A95E1F7E81BF90B51
:10168000E055FE4F0183A3CF80E090EB52DF282F7F
:101690009091CF018091CE019817C0F402279D3020
:1016A00058F4E091D001EC9DF00111243196E90F3E
:1016B000F11DE055FE4F20838091CF01823011F45F
:1016C0000F3FD9F58F5F8093CF0181CF8091D001FB
:1016D000282F30E0220F331FF90193E0EE0FFF1F98
:1016E0009A95E1F7E21BF30BE055FE4FD08281277C
:1016F0008093D00122C02091CF018091CE01281784
:1017000058F4E22FF0E0EF55FE4F808190E02F5F1C
:101710002093CF01986B18C01092CD018091D20117
:101720009091D3018F7D836892689093D3018093C9
:10173000D201F4DE8AEA98EBF1DE1092CC0181E866
:101740009AECECDE83E89AECE9DE41CFFF2009F069
:101750003ECF0093D5011F910F91FF90EF90DF9046
:10176000CF9008958091CC01882341F58091CD01DF
:10177000813021F58091D2019091D3018F779093A0
:10178000D3018093D201CADE8091A3018A5F809346
:10179000CE011092CF0182E08093CC018AEA98EBCF
:1017A000BDDE8AEA98EBBADE8091D2019091D30136
:1017B00080629093D3018093D201B0DE0895982F78
:1017C0008091CD01882311F083E008956093A301F7
:1017D0009093A401692760956093A50181E08093AF
:1017E000CD0180E808952091D101822F90E0880FEB
:1017F000991FFC01B3E0EE0FFF1FBA95E1F7E81B5C
:10180000F90BE055FE4F108281E028272093D1018B
:101810000895CF93DF932A9A229A239A259A2A9A97
:10182000229A249881E58CBD8DE28093A10184EDFC
:101830008093A2011092D0011092D10183E892E826
:101840009093D3018093D201C0E0D0E0FE01EE0F6F
:10185000FF1FEC5BFF4F8591949160DE2196CC30A9
:10186000D105A1F78091690088608093690080E0CC
:1018700090E05FDE82E08CBB81E89AEC4FDE83E88B
:101880009AEC4CDEDF91CF9108950F931F93182FA0
:10189000062F8B3010F082E010C08091CD0188239C
:1018A00011F083E00AC026EA31E0C901BA01412FF4
:1018B00050E0F1D1802F612F82DF1F910F910895A9
:1018C000282F833009F440C0843030F4813059F03F
:1018D000823009F084C01CC0843009F44CC08530CB
:1018E00009F07DC068C08FEF8093D60180913C01E4
:1018F0008093D70180913D018093D80180913E0172
:101900008093D9018CE08093DA012093DB014DC0F4
:101910008FEF8093D601862F90E0FC01EE0FFF1F22
:10192000E80FF91FE05DFE4F80818093D701818130
:101930008093D80182818093D9018DE08093DA0170
:1019400081E08093DB0131C08FEF8093D601862F39
:1019500090E0FC01EE0FFF1FE80FF91FE05DFE4F66
:1019600080818093D70181818093D8018281809387
:10197000D9018AE016C08FEF8093D601862F90E0C0
:10198000FC01EE0FFF1FE80FF91FE05DFE4F8081A5
:101990008093D70181818093D80182818093D9017E
:1019A0008BE08093DA014093DB0186E060E046ED56
:1019B00051E06BDF08958FEF8093D6011092D7012D
:1019C0001092D8011092D9018EE08093DA0181E063
:1019D0008093DB0186E060E046ED51E056DF08953C
:1019E000CF93DF93EC0188818F3F09F02AC18C816E
:1019F000853008F026C1843009F05EC08091DF0197
:101A0000813009F059C01092DF018091540181307A
:101A100021F4109253011092520190913C0189815E
:101A2000891709F049C090913D018A81891709F011
:101A300043C090913E018B81891709F03DC08CE035
:101A400061E06CD588EE93E028EC30E0F901319745
:101A5000F1F70197D9F78CE060E060D5E0913F01A4
:101A6000F0E08D81EF5FFE4F808380913F0190E039
:101A700020913C01FC01EE0FFF1FE80FF91FE05D14
:101A8000FE4F208380913F0190E020913D01FC01B9
:101A9000EE0FFF1FE80FF91FE05DFE4F21838091DD
:101AA0003F0190E020913E01FC01EE0FFF1FE80F87
:101AB000F91FE05DFE4F22831092DE011092DD01DE
:101AC00034C08091DD019091DE01FC01EE0FFF1F1B
:101AD000E80FF91FE05DFE4F90818981891709F0B9
:101AE000A6C08091DD019091DE01FC01EE0FFF1F89
:101AF000E80FF91FE05DFE4F91818A81891709F097
:101B000096C08091DD019091DE01FC01EE0FFF1F78
:101B1000E80FF91FE05DFE4F92818B81891709F074
:101B200086C081E08093DC0106C08091DD01909148
:101B3000DE01049734F28091DC01882309F474C03B
:101B400010925E0110925D012C81223009F452C086
:101B5000233021F0213009F067C011C0E091DD0190
:101B6000F091DE018D81EF5FFE4F8083E091DD011A
:101B7000F091DE01E45BFE4F81E0808355C0E0918F
:101B8000DD01F091DE01EE0FFF1FE05CFE4F81E012
:101B900090E091838083E091DD01F091DE018D8101
:101BA000E85BFE4F8083E091DD01F091DE01E85BB0
:101BB000FE4F8081837080838D8190E0959587951D
:101BC000959587958D8380939C01809185018230C6
:101BD0005CF1E091DD01F091DE01E85BFE4F808178
:101BE000813021F482E390E0EFDB1EC082E390E0DD
:101BF00025DC1AC08D81813021F48FEF809385011F
:101C000013C02093850180E060E088D481E060E02B
:101C100085D482E060E082D483E060E07FD488E015
:101C200060E07CD480E0AFDB1092DC010AC08091E0
:101C3000DD019091DE0101969093DE018093DD013C
:101C400074CFDF91CF910895AA1BBB1B51E107C050
:101C5000AA1FBB1FA617B70710F0A61BB70B881F3C
:101C6000991F5A95A9F780959095BC01CD010895CB
:101C700097FB092E07260AD077FD04D0E5DF06D0B2
:101C800000201AF4709561957F4F0895F6F79095AE
:101C900081959F4F0895FB01DC0102C001900D92D8
:101CA00041505040D8F70895F999FECF92BD81BDBB
:101CB000F89A992780B50895262FF999FECF1FBA73
:101CC00092BD81BD20BD0FB6F894FA9AF99A0FBE65
:081CD00001960895F894FFCF7E
:101CD800FF070707070106640C0F12150D101316EE
:101CE8000E11141702FFFFFF0F1E3C505A5A6E8C3C
:081CF800A0B4C8FA01645AFF10
:00000001FF
