:1000000021C03BC02EC3C3C238C06AC336C0BCC502
:10001000C1C633C032C031C030C02FC0ECC32DC008
:100020002CC02BC02AC029C028C027C026C025C08C
:1000300024C023C069C175C18AC19FC1BBC1D7C1DA
:10004000ECC100C211241FBECFEFD4E0DEBFCDBF94
:1000500011E0A0E0B1E0E0E8F3E102C005900D920C
:10006000AA32B107D9F712E0AAE2B1E001C01D92AD
:10007000A430B107E1F702D081C9C2CFCF93DF939B
:10008000EBD0A4D2AAD3BED77894C4D2D9D28091CF
:10009000710190917201892B11F4D2D214C0E091B8
:1000A000F501F091F6018081823069F49F012C5FA7
:1000B0003F4F30932B0120932A018181882311F037
:1000C000C90145D886D780917401813009F066C096
:1000D00080911301813051F0823089F08823C1F47E
:1000E00084E061E0FFD085E060E005C084E060E08E
:1000F000F9D085E061E0F6D086E060E008C084E0F9
:1001000060E0F0D085E060E0EDD086E061E0EAD02C
:1001100080913B01813099F0813030F08230F9F0EC
:10012000833009F079C029C0E0913B01F0E0E05054
:10013000FF4F608180E0D6D081E060E00AC080E0BF
:1001400060E0D0D0E0913B01F0E0E050FF4F6081F3
:1001500081E0C8D082E060E0C5D083E05BC080E091
:1001600060E0C0D081E060E0BDD0E0913B01F0E014
:10017000E050FF4F608182E0EFCF80E060E0B2D0DE
:1001800081E060E0AFD082E060E0ACD0E0913B0184
:10019000F0E0E050FF4F608183E03DC084E060E02C
:1001A000A1D085E060E09ED086E060E09BD08091A9
:1001B0007301813021F58BE060E094D08CE060E049
:1001C00091D089E061E08ED0C0E0D0E0FE01E85B34
:1001D000FE4F8081882359F080911801FE01E05084
:1001E000FF4F6081689F602D11248C2F02C08C2FDF
:1001F00060E078D02196C430D10541F703C089E092
:1002000060E070D080917301823019F487E061E082
:1002100002C087E060E066D014D695D638CF882338
:1002200099F0419A80E197E20197F1F780910601F8
:10023000853608F084E680930601209106018FEF51
:1002400090E0821B910903C041988FEF90E090935A
:10025000890080938800089580E0E1DFA0E0B0E0AD
:10026000FD01E15BFE4F10821196A432B105C1F78A
:100270003B9A8C9182608C933C9A3D9A399A81E0AA
:10028000CEDF80918000896880938000809181001A
:1002900083608093810008959091050181E1989F8A
:1002A000902D1124953608F094E690930601209144
:1002B00006018FEF90E0821B910990938900809353
:1002C00088000895853608F084E680930601209121
:1002D00006018FEF90E0821B910990938900809333
:1002E0008800089567FD60E0843008F0C8C0E62FFC
:1002F000FF27E7FDF095E830F10508F026C1E65E3E
:10030000FF4F282F30E00994295F3E4FF90180818B
:10031000AFE1B0E0FD01E81BF109E15BFE4F1082A7
:100320000DC0295F3E4FF9018081AFE1B0E0FD01D2
:10033000E81BF109E15BFE4F81E08083F9018481D4
:10034000FD01E81BF109E15BFE4F108248C0295F07
:100350003E4FF9018081AFE1B0E0FD01E81BF109FA
:10036000E15BFE4F1082F9018481FD01E81BF10978
:10037000E15BFE4F81E0808332C0295F3E4FF9018F
:100380008081AFE1B0E0FD01E81BF109E15BFE4FC8
:100390001082F9018481FD01E81BF109E15BFE4F48
:1003A0001082F9018085A81BB109A15BBE4F81E0D5
:1003B0008C930895295F3E4FF9018081AFE1B0E051
:1003C000FD01E81BF109E15BFE4F91E09083F9012B
:1003D0008481FD01E81BF109E15BFE4F9083F90187
:1003E0008085A81BB109A15BBE4F1C920895295FAF
:1003F0003E4FF9018081AFE1B0E0FD01E81BF1095A
:10040000E15BFE4F91E09083F9018481FD01E81BDF
:10041000F109E15BFE4F10822AC0295F3E4FF901CE
:100420008081AFE1B0E0FD01E81BF109E15BFE4F27
:100430001082F9018481FD01E81BF109E15BFE4FA7
:1004400091E014C0295F3E4FF9018081AFE1B0E037
:10045000FD01E81BF109E15BFE4F91E09083F9019A
:100460008481FD01E81BF109E15BFE4F9083F901F6
:100470008085A81BB109A15BBE4F9C930895843071
:1004800049F4662321F081E080936401089510927D
:1004900064010895853049F4662321F081E080935A
:1004A00065010895109265010895863049F4662328
:1004B00021F081E08093660108951092660108950D
:1004C000873049F4662321F081E080936D0108951F
:1004D00010926D010895883049F4662321F081E07F
:1004E00080936C01089510926C010895893049F44D
:1004F000662321F081E080936B01089510926B01D7
:1005000008958A3069F4662331F081E080936901AF
:1005100080936A0108951092690110926A0108950A
:100520008B3049F4662321F081E0809355010895D2
:100530001092550108958C3041F4662321F081E03A
:1005400080935601089510925601089520E030E0FE
:10055000F901E15BFE4F8081813011F4439A01C0C3
:100560004398449A44982F5F3F4F2432310581F7D6
:10057000459A4598089580E090E0FC01E15BFE4FCC
:100580001082019684329105C1F7E0DF08951F9231
:100590000F920FB60F9211242F933F938F939F9337
:1005A00020E23EE4C9010197F1F71E9906C0C90196
:1005B0000197F1F781E0809370019F918F913F91B6
:1005C0002F910F900FBE0F901F90189553985B9A24
:1005D00054985C9A26982E9A56985E9A55985D9AE9
:1005E0005098589A5198599AE8E6F0E080818560D1
:1005F0008083EBE6F0E0808180648083EDE6F0E0CC
:1006000080818B67808381E090E09093720180937A
:100610007101089581E090E09093720180937101DF
:1006200013BEE998E8E6F0E08081856080837894E5
:10063000109273011092740182E080931301089567
:10064000E8E6F0E080818A7F8083E99A1092720167
:100650001092710180E0E3DD83B7856083BF8895E8
:1006600008951F920F920FB60F9211242F933F936C
:100670004F935F936F937F938F939F93AF93BF93AA
:10068000EF93FF93C7DF88EE93E028EC30E0F901A9
:100690003197F1F70197D9F74B9B05C01092720182
:1006A000109271010CC081E0BADD80E197E2019700
:1006B000F1F781E090E09093720180937101FF91D6
:1006C000EF91BF91AF919F918F917F916F915F91CA
:1006D0004F913F912F910F900FBE0F901F90189543
:1006E0001F920F920FB60F9211242F933F934F93A7
:1006F0005F936F937F938F939F93AF93BF93EF938A
:10070000FF9380EA9FE00197F1F789B18B778B37F0
:10071000E1F14B9907C080917401882319F481E0BD
:1007200080936F014E9B30C04D9B2EC0489914C0E2
:1007300080917401813041F510927601109275011B
:10074000809113018150809313018091130187FFE1
:100750001BC01092130118C0499915C080917401F3
:10076000813091F4109276011092750180911301FD
:100770008F5F809313018091130183302CF082E00E
:100780008093130101C089B1E1DEFF91EF91BF9128
:10079000AF919F918F917F916F915F914F913F9119
:1007A0002F910F900FBE0F901F901895209116015A
:1007B0003091170185E39EE4AC01249FC001259F81
:1007C000900D349F900D1124019690931701809302
:1007D000160161E071E0A2D5089584B5826084BD00
:1007E00085B5856085BDEEE6F0E08081826080831E
:1007F0008FEF87BD08951F920F920FB60F921124AD
:100800002F933F934F935F936F937F938F939F9318
:10081000AF93BF93CF93DF93EF93FF9380918101C9
:10082000873039F4809118018195809318011092D6
:10083000810180916F018823D1F04B9906C080918E
:100840006F018F5F80936F0112C010926F018091D2
:100850007401882361F4809173018F5F8093730129
:100860008091730184301CF081E08093730180914A
:100870007001181654F51E9906C0809170018F5FA3
:100880008093700122C01092700175DE8091740116
:100890008130D9F480913B018F5F80933B011092AE
:1008A00076011092750180913B01843010F0109216
:1008B0003B017CDF8093380179DF8093390176DF5B
:1008C00080933A0181E08093030280916F018E3121
:1008D00039F410926F01109272011092710106C0EA
:1008E00081E090E09093720180937101809170019A
:1008F0008E3171F51092700180917401882319F581
:10090000109276011092750110923B0181E0809364
:10091000740182E080931301C0E0D0E0FE01EE0F8D
:10092000FF1FE45CFE4F118210828BE060E0DADC96
:100930008CE060E0D7DC8C2F60E0D4DC2196C43002
:10094000D10561F705C017DE109274011092030201
:1009500080917D0190917E010F97B1F48091740197
:10096000813071F4809114019091150190958195D9
:100970009F4F909315018093140181E060E0A4D310
:1009800010927E0110927D01809175019091760107
:10099000845F914041F480917401813021F4109280
:1009A00074011092030280917F01873009F057C0D3
:1009B0008091730182300CF450C0809174018823BF
:1009C00009F04BC0C0E0D0E0FE01EE0FFF1FE45C79
:1009D000FE4F80819181C29758F0118210828BE086
:1009E00060E080DC8CE060E07DDC8C2F60E07ADC15
:1009F000FE01EE0FFF1FE45CFE4F80819181892B89
:100A000039F180911801FE01E050FF4F6081689F2D
:100A1000602D11248C2F66DCFE01EC5BFE4F808183
:100A2000813031F48BE061E05DDC8CE060E005C09A
:100A30008BE060E057DC8CE061E054DCFE01EE0FFF
:100A4000FF1FE45CFE4F808191810196918380833A
:100A50002196C430D10509F0B7CF10927F01809163
:100A60007801909179010F97D9F4809173018130C9
:100A700099F480917401882379F480918001843005
:100A800010F0109280016091800182E01DD380916E
:100A900080018F5F8093800110927901109278011C
:100AA00020E030E0F901E85BFE4F8081882319F0F7
:100AB00080818F5F8083F901E85BFE4F8081803504
:100AC00008F010822F5F3F4F2430310559F7809195
:100AD0004C0190914D01019690934D0180934C01F2
:100AE00080917F018F5F80937F01809174012091BD
:100AF000140130911501992787FD9095829FB001CF
:100B0000839F700D929F700D11248AE0EBDB1EDD38
:100B10008091780190917901019690937901809369
:100B2000780180917B0190917C01019690937C01EA
:100B300080937B0180917D0190917E01019690933D
:100B40007E0180937D01809181018F5F809381017F
:100B50008091750190917601019690937601809332
:100B60007501FF91EF91DF91CF91BF91AF919F916F
:100B70008F917F916F915F914F913F912F910F9046
:100B80000FBE0F901F9018951F920F920FB60F92E5
:100B900011242F933F934F935F936F937F938F9382
:100BA0009F93AF93BF93DF93CF9300D0CDB7DEB7C2
:100BB00080912601869590E09A83898329813A81E4
:100BC0008091270190E0AC01429FC001439F900DAE
:100BD000529F900D11249A83898389819A8164E6BA
:100BE00070E09CD37A8369832091B30089819A81D4
:100BF0002091B30089819A81280F2093B4008091BD
:100C0000B300209126019091B30080912601890FB5
:100C10008093B3005F9A0F900F90CF91DF91BF91B7
:100C2000AF919F918F917F916F915F914F913F9184
:100C30002F910F900FBE0F901F901895579AE0E7D5
:100C4000F0E080818660808381E08093B30082E061
:100C50008093B4000895282F18161CF58091850103
:100C600090918601892B21F48091840187FF04C033
:100C7000809187018823A9F08091B10084608093DE
:100C8000B10008958091B1008B7F8093B1005F988F
:100C90001092B20081E08093B30082E08093B400B0
:100CA0000895222379F30895CF93DF93EC01809187
:100CB0002501823070F08091850190918601892B09
:100CC00021F48091840187FF1EC0809187018823D1
:100CD000D1F4E0918301F0E0E25EFE4F80818093E9
:100CE0002601E0918401FF27E7FDF095E75EFE4FC6
:100CF00080818093270181E0AEDFCE0162E370E066
:100D000021D360938201DF91CF910895CF93DF9338
:100D1000EC0180912501823080F1809185019091D4
:100D20008601892B21F48091840187FF2BC080915B
:100D30008701882339F521C0E0918301F0E0E15E6D
:100D4000FE4F05C0E0918301F0E0E35EFE4F80813D
:100D500080932601E0918401FF27E7FDF095E75E8F
:100D6000FE4F80818093270181E075DFCE0162E331
:100D700070E0E8D26093820105C0809183018823EE
:100D8000D9F2E0CFDF91CF9108958093270160934E
:100D9000260108951F920F920FB60F9211245F98AB
:100DA0000F900FBE0F901F9018952A989EBD0DB4FE
:100DB00007FEFDCF8EBD0DB407FEFDCF2A9A089524
:100DC0002A989EBD0DB407FEFDCF3EB58EBD0DB475
:100DD00007FEFDCF2EB5932F80E02A9A30E0282B16
:100DE000392BC90108952A981EBC0DB407FEFDCF0A
:100DF0002A9A8EB508952A988EBD0DB407FEFDCFB0
:100E00006EBD0DB407FEFDCF2A9A08952A9880EB97
:100E10008EBD0DB407FEFDCF1EBC0DB407FEFDCF89
:100E20002A9A8EB50895239A259A229A249881E5C4
:100E30008CBD089583EA96ECB8DF0895906AB5DF1B
:100E400008951F93D0DF87FF7CC08091EF01813030
:100E5000E9F0813020F0823009F06BC052C011E01F
:100E60001093F201D3DF982F8093F9019D5F909347
:100E7000F1019350E091F301F091F4018081882316
:100E800009F057C01093EF0191835BC09091F2017C
:100E90008091F1019817D8F4B9DF9091F901982762
:100EA0009093F9012091F201213238F4E091F3019D
:100EB000F091F401E20FF11D81838091F201823003
:100EC00011F49F3FB1F58F5F8093F2013AC0E0913A
:100ED000F301F091F40182E080838091F70190E0CA
:100EE000019681709070282F8093F70182E2289FED
:100EF0009001112425553E4F3093F4012093F301C6
:100F000018C09091F2018091F101981750F4E92FE7
:100F1000F0E0E857FE4F60819F5F9093F20188EB0D
:100F20000FC01092F00181E892E83FDF88EB6AEA97
:100F300062DF1092EF018AEC61E85DDF8AEC63E822
:100F40005ADF1F9108958091EF01882369F580E0B1
:100F500090E036DF90FF04C088EC8093280108956C
:100F6000809128018150809328018823E9F481E051
:100F7000809328018091F0018130B1F481E092E802
:100F800014DF80918A018A5F8093F1011092F2014F
:100F900082E08093EF018AEA98EB07DF8AEA98EB18
:100FA00004DF81E292E801DF0895982F8091F0013B
:100FB000882311F083E0089560938A0190938B0158
:100FC0006927609560938C0181E08093F00180E84F
:100FD0000895E091F501F091F60110828091F801F9
:100FE00090E0019681709070282F8093F80182E242
:100FF000289F9001112425553E4F3093F6012093F0
:10100000F50108952A9A229A0EDF87EE90E8CDDE48
:1010100081E092E8CADE80E496EAC7DE83EA96ECD5
:10102000C4DE8CE294E9C1DE8BEA92ECBEDE81E89C
:101030009AECBBDE87EF94ECB8DE80E798E9B5DE8A
:1010400080E098ECB2DE80E090EEAFDE8DE280933F
:10105000880184ED809389018BEA91E09093F601F9
:101060008093F5019093F4018093F30181E892E875
:101070009CDEE9E6F0E080818860808380E090E09B
:101080009FDEE19A81E89AEC90DE83E89AEC8DDEAF
:1010900008950F931F93182F062F8F3110F082E0C1
:1010A00010C08091F001882311F083E00AC02DE880
:1010B00031E0C901BA01412F50E057D1802F612F93
:1010C00074DF1F910F9108951F93982F162F813071
:1010D00019F08230D1F519C08FEF8093FA01809119
:1010E00038018093FB01809139018093FC0180914C
:1010F0003A018093FD018CE08093FE019093FF0103
:1011000086E060E04AEF51E0C4DF8FEF8093FA01A0
:10111000812F90E0FC01EE0FFF1FE80FF91FE45D47
:10112000FE4F80818093FB0181818093FC0182814D
:101130008093FD018DE08093FE0181E08093FF01AB
:1011400086E060E04AEF51E0A4DF1F910895CF935D
:10115000DF93EC0188818F3F09F0DDC08C81853001
:1011600008F0D9C0843009F05EC08091030281305C
:1011700009F059C01092030280917401813021F46A
:10118000109276011092750190913801898189172A
:1011900009F049C0909139018A81891709F043C04B
:1011A00090913A018B81891709F03DC08CE061E094
:1011B00099D888E893E128EC30E0F9013197F1F70C
:1011C0000197D9F78CE060E08DD8E0913B01F0E029
:1011D0008D81E050FF4F808380913B0190E0209112
:1011E0003801FC01EE0FFF1FE80FF91FE45DFE4F11
:1011F000208380913B0190E020913901FC01EE0FAA
:10120000FF1FE80FF91FE45DFE4F218380913B0132
:1012100090E020913A01FC01EE0FFF1FE80FF91F4B
:10122000E45DFE4F2283109202021092010233C04D
:101230008091010290910202FC01EE0FFF1FE80F66
:10124000F91FE45DFE4F90818981891709F059C02B
:101250008091010290910202FC01EE0FFF1FE80F46
:10126000F91FE45DFE4F91818A81891709F049C019
:101270008091010290910202FC01EE0FFF1FE80F26
:10128000F91FE45DFE4F92818B818917D1F581E0D2
:101290008093000206C0809101029091020204979F
:1012A0003CF280910002882349F18C81813091F0D9
:1012B000833021F5E0910102F09102028D81E0502E
:1012C000FF4F8083E0910102F0910202E85BFE4F44
:1012D00081E013C0E0910102F0910202EE0FFF1FC6
:1012E000E45CFE4F81E090E091838083E091010215
:1012F000F09102028D81EC5BFE4F80831092000220
:101300000AC080910102909102020196909302021C
:1013100080930102C0CFDF91CF910895AA1BBB1B20
:1013200051E107C0AA1FBB1FA617B70710F0A61BE5
:10133000B70B881F991F5A95A9F780959095BC0106
:10134000CD01089597FB092E07260AD077FD04D01A
:10135000E5DF06D000201AF4709561957F4F08955F
:10136000F6F7909581959F4F0895FB01DC0102C02F
:1013700001900D9241505040D8F70895F894FFCF56
:10138000070707070106640C0F12150D1013160E40
:1013900011141702FFFF0100FF0F1E3C505A646E2C
:0A13A000788C96A0B401645A10FF87
:00000001FF
